:020000040800F2
:1000000050180020B52D0008811100088311000848
:10001000871100088B1100088F11000800000000F4
:100020000000000000000000000000009311000824
:1000300095110008000000009711000899110008B0
:10004000CF2D0008CF2D0008CF2D0008CF2D0008A0
:10005000CF2D0008CF2D0008C9230008CF2D0008A0
:10006000CF2D0008CF2D0008CF2D0008CF2D000880
:10007000CF2D0008CF2D0008CF2D0008CF2D000870
:10008000CF2D0008CF2D0008CF2D0008CF2D000860
:10009000CF2D0008CF2D0008CF2D0008CF2D000850
:1000A000CF2D0008CF2D0008CF2D0008CF2D000840
:1000B000CF2D00081B140008CF2D0008CF2D0008FD
:1000C000CF2D0008CF2D0008CF2D0008CF2D000820
:1000D000CF2D0008CF2B0008EB2C0008CF2D0008F7
:1000E000CF2D0008CF2D0008CF2D0008CF2D000800
:1000F000CF2D0008CF2D0008CF2D0008CF2D0008F0
:10010000CF2D0008CF2D000801160008CF2D0008C4
:10011000CF2D0008CF2D0008CF2D0008CF2D0008CF
:10012000CF2D0008CF2D0008CF2D0008CF2D0008BF
:1001300000F002F800F04FF80AA090E8000C8244AA
:100140008344AAF10107DA4501D100F044F8AFF287
:10015000090EBAE80F0013F0010F18BFFB1A43F0A5
:1001600001031847306E0000506E0000103A24BFA3
:1001700078C878C1FAD8520724BF30C830C144BF0C
:1001800004680C607047000000230024002500264E
:10019000103A28BF78C1FBD8520728BF30C148BFEA
:1001A0000B607047662906F09E85642904F0E68698
:1001B000782904F01B87002070471FB5AFF300803B
:1001C00005F008FA04000020002105F035FFE0608A
:1001D0001FBD10B510BD05F0F3FA1146FFF7EDFF96
:1001E00000F0CCFB05F011FBFFF7F3FF02F092FCEF
:1001F00010B5024600201078012303E0D45C604073
:100200005C1CA3B28B42F9DB10BD2DE9F041A2B01A
:1002100004460D4600260027842101A804F014FF9F
:10022000B0460020FF490860242001A9C8557F1C62
:100230006420C8557F1C6120C8557F1C7420C85598
:100240007F1C5F20C8557F1CF7480078C82812DA49
:10025000F5480078401CF4490870084600782428C6
:1002600003D0084600780D2808D1EF480078401CDC
:10027000ED49087002E00020EB490870EA48007878
:1002800001A9C855781CC7B22146E21704EB927247
:100290009010C21700EB1262121201ABDA55781CF3
:1002A000C7B2E21704EB92729010C21700EB126211
:1002B0001212A0EB0222DA55781CC7B200261AE00F
:1002C00015F82600C000012202EB8601695C00EBF4
:1002D0008100022202EB8601695C00EB41000322EF
:1002E00002EB8601695C0844303001A9C855781CCE
:1002F000C7B2701C86B2E11704EB9171B6EBA10F87
:10030000DEDB394601A8FFF773FF8046B8F1240F02
:1003100002D0B8F10D0F03D108F1010000F0FF0881
:1003200001A800F80780781CC7B20D2001A9C855A4
:10033000781CC7B20A20C855781CC7B2012240F207
:100340002551BA4804F0BEF8B9A004F0CFFD00264C
:1003500006E001A8815DBBA004F0C8FD701C86B258
:10036000B81EB042F5DC00260DE001A8815DAF4863
:1003700004F00BF900BF4021AC4804F074F90128E7
:10038000F9D1701C86B2BE42EFDBAFA004F0AEFD27
:1003900022B0BDE8F0812DE9F041A4B006460C463C
:1003A00000250027802104A804F04EFE68460021A5
:1003B0000A460B46884680E80E01884600BF0CE0DE
:1003C000A6F12400A84203DD605D04A9485502E0BF
:1003D000002004A94855681CC5B2802DF0DB9BA005
:1003E00004F084FD002706E004A8C15D9BA004F092
:1003F0007DFD781C87B2802FF6DB694604A802F0E9
:100400003DFA9749684602F090F904A9684602F05F
:1004100011FA94A004F06AFD002706E004A8C15D6B
:100420008EA004F063FD781C87B2802FF6DB86A0D7
:1004300004F05CFD0025A6F1240087B20EE0E05D2B
:1004400004A9495D884205D08CA004F04FFD24B07A
:10045000BDE8F081681CC5B2781C87B2B742EEDBFC
:10046000242D05D18B48008840F48060894908809C
:1004700000278848008810F4806F43D0022507E0E9
:10048000605DC5F10B018840384387B2681CC5B276
:100490000C2DF5DB394680A004F028FD4FF0000854
:1004A00000270AE0A6F148003844205CC7F11F018C
:1004B000884040EA0808781C87B2202FF2DB4146CA
:1004C0007AA004F013FD7D480068804503D87CA025
:1004D00004F00CFDBBE77948C0F800800A2F10D269
:1004E000DFE807F005060708090A0B0C0D0E08E007
:1004F00007E006E005E004E003E002E001E000E0E0
:1005000000BF00BFA3E72DE9F04FC5B004460D467C
:1005100000260027B046802124A804F095FD20A8DD
:1005200000210A460B46894680E80E0268A103C9ED
:10053000CDE91E0100201D9081468246642104A859
:1005400004F082FDB34600BF0CE0A4F12400B042E9
:1005500003DDA85D24A9885502E0002024A9885560
:10056000701CC6B2802EF0DB38A004F0BFFC4FF048
:10057000000809E024A810F8081038A004F0B6FC20
:1005800008F101001FFA80F8B8F1800FF2DB20A912
:1005900024A802F073F9324920A802F0C6F824A971
:1005A00020A802F047F92FA004F0A0FC4FF00008AB
:1005B00009E024A810F8081028A004F097FC08F11E
:1005C00001001FFA80F8B8F1800FF2DB1EA004F0E2
:1005D0008DFC0026A4F124001FFA80F811E015F824
:1005E000080024A9895D884205D03BA004F07EFC68
:1005F00045B0BDE8F08F701CC6B208F101001FFACB
:1006000080F8A045EBDB242E05D12248008840F479
:100610008060204908801F48008810F4806F67D0F0
:10062000287966E0948121422400002000440040A3
:100630000D0A736563757265206672616D653A0DAA
:100640000A000000257820000D0A00000D0A41452F
:100650005320737472696E673A0D0A0025640000B6
:10066000590000200D0A414553206E61746976657A
:1006700020737472696E673A0D0A00000D0A436FA9
:100680006E74726F6C204145532077726F6E6721D4
:10069000210D0A003E0000200D0A776172696E6725
:1006A00020696E6465783D25640D0A006672616D8F
:1006B000655F6E756D733A25640D0A0014000020A5
:1006C0006672616D65206973206F6C642E00000096
:1006D00000000000000000000D0A57616B65757096
:1006E000204145532077726F6E6721210D0A00006B
:1006F00042E1C001697900EB8110A97900EB41105A
:10070000E97900EB0110297A00EBC100697A00EB6E
:100710008100A97A00EB4100E97A0844C0B21D903B
:100720004FF0000A242004A901F80A000AF1010A86
:10073000732001F80A000AF1010A742001F80A0086
:100740000AF1010A6D2001F80A000AF1010A5F208E
:1007500001F80A000AF1010A012001F80A000AF171
:10076000010A1D98303001F80A000AF1010A5146C9
:1007700004A8FFF73DFD8146B9F1240F02D0B9F17D
:100780000D0F03D109F1010000F0FF0904A800F8E2
:100790000A900AF1010000F0FF0A0D2004A901F8F7
:1007A0000A000AF1010000F0FF0A0A2001F80A001D
:1007B0000AF1010000F0FF0A00270DE004A8C15D66
:1007C000FF4803F0E2FE00BF4021FD4803F04BFF6D
:1007D0000128F9D1781CC7B25745EFDB1D9805F009
:1007E0003BFFCDE90201F7A00CC8029805F01EFD01
:1007F000CDE90001F5A00CC8009805F033FCCDE967
:100800001E01F4A0DDE91E2304F070FB4FF0000B85
:10081000D8460CE0A4F148004044285CC8F11F0110
:10082000884040EA0B0B08F101001FFA80F8B8F18C
:10083000200FEFDB5946AFF28C1004F057FBEC4869
:100840000068834504D8AFF2881004F04FFBCFE670
:10085000E748C0F800B00020E649086080460EE096
:1008600008F10C00285CC8F11D018840E1490968C5
:100870000843E049086008F101001FFA80F8B8F168
:100880001E0FEDDBDB480168DBA004F02FFBE878EE
:10089000A97800EB4100022803D1DCA004F026FB7C
:1008A0006AE0E878A97800EB410001281FD1E0A0B8
:1008B00004F01CFB0020E649086080460EE008F1C9
:1008C0003000285CC8F117018840E14909680843F5
:1008D000DF49086008F101001FFA80F8B8F1180F2D
:1008E000EDDBDB480168DBA004F000FB44E0E878C6
:1008F000A97800EB410003283BD1DDA004F0F6FA13
:100900000020D349086080460EE008F13000285CE2
:10091000C8F117018840CE4909680843CC490860EE
:1009200008F101001FFA80F8B8F1180FEDDBC84894
:100930000168C8A004F0DAFA0020D64908608046B1
:100940000EE008F14800285CC8F117018840D14941
:1009500009680843CF49086008F101001FFA80F8D0
:10096000B8F1180FEDDBCB480168CBA004F0BEFA5C
:1009700002E0CFA004F0BAFA3AE670472DE9F04F52
:10098000ADF5357D00240025002600271821AFA8ED
:1009900004F05AFB1821A9A804F056FB4FF40A7181
:1009A0001FA804F051FB00201E908046814683461C
:1009B000642105A804F048FB0020049002F044F8EC
:1009C00002F0A2F84FF47A3002F0B2F84FF4165069
:1009D00002F03BF900F0C6FC0020BA49086047214C
:1009E0004FF6FF7000F0BDFD41F61F4142F20F705F
:1009F00000F0E6FC0222B449B44801F093FFB2488B
:100A00000078332815D00020B149087048708870EC
:100A1000C8700422AD480A3801F094FF00207449E0
:100A200008603320A84908700222A84801F08AFF14
:100A300015E00422A749A5480A3801F073FFA5482C
:100A400000780006A349497800EB0140A149897864
:100A500000EB01209F49C9780844654908600020DF
:100A60009D4908703AE39D48008810F4007F4AD100
:100A70009A48008810F4006F45D099480088401CBF
:100A8000182190FBF1F09449097888423BDD00255C
:100A90000BE09148007800EB400005EBC000914965
:100AA000085CAFA94855681CC5B2182DF1DBA9A98F
:100AB000AFA801F0ECF900250EE0C5F10B00A9A9E3
:100AC000095C1FA8884A1288815487480088401C06
:100AD00085490880681CC5B20C2DEEDB7E48007885
:100AE000401C7D4908708048008880490988B1EB26
:100AF000400F08D17948008840F400707749088099
:100B00000020754908704FF6FD70804504DA08F141
:100B100001001FFA80F809E04FF6FD70804505DB03
:100B200009F101001FFA80F94FF00008B9F15A0FDE
:100B30000ED101216E4803F034F96B4803886648F2
:100B40000278664801886B4804F0D0F94FF000093C
:100B50006248008810F4007F30D06048008810F0B0
:100B6000080FF9D000240FE0634830F81420214624
:100B700062A004F0BBF9644830F81420214663A059
:100B800004F0B4F9601C84B2072CEDDB5A490988E3
:100B9000594A52881144584A92881144564AD28878
:100BA0001144594A12881144574A52881144564AEE
:100BB00092881144544AD2888818AFE02DE1000091
:100BC0000038014000000000000024400000000048
:100BD00000005340636F6D756E6174696F6E2070B5
:100BE0006F696E743A25664D487A0D0A0000000060
:100BF0001400002018000020736F757263655F6138
:100C000064647265733A25640D0A000062726F6154
:100C100064636173742077616B657570204145531F
:100C200020535543434553530D0A0D0A000000005D
:100C3000756E69636173742077616B6575702041AF
:100C4000455320535543434553530D0A0D0A0000A5
:100C50001C0000207461726765745F616464726572
:100C600073735F73746172743A25640D0A00000037
:100C70006D756C7469636173742077616B657570F1
:100C80002041455320535543434553530D0A0D0A04
:100C900000000000200000207461726765745F61CD
:100CA0006464726573735F656E643A25640D0A004F
:100CB0000D0A66696E616C2077726F6E6721210D77
:100CC0000A000000940123420A0000200A000708DD
:100CD00000000020040000200C0000203E00002046
:100CE00044000020C00000200E0000205200002020
:100CF00000040040806D0008A400002025642055F9
:100D0000502025640D0A0000B200002025642064F4
:100D10006F776E2025640D0A0000000005F062FF69
:100D20004FF08241039005F06BFE0746384605F010
:100D300033FECDE90201EA48038800930B46E9A09F
:100D4000029A04F0D3F8EF480188EFA004F0CEF83F
:100D5000002407E0F148015DAFF2007004F0C6F82E
:100D6000601C84B20B2CF5DBEDA004F0BFF800246E
:100D700007E0EF48015DAFF21C7004F0B7F8601CAB
:100D800084B2E04800888442F3DBEAA004F0AEF8C5
:100D9000002407E01FA8015DAFF2407004F0A6F840
:100DA000601C84B2E74800888442F3DB9DF87D0034
:100DB0009DF87C1000EB4100C0B21E901E9830B12F
:100DC000012807D002280BD0032815D10EE0FFF729
:100DD000D4FD11E01FA9DB480088FFF794FB0BE06E
:100DE0001FA9D8480088FFF7D6FA05E01FA9D54803
:100DF0000088FFF70AFA00BF00BF0020B84908804A
:100E0000D0490880D049087047214FF6FF7000F0A4
:100E1000A8FB0121CD4802F0C4FFCD48008810F4A2
:100E2000004F7ED0CA480088C0F30D0AC948007838
:100E3000242877D1BAF1000F74DDAAF1010081B244
:100E4000C448FFF7D5F904900498242802D00498E8
:100E50000D2803D10498401CC0B20490AAF10100EF
:100E6000BC49095C0498814271D1BA484078652830
:100E70006ED1B84880786328FAD1B648C078632824
:100E8000F6D1B44800795F28F2D1B24840795F28A2
:100E9000EED10120B0490860AE48407AAF490870F1
:100EA00008460078002865D1ADA004F01FF84FF087
:100EB000000B242005A901F80B000BF1010B732096
:100EC00001F80B000BF1010B742001F80B000BF182
:100ED000010B6D2001F80B000BF1010B5F2001F8F5
:100EE0000B000BF1010B022001F80B000BF1010BC1
:100EF000012001F80B000BF1010B594605A8FFF783
:100F000077F9049004980D2802D00498242803D17E
:100F10000498401CC0B2049005A9049801F80B0085
:100F200001E0D5E0CAE00BF1010000F0FF0B0D205D
:100F300001F80B000BF1010000F0FF0B0A2001F893
:100F40000B000BF1010000F0FF0B00260FE0ABE0FF
:100F50007AE005A8815D854803F017FB00BF4021BA
:100F6000824803F080FB0128F9D1701CC6B25E45AF
:100F7000EFDB5FE07EA003F0B9FF4FF0000B242011
:100F800005A901F80B000BF1010B732001F80B0010
:100F90000BF1010B742001F80B000BF1010B6D201C
:100FA00001F80B000BF1010B5F2001F80B000BF1B6
:100FB000010B022001F80B000BF1010B002001F8DE
:100FC0000B000BF1010B594605A8FFF711F904902E
:100FD00004980D2802D00498242803D10498401CBA
:100FE000C0B2049005A9049801F80B000BF10100B0
:100FF00000F0FF0B0D2001F80B000BF1010000F0D9
:10100000FF0B0A2001F80B000BF1010000F0FF0BB1
:1010100000260DE005A8815D544803F0B6FA00BF34
:101020004021524803F01FFB0128F9D1701CC6B2C1
:101030005E45EFDB002046490880012240F2255141
:101040004E4803F03FFA49E042484078722821D1E7
:101050004048807874281DD13E48C078732819D143
:101060003C4800795F2815D13A4840795F2811D172
:101070000120394908601FA932480088FFF7C5F8E8
:10108000002033490880012240F225513B4803F0FB
:1010900019FA23E000202E490880012240F2255150
:1010A000364803F00FFA19E0002029490880012290
:1010B00040F22551314803F005FA0FE000202449A1
:1010C0000880012240F225512C4803F0FBF905E08D
:1010D000012240F22551294803F0F4F9C3E400004D
:1010E0003E00002073616D706C6520726174653A1A
:1010F00025662C2564206269742053594E43210DC6
:101100000A000000440000206672616D655F696E30
:101110006465783A2564200D0A0000000C05002063
:101120000D0AD4ADCABCCAFDBEDDA3BA00000000E2
:10113000C00000200D0ABDE2C2EBD6A1A3BA0D0A81
:10114000000000000E0000200C000020000C0040F9
:1011500086000020CA0E0020948121421000002049
:101160006563632061636365737321000038014028
:101170006563632077726F6E672100000044004052
:10118000704700BFFEE700BFFEE700BFFEE700BFFD
:10119000FEE770477047704770470000002000214D
:1011A000674A126842F48032654B1A6000BF644A95
:1011B000126802F40031401C11B9B0F5A06FF6D1ED
:1011C0005F4A126812F4003F01D0012100E00021C3
:1011D000012942D15B4A126842F01002594B1A6051
:1011E0001A46126822F003021A601A46126842F088
:1011F00002021A60524A5268514B5A601A465268AB
:101200005A601A46526842F480625A601A4652681E
:1012100022F47C125A601A46526842F4E8125A606C
:101220001A46126842F080721A6000BF444A12687F
:1012300012F0007FFAD0424A526822F00302404B7B
:101240005A601A46526842F002025A6000BF3C4A95
:10125000526802F00C02082AF9D1704710B5FFF766
:101260009DFF10BD10B53648006840F001003449BC
:1012700008600846406834490840314948600846DB
:101280000068324908402E4908600846006820F48A
:10129000802008600846406820F4FE0048604FF453
:1012A0001F008860FFF7DAFF4FF0006028490860F0
:1012B00010BD10B5002000210022214B5B6803F017
:1012C0000C0020B1042806D0082828D107E0214BC3
:1012D000214C236027E01F4B1F4C236023E0184B59
:1012E0005B6803F47011164B5B6803F480320223D1
:1012F00003EB914122B9194B4B43174C23600DE08E
:101300000F4B5B6813F4003F04D0144B4B43124C5B
:10131000236003E00F4B4B430F4C236003E00D4B66
:101320000D4C236000BF00BF054B5B68C3F3031384
:101330000B4CE05C084B1B68C340074C236010BD9E
:1013400000100240002002400000FFF8FFFFF6FE00
:1013500008ED00E000127A002800002000093D009E
:101360002C00002008B50121482002F0BDF8E02043
:10137000ADF8000010208DF8030003208DF8020066
:1013800069460D4801F006FE20210B4801F0AAFE37
:101390004021094801F0A8FE8021074801F0A4FE81
:1013A0002020ADF800006946044801F0F3FD20213B
:1013B000024801F097FE08BD000C014000180140F2
:1013C0007FB504460D460121022002F09AF8ADF8DF
:1013D0000840ADF804500020ADF80A00ADF8060052
:1013E00001A9FA4802F0B6F901224121F74802F0BA
:1013F000FDFC1D208DF8000000208DF80100032069
:101400008DF8020001208DF80300684601F0F7FC1A
:101410000121EE4802F0C5FC7FBD38B500200090E8
:1014200000240121E94802F05EFF002851D001218B
:10143000E64802F069FFE648006808B9012000E0CC
:101440000020E3490860E3480088B0F5167F05DA1C
:10145000E0480088401CDF4908803AE004226946E1
:10146000DD4801F05FFA9DF8000000069DF80110CC
:1014700000EB01409DF8021000EB01209DF80310E5
:101480004418D6480068844223D20021D44802F090
:1014900088FCD2480068000E8DF80000CF48006834
:1014A000000C8DF80100CD480068000A8DF802009C
:1014B000CA480068C0B28DF8030004226946C648D5
:1014C00001F040FA0020C34908800121C44802F01D
:1014D00068FC38BD30B589B004460D4601210220B4
:1014E00002F00FF80121092001F0FEFF0121BD48A3
:1014F00001F01BFE2020ADF8200018208DF82300FD
:1015000003208DF8220008A9B74801F043FDADF88B
:101510001840ADF814500020ADF81A00ADF81600D0
:1015200005A9AA4802F016F97020ADF804000120C0
:10153000ADF806000020ADF80A00ADF80C0001A9D6
:10154000A24802F086F90821A04802F060FD0121BE
:101550009E4802F024FD01219C4802F022FC09B0C3
:1015600030BD30B585B004460D460121082001F09C
:10157000C8FF0121042001F0B7FF0220ADF81000E0
:1015800048208DF8130004A9984801F003FD0221BA
:10159000964801F0A9FDADF80840ADF804500020D0
:1015A000ADF80A00ADF8060001A98D4802F0D2F8A6
:1015B00004208F4908800020488001208880002076
:1015C000C88011200881864802F02DFB32208DF85A
:1015D000000002208DF8010000208DF8020001209B
:1015E0008DF80300684601F00AFC012205217C48C1
:1015F00002F0FCFB01217A4802F0D3FB05B030BDBC
:1016000030B58DB00024182107A803F01DFD182166
:1016100001A803F019FD002500216C4802F0C1FB70
:101620007448008810F0800F6FD101216C4802F0DF
:101630005AFEE0B170480078B0B900206D490880CA
:101640000121624802F0ADFB00206C4908800021B6
:10165000634802F04EFD00206749891E0870491C4E
:1016600008706749088002E00020634908706148FB
:10167000008880B901220421594802F0B7FB0021FB
:10168000574802F036FD00205B49891E0870491C4E
:1016900008705A4908800421514802F024FE0028AD
:1016A00073D00120544908705248008810F0400F50
:1016B0006CD04B4802F0FBFD50490880084600887A
:1016C000B0F5617F22DD0846008840F24C41884237
:1016D0001CDA4848008800F00700072866DA454809
:1016E0000088401C4349088044480088C01C454984
:1016F000414A921E127821F812003F48801E00785D
:10170000401C3D49891E087050E065E13B48008857
:1017100040F26C7188423ADD3848008840F6340166
:10172000884234DA3348008800F0070007283DDAA1
:1017300030480088401C2F4908803049088800EB59
:10174000D0714910C91C2F4A2B4B9B1E1B7822F8C5
:1017500013102948801E0078401C2749891E0870F4
:101760002949088800EBD0714910491E8AB22749DF
:10177000214B5B1E1B7821F813201F48401E007868
:10178000401C1D49491E087010E0A8E240E00020FE
:101790001849088001210D4802F003FB0020174979
:1017A00008801549891E0870491C08701148008876
:1017B00000F0BF000F4908800846008840F0200074
:1017C00008800021064802F094FC88E200040040F2
:1017D000940123423C000020000007081400002070
:1017E000000C004000081A00000C014000080140F5
:1017F000180500203E000020570000204000002077
:1018000044000020A400002042000020B20000207C
:10181000FF4802F04CFDFF490988401AFE49088044
:1018200008460088B0F5617F18DD0846008840F260
:101830004C41884212DAF948008810F0200F53D04A
:10184000F5480088401EF649F64A127821F8120041
:10185000F4480078401CF349087045E0EE480088E1
:1018600040F26C71884233DDEB48008840F6340169
:1018700088422DDAE948008810F0200F34D0E7487C
:101880000088401CE5490880E249088800EBD071D7
:101890004910C91CE44AE34B5B1E1B7822F8131065
:1018A000E048401E0078401CDE49491E0870DA49B5
:1018B000088800EBD0714910491ED94AD94B1B78D2
:1018C00022F81310D7480078401CD64908700BE066
:1018D0000020D24908800121D44802F062FA002099
:1018E000D0490870491E0870CC48008800F00700F5
:1018F000062851DDC948008840F08000C7490880AB
:1019000000220421C24802F071FA0024002506E0FA
:10191000C54830F81500204484B2681CC5B2C148DF
:10192000401E00788542F3DB002506E0BC4830F815
:101930001500204484B2681CC5B2BA4800788542BC
:10194000F4DB04F1320084B24FF47A7094FBF0F1CE
:1019500000FB114084B2B4F5FA7F07DD40F2DC51A0
:10196000091BA1F10A0001F084F803E0C4F5F57049
:1019700001F07FF80221AE4801F09AFBAD49887270
:1019800040F2E730A2492C3108800020A5490870B8
:10199000491E0870C91C0870A2480078072804DA9C
:1019A000A048401E0078072804DB00209D490870ED
:1019B000491E08700020974908800021944802F0D1
:1019C0005DFC9648008840F0400094490880022160
:1019D0008F4802F08EFB82E19048008810F0800F63
:1019E0007CD08E48008810F0100F77D101218848F4
:1019F00002F079FC0028EED002218D4801F058FB5E
:101A00008C49C8728C48006808B9012000E00020A9
:101A100089490860002505E08649681C085C48552E
:101A2000681CC5B20B2DF7DB002514E08148405D32
:101A30008249495D884206D181480078401C40B205
:101A40007F49087005E07E480078401E40B27C491E
:101A50000870681CC5B20B2DE8DB7248801C00784A
:101A6000401C7049891C0870754890F900000928CD
:101A70000DDB0020734908804FF4876072490880AD
:101A80006648008840F010006449088021E06548FD
:101A9000801C00781E281CDD00206C4908706C49F1
:101AA00008804FF6FF705A492C310880012204212A
:101AB000574802F09BF90021554802F01AFB00201C
:101AC000564908800121594802F06BF961A003F0E2
:101AD0000DFA00205A49087001E1FFE74F480088DD
:101AE00010F0800FF8D04D48008810F0100FF3D0A0
:101AF0004A48008810F0080FEED10121444802F056
:101B0000F2FB0028E8D04F4800884F4909888842F6
:101B10007BDA0221464801F0CBFA5249494A128841
:101B200088544548006808B9012000E00020424977
:101B300008603A48008810F4807F61D141480088ED
:101B400018285DDD3548008840F4807033490880EE
:101B5000002505E04348405D07A94855681CC5B20B
:101B6000182DF7DB01A907A800F091F99DF80E00E8
:101B70009DF80F1000EB4100C5B229463AA003F0D2
:101B8000B5F935B1012D09D0022D29D0032D30D161
:101B90002AE04FF46A702C4908802AE09DF80C0076
:101BA0009DF80D1000EB410033490870084600789D
:101BB000022803D1F0202449088010E02E48007844
:101BC000012804D14FF490701F49088007E02A488B
:101BD0000078032803D14FF4A8701B49088008E05F
:101BE000A8201949088004E04FF46A70164908805B
:101BF00000BF00BF0948008840F400600749088022
:101C000010480088401C0F4908800E48008835E0C5
:101C1000000C004040000020420000203E00002058
:101C2000B200002056000020A40000200004004064
:101C3000000801400C050020988121424600002048
:101C40005100002044000020520000200C00002021
:101C50000E0000200D0AD5E2C0EFD3D0CECACCE2F0
:101C6000C5B62100C00000200D0AD6A1C0E0D0CD2D
:101C7000693D25640D0A0000540000201B490988B5
:101C800088422CD100201A4908601A48008840F088
:101C90000800184908804FF6FF704FF08041A1F806
:101CA0002C0C01220421144802F0A0F80021124853
:101CB00002F01FFA002205210F4802F097F80021D8
:101CC0000D4802F06EF80D4801780DA003F00EF9F2
:101CD00010A003F00BF90121124802F062F805216F
:101CE000054802F011FB0DB030BD0000520000208D
:101CF000988121423E000020000C0040540000204A
:101D00000D0AB9E3B2A5C0E0D0CD473D25640D0A68
:101D1000000000000D0AB1C8CCD8CAD5CDEA210D0B
:101D20000A00000000040040F0B586B003AF0022B6
:101D3000134614461CC700240025002600BF84E07B
:101D4000C4F10B03C35C9DF81670DA1902EBD27371
:101D50005B10A2EB4303DBB28DF80B309DF80B2038
:101D60008DF80A209DF80A208DF806209DF806209F
:101D70008DF805209DF805208DF804209DF804209D
:101D80008DF802209DF802208DF800209DF8153076
:101D90009DF80A70DA1902EBD2735B10A2EB4303D1
:101DA000DBB28DF816309DF814208DF815209DF8C3
:101DB00013208DF814209DF812208DF813209DF823
:101DC00011309DF80670DA1902EBD2735B10A2EBAA
:101DD0004303DBB28DF812309DF810309DF805708A
:101DE000DA1902EBD2735B10A2EB4303DBB28DF87E
:101DF00011309DF80F309DF80470DA1902EBD273A0
:101E00005B10A2EB4303DBB28DF810309DF80E207F
:101E10008DF80F209DF80D309DF80270DA1902EB55
:101E2000D2735B10A2EB4303DBB28DF80E309DF84A
:101E30000C208DF80D209DF800208DF80C20C4F1A9
:101E40000B02825C0A55621CD4B20C2CFFF678AFF0
:101E5000002508E0C5F10A0203AB9A5C0A55621C32
:101E6000D4B26A1CD5B20B2DF4DB002404E00A5D69
:101E70003244D6B2621CD4B2172CF8DB324606EBE1
:101E8000D6735B10A6EB4303CB7506B0F0BD2DE90E
:101E9000F04F8FB004460D460CA80022134616469C
:101EA0004CC0182106A803F0CFF800260027B04642
:101EB0000020059002A800210A460B460EC0894664
:101EC0008A468B460020019000BF08E014F80A0003
:101ED00006A901F80A000AF1010000F0FF0ABAF1B0
:101EE000170FF3DB4FF0000B5CE09DF83A609DF8B4
:101EF0003910881900EBD0714910A0EB4101C9B22B
:101F00008DF83A109DF838008DF839009DF83700AB
:101F10008DF838009DF836008DF837009DF83510A3
:101F2000881900EBD0714910A0EB4101C9B28DF8BE
:101F300036109DF83410881900EBD0714910A0EBD1
:101F40004101C9B28DF835109DF83310881900EBA6
:101F5000D0714910A0EB4101C9B28DF834109DF841
:101F600032008DF833009DF83110881900EBD071E4
:101F70004910A0EB4101C9B28DF832109DF8300034
:101F80008DF8310006A911F80B10881900EBD071FB
:101F90004910A0EB4101C9B28DF830100BF10100DE
:101FA00000F0FF0BBBF1170F9FDB00BF4FF0000AE3
:101FB00009E00CA810F80A00484400F0FF090AF1F3
:101FC000010000F0FF0ABAF10B0FF2DBB9F1030FC9
:101FD00010DC4FF0000A09E00CA810F80A0002A972
:101FE00001F80A000AF1010000F0FF0ABAF10B0F34
:101FF000F2DB57E14FF000099DF83A008DF812002E
:102000009DF83910481C00EBD0714910A0EB41013C
:10201000C9B28DF811109DF83810481C00EBD07132
:102020004910A0EB4101C9B28DF810109DF837009E
:102030008DF80F009DF83610481C00EBD071491048
:10204000A0EB4101C9B28DF80E109DF83510481C67
:1020500000EBD0714910A0EB4101C9B28DF80D1011
:102060009DF834008DF80C009DF833008DF80B00BE
:102070009DF83210481C00EBD0714910A0EB4101D3
:10208000C9B28DF80A109DF83110481C00EBD071D0
:102090004910A0EB4101C9B28DF809109DF830003C
:1020A0008DF80800CA4609E002A810F80A00484462
:1020B00000F0FF090AF1010000F0FF0ABAF10B0F6E
:1020C000F2DBB9F1020F17DCB91D172291FBF2F315
:1020D00002FB131106AA515C481C00EBD071491099
:1020E000A0EB4101CAB2B91D172391FBF3FC03FB1E
:1020F0001C1106AB5A54D5E04FF000099DF83A1078
:10210000481C00EBD0714910A0EB4101C9B28DF819
:1021100012109DF83910481C00EBD0714910A0EB4B
:102120004101C9B28DF811109DF838008DF81000EA
:102130009DF83710481C00EBD0714910A0EB41010D
:10214000C9B28DF80F109DF83610481C00EBD07105
:102150004910A0EB4101C9B28DF80E109DF8350071
:102160008DF80D009DF834008DF80C009DF83310AB
:10217000481C00EBD0714910A0EB4101C9B28DF8A9
:102180000B109DF83210481C00EBD0714910A0EBE9
:102190004101C9B28DF80A109DF831008DF809008F
:1021A0009DF830008DF80800CA4609E002A810F832
:1021B0000A00484400F0FF090AF1010000F0FF0A9C
:1021C000BAF10B0FF2DBB9F1020F17DC791D172200
:1021D00091FBF2F302FB131106AA515C481C00EBC1
:1021E000D0714910A0EB4101CAB2791D172391FBB0
:1021F000F3FC03FB1C1106AB5A5453E04FF00009EB
:102200009DF83A609DF83910881900EBD07149109B
:10221000A0EB4101C9B28DF83A109DF838008DF855
:1022200039009DF837008DF838009DF836008DF89C
:1022300037009DF83510881900EBD0714910A0EBDC
:102240004101C9B28DF836109DF83410881900EBA1
:10225000D0714910A0EB4101C9B28DF835109DF83D
:102260003310881900EBD0714910A0EB4101C9B2BD
:102270008DF834109DF832008DF833009DF8311040
:10228000881900EBD0714910A0EB4101C9B28DF85B
:1022900032109DF830008DF831008DF83060781CD8
:1022A000C7B283E607F10C00172190FBF1F201FBA6
:1022B0001200C0B20590DDF814A00A2001901DE0C4
:1022C00017219AFBF1F201FB12A106AA515C02AAA6
:1022D000019BD25C881800EBD0714910A0EB410142
:1022E00017229AFBF2F302FB13A206AB99540AF1F0
:1022F000010000F0FF0A0198401E0190019800289B
:10230000DEDA4FF0000A0DE006A810F80A0005F822
:102310000A0015F80A00404400F0FF080AF1010025
:1023200000F0FF0ABAF1170FEEDB404608EBD87158
:102330004910A8EB4101E9754FF0000A07E00020C1
:102340000CA901F80A000AF1010000F0FF0ABAF135
:102350000B0FF4DB00200FB0BDE8F08F10B50121AA
:10236000080701F0CEF8012002F0EFF902F00FFAB1
:1023700010BD10B500214FF4FE7001F0CFF8FFF74B
:10238000EDFF10BD70B50024002500202E49086027
:1023900019E02E48006818B1601CC4B2002508E09E
:1023A000681CC5B2032D04DD012027490860002008
:1023B00070BD0F2000F07FFB0A2C04DB00202249B7
:1023C00008600120F4E7E4E710B5012002F09BFA71
:1023D000FFF7D8FF08B1FFF7CCFF10BD1FB50121F3
:1023E000052001F081F80120ADF80C0028208DF8BF
:1023F0000F0003A9164800F0CDFD0021084600F0AB
:10240000D8FE0120009000208DF8040008208DF8EF
:10241000050001208DF80600684602F0F7F9062055
:102420008DF8080002208DF809008DF80A000120BF
:102430008DF80B0002A800F0E2FCFFF7A3FF08B93B
:10244000FFF78CFF1FBD0000948121420001214253
:102450000008014030B500220FE000230AE000EB45
:102460008204E45C01EB8205ED5C6C4000EB8205CC
:10247000EC545B1C042BF2DB521C042AEDDB30BD58
:102480003FB501212CE0002207E000EB81039B5CBB
:102490006C4604EB8104A354521C042AF5DB002291
:1024A00009E000EB8103541804F003041B5D00EB0A
:1024B0008104A354521C032AF3DD01220DE06B4674
:1024C00003EB81040B1D9B1A03F00303E35C00EB99
:1024D0008104C2F104056355521C8A42EFDD491C98
:1024E0000429D0DB3FBD70B5002115E0002410E0C9
:1024F00000EB81052D5D2A1100EB81052D5D05F0B6
:102500000F03F74D05EB0215ED5C00EB8106355529
:10251000641C042CECDB491C0429E7DB70BD70B59E
:1025200004460D460026012D03D104FB05F0C4B27C
:1025300015E0022D09D1802C04DB6006040E84F026
:102540001B040CE06006040E09E0032D07D12646AB
:10255000681EC1B22046FFF7E2FF044674402046E1
:1025600070BD2DE9F04104464FF0000800261CE044
:10257000002717E000250BE0DA4A02EB8602515DE6
:1025800004EB8502D05DFFF7CAFF80EA08086D1CE6
:10259000042DF1DBD44800EB860000F807804FF0F3
:1025A00000087F1C042FE5DB761C042EE0DB0026F0
:1025B0000CE0002707E0CC4800EB8600C05D04EB90
:1025C0008601C8557F1C042FF5DB761C042EF0DB3A
:1025D000BDE8F08130B50478002105E04D1C05F020
:1025E0000305455D4554491C0329F7DBC4700021F0
:1025F0000AE0455C2A11455C05F00F03B84D05EB78
:102600000215ED5C4554491C0429F2DB30BD2DE96F
:10261000F84304468946B5A000680090002503E011
:10262000605DB34948556D1C102DF9DB102578E02D
:102630004FF0000808E0281F4044AD49085CAD4950
:1026400001F8080008F10108B8F1040FF3DBA9480C
:10265000FFF7C0FF4FF000080DE0A64810F8080093
:10266000A5F110014144A24A515C4840A14901F83A
:10267000080008F10108B8F1040FEEDB9DF8000036
:102680000121C1EB25118840C0B28DF8000008205F
:10269000B0EB251F07DA0920C0EB25111B2088406D
:1026A000C0B28DF800004FF0010804E000200DF8E2
:1026B000080008F10108B8F1040FF7DB4FF000083B
:1026C0000AE08C4810F808001DF8081048408949B5
:1026D00001F8080008F10108B8F1040FF1DB01204E
:1026E0008DF80000002608E08248805DA919804A24
:1026F000505400207F498855761C042EF4DB2F1D92
:102700000AE0381F7A49085CA7F11001784A515C49
:1027100048401146C8557F1C05F110008742F0DB88
:102720001035B02D84DBBDE8F8832DE9F04188B089
:1027300004460D466E492846FFF769FF002604E06F
:102740006B48805D04A98855761C102EF8DB0026A6
:102750000DE0002708E006EB870004A9085C694645
:1027600001EB8601C8557F1C042FF4DB761C042E78
:10277000EFDB69462046FFF76DFE01262EE020467E
:10278000FFF7B1FE2046FFF77BFE2046FFF7E9FE8C
:10279000002706E007EB06105549085C04A9C85558
:1027A0007F1C102FF6DB002711E04FF000080AE035
:1027B00007EB880004A9085C694601EB870101F872
:1027C000080008F10108B8F1040FF1DB7F1C042FA9
:1027D000EBDB69462046FFF73DFE761C0A2ECEDB7A
:1027E0002046FFF780FE2046FFF74AFE002606E05F
:1027F00006F1A0003E49085C04A98855761C102EFD
:10280000F6DB00260DE0002708E006EB870004A9B0
:10281000085C694601EB8601C8557F1C042FF4DB78
:10282000761C042EEFDB69462046FFF713FE08B046
:10283000BDE8F081F0B5002200230024002500BF90
:1028400019E0002313E007240DE000EB8206F65C9C
:102850000127A7403E4201D0012600E000264E5548
:102860006D1C661E74B2002CEFDA5E1C73B2042B72
:10287000E9DB561C72B2042AE3DBF0BDF0B500249C
:102880000025002200BF28E0002522E0002301EB04
:1028900084067355630103EBC50212E01346D61795
:1028A00002EB5676F610A2EBC606C6F10707865C69
:1028B000BE4001EB84077F5D3E4301EB84077E55FC
:1028C000521C630103EBC50308339342E6DC6B1C27
:1028D000DDB2042DDADB631CDCB2042CD4DBF0BDEA
:1028E000D56D0008690000202205002001000000CD
:1028F00032050020790000200146088870472DE944
:10290000F04104460D461746002607E035F816103C
:10291000204602F067F9A41C701C86B2BE42F5DBAB
:10292000BDE8F08130B503460C46002507E01846A7
:10293000FFF7E2FF24F815009B1C681C85B2954246
:10294000F5DB30BD2DE9F05F04460D461646B4F1C7
:10295000006F02D33A48844201D3BDE8F09F01F0F2
:10296000FBFFA4F1006B4FEADB27CBF34908C8F566
:1029700080694E4500DCB14654E04FF0006202EB46
:10298000C72052142F49FFF7CDFF4FF0000A0DE08A
:1029900008EB0A002B4931F81000A0F57F41FF3900
:1029A00000D005E00AF101001FFA80FACA45EFDB0A
:1029B00000BFCA451EDA4FF0006202EBC72002F0EA
:1029C00011F84FF0000A0AE035F81A000AEB080186
:1029D0001C4A22F811000AF101001FFA80FACA45C8
:1029E000F2DB4FF0006202EBC72052141549FFF7EB
:1029F00086FF04E04A4629462046FFF780FF4E4501
:102A000000D110E07F1C4FF0000805EB49054C4455
:102A1000A6EB090086B2B6F5806F02DD4FF480693F
:102A200000E0B146A9E700BF01F0A2FF95E713B5AA
:102A30000446012201A92046FFF784FF1CBD0000C7
:102A4000000008080206002010B56FF0040000F036
:102A500023FA2A4800682A49B0FBF1F02949087096
:102A6000084600784FF47A7148432649891C08804B
:102A700010BD244A127842434FF0E0235A610022ED
:102A80009A611A46126942F001021A6100BF4FF0C2
:102A9000E022116911F0010F02D011F4803FF6D04D
:102AA0004FF0E022126922F001024FF0E0231A6198
:102AB00000229A617047134A921C128842434FF0D9
:102AC000E0235A6100229A611A46126942F001021B
:102AD0001A6100BF4FF0E022116911F0010F02D01E
:102AE00011F4803FF6D04FF0E022126922F001028B
:102AF0004FF0E0231A6100229A61704728000020FD
:102B000000127A007E00002010B54FF4A06000F0A3
:102B100071F910BD014600BF704700BF9D4A128881
:102B200012F0400FFAD0C2B29A4B1B1D1A807047A8
:102B300010B586B00446012144F2040000F0D4FC34
:102B4000944801F0E5FB4FF40070ADF81400032049
:102B50008DF8160018208DF8170005A98E4800F092
:102B600019FA4FF48060ADF8140004208DF81700B6
:102B700005A9894800F00EFA25208DF800000320F1
:102B80008DF801008DF8020001208DF803006846E1
:102B900000F035F901940020ADF80800ADF80A0006
:102BA000ADF80C00ADF810000C20ADF80E0001A936
:102BB000784801F0F0FB012240F22551754801F000
:102BC00081FC0121734801F071FC06B010BD10B505
:102BD00040F225516F4801F05CFD002834D06D486B
:102BE00001F0D7FCC4B26D48008810F4004F2BD11F
:102BF0006A48008810F4804F0CD00A2C03D00020C3
:102C00006649088020E06548008840F40040634938
:102C1000088019E00D2C06D16048008840F48040FF
:102C20005E49088010E05D480088C0F30D005C49F3
:102C30000C545A480088401C5849088008460088AF
:102C4000C72801DD0020088010BD10B586B00446FD
:102C50000121042000F048FC0121480400F051FC4F
:102C6000504801F055FB0420ADF8140003208DF806
:102C7000160018208DF8170005A9474800F08AF9BA
:102C80000820ADF8140004208DF8170005A942486B
:102C900000F080F901940020ADF80800ADF80A00BA
:102CA000ADF80C00ADF810000C20ADF80E0001A935
:102CB0003C4801F070FB26208DF8000003208DF8C1
:102CC00001008DF8020001208DF80300684600F035
:102CD00096F8012240F22551324801F0F3FB012120
:102CE000304801F0E3FB06B010BD10B540F22551AD
:102CF0002C4801F0CEFC00284AD02A4801F049FCBB
:102D0000C4B2242C05D1012027490870002027498E
:102D100008802548007801283AD12448008810F41A
:102D2000004F35D12148008810F4804F15D00A2C6F
:102D300003D000201D4908802AE01C48008840F488
:102D400000401A490880002017490870002240F20C
:102D50002551144801F0B6FB1AE00D2C06D113489A
:102D6000008840F480401149088011E00F48008835
:102D7000C0F30D000E490C540C480088401C0B4950
:102D8000088008460088B0F5487F01DB00200880F5
:102D900010BD000000380140000801408400002000
:102DA000020E002000440040880000208600002021
:102DB000CA0E00200948804709480047FEE7FEE7A1
:102DC000FEE7FEE7FEE7FEE7FEE7FEE7FEE7FEE7DB
:102DD00004480549054A064B704700006512000883
:102DE000310100085012002050180020501400201B
:102DF0005014002032490143324A1160704770B5C7
:102E0000002100230F22C4780CB32E4C246804F454
:102E1000E064C4F5E064210AC1F10403CA404478C7
:102E200004FA03F18478144021430901264C067802
:102E3000A155047804F01F050124AC4005786D11FC
:102E40004FF0E02606EB8505C5F8004109E004785F
:102E500004F01F040125A5401C4C0678761144F8A7
:102E6000265070BD1A4A0A400243164B1B1F1A60B7
:102E7000704741B1134A121D126802434FF0E0231C
:102E8000C3F8102D07E00F4A121D126882434FF05D
:102E9000E023C3F8102D7047042808D14FF0E0213B
:102EA000096941F004014FF0E022116107E04FF0A1
:102EB000E021096921F004014FF0E022116170471F
:102EC0000000FA050CED00E000E400E080E100E025
:102ED00080FFFF1F10B50446C748844208D1012176
:102EE000042000F01BFB0021042000F017FB46E04B
:102EF000C248844208D10121082000F00FFB0021C4
:102F0000082000F00BFB3AE0BD48844208D10121C3
:102F1000102000F003FB0021102000F0FFFA2EE04B
:102F2000B848844208D10121202000F0F7FA00219E
:102F3000202000F0F3FA22E0B348844208D10121B6
:102F4000402000F0EBFA0021402000F0E7FA16E004
:102F5000AE48844208D10121802000F0DFFA002130
:102F6000802000F0DBFA0AE0A948844207D1012161
:102F7000801500F0D3FA0021A01500F0CFFA10BDA3
:102F800010B50121084600F0C9FA0021012000F027
:102F9000C5FA10BDF0B5002200230024002500264C
:102FA000002791F803C00CF00F0291F803C01CF049
:102FB000100F03D091F802C04CEA0202B1F800C031
:102FC0001CF0FF0F31D0066800242BE04FF0010CFD
:102FD0000CFA04F5B1F800C00CEA0503AB4220D1AD
:102FE000A5004FF00F0C0CFA05F7BE4302FA05FCE2
:102FF0004CEA060691F803C0BCF1280F06D14FF049
:10300000010C0CFA04FCC0F814C00AE091F803C0EB
:10301000BCF1480F05D14FF0010C0CFA04FCC0F8CC
:1030200010C0641C082CD1D30660B1F800C0BCF1FC
:10303000FF0F34DD466800242EE004F1080C4FF049
:10304000010E0EFA0CF5B1F800C00CEA0503AB4214
:1030500021D1A5004FF00F0C0CFA05F7BE4302FA80
:1030600005FC4CEA060691F803C0BCF1280F05D117
:1030700004F1080C0EFA0CFEC0F814E091F803C03D
:10308000BCF1480F07D104F1080C4FF0010E0EFA05
:103090000CFEC0F810E0641C082CCED34660F0BDD6
:1030A0004FF6FF710180022181700421C1707047C9
:1030B0000246002093680B4201D0012000E000206E
:1030C00070470146886880B2704702460020D36886
:1030D0000B4201D0012000E0002070470146C86883
:1030E00080B2704701617047416170470AB1016168
:1030F00000E041617047C16070474FF480320A437D
:103100008261816182618269826970470022414BDC
:103110001A684FF680731A4042EA00120A433D4B88
:103120001A6070473C49C8617047F0B5002200231F
:103130000024002500F00046B6F1004F02D1354EC4
:10314000F46901E0334E7468C0F3034582B200F4C1
:103150004016B6F5401F08D124F070642D4E7668F5
:1031600026F070662B4F7E6012E000F48016B6F5F4
:10317000801F06D1032606FA05F39C4344F07064D1
:1031800006E0460D360102FA06F6B44344F07064D8
:1031900021B1460D360102FA06F6344300F000462E
:1031A000B6F1004F02D11B4EF46101E0194E74607C
:1031B000F0BD30B500228B071C0F0F2303FA04F279
:1031C000144B08338C1053F8244094438D1043F86B
:1031D00025408C1053F824308C07240F00FA04F497
:1031E00023430C4C08348D1044F8253030BD0A4977
:1031F000DC3108607047000000080140000C01400D
:10320000001001400014014000180140001C014062
:10321000002001400000014000002042DB4800681F
:1032200040F00100D949086008464068D849084084
:10323000D649486008460068D6490840D349086026
:103240000846006820F4802008600846406820F4A2
:10325000FE0048604FF41F0088607047CB49096842
:1032600021F48031C94A11601146096821F4802196
:103270001160B0F5803F03D0B0F5802F0ED106E08D
:10328000C249096841F48031C04A116007E0BF4972
:10329000096841F4A021BD4A116000E000BF00BFF1
:1032A000704710B501460022002300204A11012A70
:1032B00002D1B64C236806E0022A02D1B34C236A3D
:1032C00001E0B24C636A01F01F02012494401C42E9
:1032D00001D0012000E0002010BD70B500240025C1
:1032E000002600BF3120FFF7DCFF0646641CB4F562
:1032F000A06F01D0002EF5D03120FFF7D2FF08B12A
:10330000012500E00025284670BD00219F4A116874
:1033100021F0F80141EAC001116070479E49086040
:1033200070470022994B5A6822F47C1240EA01034C
:103330001A43964B5A6070479749086670470021B8
:10334000924A516821F003010143516070478F4850
:10335000406800F00C00704700218C4A516821F051
:10336000F0010143516070470021884A516821F4FF
:10337000E0610143516070470021844A516821F4A3
:10338000605141EAC0015160704729B17F4A527AC9
:1033900002437E4B5A7206E07C4A527AC343DBB248
:1033A0001A407A4B5A7270477B49D831086070478F
:1033B0000021764A516821F4404101435160704731
:1033C0000021724A20321170704A82F820100128C0
:1033D00002D004280AD104E001216C4A2032117085
:1033E00005E00521694A2032117000E000BF00BFEE
:1033F00070476A49086070476449096A0143634A33
:1034000011627047654944390860704730B5002142
:103410000022002300245D4D6D6805F00C0121B1F0
:10342000042905D0082923D105E05D4D056022E07F
:103430005B4D05601FE0554D6D6805F47012534DEE
:103440006D6805F48033022505EB92421BB9554D9A
:10345000554305600BE04D4D6D6815F4003F03D0FA
:10346000504D5543056002E04D4D5543056002E067
:103470004B4D056000BF00BF444D6D6805F0F00185
:103480000909494D6C5C0568E54045603F4D6D6834
:1034900005F4E061090A444D6C5C4568E5408560CF
:1034A0003A4D6D6805F46051C90A3F4D6C5C456842
:1034B000E540C560354D6D6805F44041890B3A4DD6
:1034C00010356C5CC568B5FBF4F5056130BD29B1FC
:1034D0002E4A526902432D4B5A6104E02B4A52692D
:1034E00082432A4B5A61704729B1284A92690243A4
:1034F000264B9A6104E0254A92698243234B9A61E4
:10350000704729B1214AD2690243204BDA6104E0B5
:103510001E4AD26982431D4BDA61704729B11B4AAA
:10352000D2680243194BDA6004E0184AD268824339
:10353000164BDA60704729B1144A12690243134BE3
:103540001A6104E0114A12698243104B1A617047F4
:1035500012494039086070470F49C86470470B49E9
:10356000C87170470948406A40F080700749486256
:10357000704701460020054A92680A4201D00120A6
:1035800000E0002070470149887270470010024037
:103590000000FFF8FFFFF6FE0000424280044242B6
:1035A00000127A0000093D009000002010B504468A
:1035B000FF48844208D10121C014FFF7AFFF00216A
:1035C000E014FFF7ABFFC4E0B4F1804F08D1012154
:1035D0000846FFF7B0FF00210120FFF7ACFFB8E07D
:1035E000F448844208D101210220FFF7A4FF002102
:1035F0000220FFF7A0FFACE0EF48844208D1012190
:103600000420FFF798FF00210420FFF794FFA0E0BB
:10361000EA48844208D101210820FFF78CFF0021ED
:103620000820FFF788FF94E0E548844208D1012193
:103630001020FFF780FF00211020FFF77CFF88E0BB
:10364000E048844208D101212020FFF774FF0021C7
:103650002020FFF770FF7CE0DB48844208D1012185
:103660004014FFF75BFF00216014FFF757FF70E085
:10367000D648844209D10121C804FFF74FFF002139
:103680004FF40020FFF74AFF63E0D148844209D19C
:1036900001210805FFF742FF00214FF48010FFF7DA
:1036A0003DFF56E0CB48844209D101214805FFF790
:1036B00035FF00214FF40010FFF730FF49E0C64806
:1036C000844208D101214020FFF735FF002140202E
:1036D000FFF731FF3DE0C148844208D1012180203D
:1036E000FFF729FF00218020FFF725FF31E0BC48CC
:1036F000844208D101218015FFF71DFF0021A0158C
:10370000FFF719FF25E0B748844209D101210804D9
:10371000FFF704FF00214FF48030FFF7FFFE18E0B1
:10372000B148844209D101214804FFF7F7FE002186
:103730004FF40030FFF7F2FE0BE0AC48844208D1B2
:1037400001218804FFF7EAFE00214FF48020FFF7F3
:10375000E5FE10BD00220288954B98420ED09A4B90
:1037600098420BD0B0F1804F08D0924B984205D0D0
:10377000914B984202D0914B984204D14FF68F73EF
:103780001A404B881A438E4B984207D08D4B984273
:1037900004D04FF6FF431A40CB881A4302808B882F
:1037A00083850B880385824B98420BD0864B9842C9
:1037B00008D08C4B984205D08B4B984202D08B4B53
:1037C000984201D10B7A038601238382704770B53A
:1037D000002200230024058C4FF6FE763540058438
:1037E000038C8488028B4FF68F752A40B51E2A40C1
:1037F0000D882A43751E2B400D892B434D882B4382
:103800006B4DA8420BD0704DA84208D0754DA84210
:1038100005D0754DA84202D0744DA84213D14FF681
:10382000F7752B404D892B434FF6FB752B408D8848
:103830002B434FF6FF652C404FF6FF552C408D89EA
:103840002C43CD892C4384800283CD8885860384D4
:1038500070BD70B5002200230024058C4FF6EF7672
:1038600035400584038C8488028B48F6FF752A4016
:103870004FF6FF452A400D882D0642EA15424FF6C5
:10388000DF752B400D892D0543EA15434D882D0525
:1038900043EA1543464DA84202D04B4DA8421BD1E6
:1038A0004FF67F752B404D892D0543EA15434FF6A2
:1038B000BF752B408D882D0543EA15434FF6FF3524
:1038C0002C404FF2FF752C408D89AD0444EA15441D
:1038D000CD89AD0444EA154484800283CD880587F0
:1038E000038470BD70B5002200230024058C4FF6C0
:1038F000FF6635400584038C8488828B4FF68F7574
:103900002A404FF6FC752A400D882A434FF6FF5592
:103910002B400D892D0643EA15434D882D0643EAB9
:103920001543234DA84202D0274DA8421BD14FF288
:10393000FF752B404D892D0643EA15434FF6FF35A1
:103940002B408D882D0643EA15434EF6FF752C401B
:103950004DF6FF752C408D892D0544EA1544CD891F
:103960002D0544EA154484808283CD8885870384AD
:1039700070BD70B5002200230024058C4EF6FF7642
:1039800035400584038C8488828B48F6FF752A4075
:103990004FF6FF452A400D882D0642EA15424DF6A6
:1039A000FF752B400D892D0743EA15434D881FE015
:1039B000002C01400004004000080040000C0040C2
:1039C000001000400014004000340140004C014051
:1039D000005001400054014000180040001C00400D
:1039E00000200040004001400044014000480140E8
:1039F0002D0743EA1543F84DA84202D0F74DA842DF
:103A000006D14BF6FF752C408D89AD0544EA15446F
:103A100084808283CD88A0F84050038470BD828B5F
:103A20004FF2FF331A408283828B0B0642EA134225
:103A300082837047F0B5002400250026078C4EF6DF
:103A4000FF7C07EA0C070784848B058C0F073E0C6C
:103A500040F6FF473C40170644EA17441F0744EA74
:103A60001744DD4FB8420ED0DC4FB8420BD0B0F156
:103A7000804F08D0DA4FB84205D0DA4FB84202D0B2
:103A8000D94FB84206D14DF6FF773D4046F48057F6
:103A90003D4305E047F6FF573D4041F480573D4325
:103AA00084830584F0BD828B4FF6F3731A408283C2
:103AB000828B0A4382837047F0B5002400250026DC
:103AC000078C4FF6FF6C07EA0C070784848B058C84
:103AD0000F063E0C4FF60C773C401F0542EA174795
:103AE0003C43BD4FB8420ED0BC4FB8420BD0B0F1F2
:103AF000804F08D0BA4FB84205D0BA4FB84202D072
:103B0000B94FB84206D14FF6FF573D4046F4807793
:103B10003D4305E04FF2FF573D4041F480773D4380
:103B200084830584F0BD028B4FF2FF331A40028379
:103B3000028B0B0642EA134202837047F0B5002461
:103B400000250026078C4FF6EF7C07EA0C07078458
:103B5000048B058C0F053E0C40F6FF473C401F07C9
:103B600044EA1744170644EA17449B4FB8420ED064
:103B70009A4FB8420BD0B0F1804F08D0984FB8425E
:103B800005D0984FB84202D0974FB84206D14FF6B1
:103B9000DF773D4046F010073D4305E04FF65F7785
:103BA0003D4041F010073D4304830584F0BD028B86
:103BB0004FF6F3731A400283028B0A430283704765
:103BC000F0B500240025068C4FF6FE773E400684B3
:103BD000048B058C4FF60C7634401E0542EA1646DF
:103BE00034437D4EB0420ED07C4EB0420BD0B0F18B
:103BF000804F08D07A4EB04205D07A4EB04202D003
:103C0000794EB04206D14FF6FD76354041F00106BF
:103C1000354305E04FF6F576354041F00106354372
:103C200004830584F0BD70B504460D466A4884429D
:103C30000ED06A4884420BD0B4F1804F08D0684857
:103C4000844205D06748844202D06748844200D14C
:103C500000E000BF288850B92B89AA8869882046CF
:103C6000FFF7AEFFE9882046FFF7A1FF25E028888F
:103C700004280AD12B89AA8869882046FFF75EFFAD
:103C8000E9882046FFF74FFF17E0288808280AD167
:103C90002B89AA8869882046FFF70EFFE98820460D
:103CA000FFF701FF09E02B89AA8869882046FFF702
:103CB000C1FEE9882046FFF7B2FE70BD2DE9F04154
:103CC00004460D4600260127688808B9022600E050
:103CD0000026A888012801D1022700E001272888B2
:103CE000A0B92B89AA8869882046FFF769FFE9886F
:103CF0002046FFF75CFF2B893A4631462046FFF706
:103D00001DFFE9882046FFF70EFF13E02B89AA88E4
:103D100069882046FFF712FFE9882046FFF703FF76
:103D20002B893A4631462046FFF74AFFE98820466C
:103D3000FFF73DFFBDE8F0810A884B881A438B8866
:103D40001A43CB881A430B891A434B891A438B8930
:103D50001A43A0F8442070474FF6FF71818000217C
:103D60000180C18041800172704700210180418043
:103D70008180C180018141818181C18170470021A1
:103D800001804180012181800021C1800181704733
:103D90000021018041808180C18001814181818138
:103DA000704721B1028842F00102028004E00288DB
:103DB0004FF6FE731A400280704731B1B0F84420CC
:103DC00042F40042A0F8442005E0B0F84420C2F3D9
:103DD0000E02A0F844207047002C0140003401403E
:103DE0000004004000080040000C004010B51AB16B
:103DF00083890B43838104E08389CC43A4B22340AD
:103E0000838110BD8182704741EA0203A0F84830E7
:103E1000704710B51AB183890B43838104E083890D
:103E2000CC43A4B22340838110BD01894FF6F872C0
:103E3000114001817047002202894FF68F731A40AA
:103E40000A430281704730B504460D462946204694
:103E5000FFF7F1FF208940F00700208130BD2DE9F8
:103E6000F04104460D4616461F46602D06D13B46DE
:103E7000012231462046FFF761FE05E03B46012264
:103E800031462046FFF79CFE29462046FFF7D3FF28
:103E9000208940F007002081BDE8F08130B5002482
:103EA0000489E4B21D0642EA15450D432C43048102
:103EB00030BD2DE9F04104460D46164698460027D0
:103EC0004346324629462046FFF7E8FF27894FF64A
:103ED000F870074047F007074FF68F70074047F02C
:103EE00070072781BDE8F081F0B504460D461646FF
:103EF0001F463B46324629462046FFF7CFFF208922
:103F000040F480402081F0BD01858282704700220C
:103F100002884FF68F731A400A4302807047F0B54B
:103F20000024002500260489058B068C4FF6F877BF
:103F30003C400C434FF6FC473D4040F201173D43E7
:103F40004FF6DD773E401F0542EA17473E430481A6
:103F500005830684F0BD0022028B4FF68F731A4052
:103F60000A43028370470022028B48F6FF731A400F
:103F70000B0642EA1342028370470022828B4FF6FF
:103F80008F731A400A43828370470022828B48F65F
:103F9000FF731A400B0642EA13428283704721B135
:103FA000028842F08002028004E002884FF67F73AC
:103FB0001A400280704721B1828842F00402828058
:103FC00004E082884FF6FB731A408280704721B16B
:103FD000828842F00802828004E082884FF6F773FC
:103FE0001A408280704721B1828842F001028280AB
:103FF00004E082884FF6FE731A40828070470022E8
:10400000028B4FF6F7731A400A430283704700226F
:10401000028B4FF2FF731A400B0642EA13420283EF
:1040200070470022828B4FF6F7731A400A4382834F
:1040300070470022828B4FF2FF731A400B0642EA50
:104040001342828370470022028B4FF6FB731A40A3
:104050000A43028370470022028B4FF6FF331A4057
:104060000B0642EA1342028370470022828B4FF60E
:10407000FB731A400A43828370470022828B4FF6FB
:10408000FF331A400B0642EA134282837047002234
:10409000028B4FF67F731A400A4302837047002257
:1040A000028BC2F30E020B0642EA134202837047F0
:1040B0000022828B4FF67F731A400A438283704737
:1040C0000022828BC2F30E020B0642EA1342828365
:1040D00070470022028C4FF6FD731A400A43028497
:1040E00070470022028C4FF6F7731A400A4302848D
:1040F00070470022028C4FF6DF731A400B0542EA2C
:104100001342028470470022028C4FF67F731A40DC
:104110000B0542EA1342028470470022028C4FF6DC
:10412000FF531A400B0642EA1342028470470022F2
:10413000028C4FF2FF731A400B0642EA13420284CC
:1041400070470022028C4DF6FF731A400B0742EABB
:1041500013420284704730B5002301248C40A3B27F
:10416000048CDD43ADB22C400484048C02FA01F5CA
:10417000ADB22C43048430BD30B5002304248C4000
:10418000A3B2048CDD43ADB22C400484048C02FA4B
:1041900001F5ADB22C43048430BD70B5002300247A
:1041A00003461846183301258D40ACB2058CE64312
:1041B000B6B23540058409B1082909D103EB610382
:1041C0001D6825F070051D601D6815431D600CE01D
:1041D0000D1FADB203EB65031D6825F4E0451D60BE
:1041E0001D68160645EA16451D6070BD21B102889E
:1041F00042F00202028004E002884FF6FD731A408A
:104200000280704721B1028842F00402028004E07B
:1042100002884FF6FB731A400280704721B18288F2
:1042200042F08002828004E082884FF67F731A4059
:104230008280704702884FF6F7731A400280028826
:104240000A430280704782884FF68F731A4082803B
:1042500082880A438280704702894FF6F8731A40B9
:10426000028102890A430281704702894FF67F73F7
:104270001A40028102890A43028170478184704793
:1042800081857047818670470187704781877047B5
:10429000A0F84010704702884FF6FF431A40028092
:1042A00002880A43028070470146888E70470146A3
:1042B000088F70470146888F70470146B1F840006B
:1042C00070470146888C70470146088D704702464A
:1042D0000020138A0B4201D0012000E0002070472B
:1042E000CA430282704730B50246002000230024F2
:1042F000158A05EA0103958905EA010413B10CB199
:10430000012000E0002030BDCA4302827047000057
:1043100010B50446FB48844209D101218803FFF708
:10432000FDF800214FF48040FFF7F8F832E0F6483E
:10433000844209D101214804FFF7FDF800214FF420
:104340000030FFF7F8F825E0F048844209D1012158
:104350008804FFF7F0F800214FF48020FFF7EBF816
:1043600018E0EB48844209D10121C804FFF7E3F8C3
:1043700000214FF40020FFF7DEF80BE0E54884420F
:1043800008D101210805FFF7D6F800214FF480106D
:10439000FFF7D1F810BD2DE9F04786B004460D4671
:1043A0000026002700BFB146B246A88900B100BF71
:1043B000A246268A4CF6FF700640E888064326820D
:1043C000A6894EF6F3100640A88829890843698912
:1043D00008430643A681A68A4FF6FF400640A889F7
:1043E0000643A68201A8FFF711F85446C548824546
:1043F00001D1049F00E0039FA08910F4004F08D072
:1044000007EBC70000EB071029684900B0FBF1F883
:1044100007E007EBC70000EB071029688900B0FB35
:10442000F1F86420B8FBF0F006013009642101FBCB
:104430001089A08910F4004F09D0322101EBC90086
:104440006421B0FBF1F000F00700064308E03221E0
:1044500001EB09106421B0FBF1F000F00F000643FE
:10446000268106B0BDE8F0874FF4165101600021A7
:104470008180C18001810C214181002181817047AF
:1044800010B50022028A4FF2FF031A400B884C88B5
:1044900023438C882343CC8823431A43028210BDD4
:1044A0000021018041808180C180704721B18289D3
:1044B00042F40052828104E082894DF6FF731A4073
:1044C00082817047F0B50024002500260023A1F565
:1044D00010676A3F00D100BF0346C1F3421401F0E8
:1044E0001F05012707FA05F6012C01D10C3304E062
:1044F000022C01D1103300E014331AB11F68374386
:104500001F6002E01F68B7431F60F0BD10B51AB10D
:10451000838A0B43838204E0838ACC43A4B2234082
:10452000838210BD028A4FF6F0731A400282028A1B
:104530000A430282704782894FF2FF731A408281D8
:1045400082890A438281704721B1828942F0020246
:10455000828104E082894FF6FD731A4082817047A0
:10456000028A4FF6DF731A400282028A0A430282ED
:10457000704721B1028A42F48042028204E0028A3A
:104580004BF6FF731A4002827047C1F30802828023
:10459000704701468888C0F308007047818941F060
:1045A000010181817047028BD2B20283028B42EA01
:1045B000012202837047028B02F47F420283028B46
:1045C0000A430283704721B1828A42F0200282822C
:1045D00004E0828A4FF6DF731A408282704721B16D
:1045E000828A42F01002828204E0828A4FF6EF73E0
:1045F0001A408282704721B1828A42F00802828288
:1046000004E0828A4FF6F7731A408282704721B124
:10461000828942F40042828103E08289C2F30E0261
:104620008281704721B1828A42F40062828204E072
:10463000828A4FF2FF731A4082827047828A4FF655
:10464000FB731A408282828A0A438282704721B1B8
:10465000828A42F00202828204E0828A4FF6FD736F
:104660001A408282704702460020B1F5007F00D1D7
:1046700000BF13880B4201D0012000E000207047EA
:1046800001F40072B2F5007F00D100BFCA4302807E
:10469000704770B502460023002400250020A1F5D4
:1046A00010666A3E00D100BFC1F3421501F01F043D
:1046B000012606FA04F4012D02D19689344006E061
:1046C000022D02D1168A344001E0968A34400B1242
:1046D000012606FA03F31688334014B10BB101200A
:1046E00000E0002070BD10B500220023A1F5106489
:1046F0006A3C00D100BF0A1201249440A3B2DC43FB
:10470000048010BD003801400044004000480040D3
:10471000004C00400050004010B501210807FEF792
:104720000AFF00214FF08050FEF705FF10BD2C4915
:10473000086270472A49086170470021294A1168B8
:1047400021F0E0010143116070472549A031086064
:10475000704710B50022234B1A6822F0030202436F
:104760001A60214B1B6843F004034FF0E024C4F8A7
:10477000103D012901D130BF00E020BF1A4B1B685A
:1047800023F004034FF0E024C4F8103D10BD154899
:10479000006840F00400134908600846006840F0D3
:1047A000020008601048006840F004004FF0E0216B
:1047B000C1F8100D00BF00BF30BF70470146002098
:1047C000084A52680A4201D0012000E000207047E8
:1047D0000449096841EA8001024A116070470000FB
:1047E00000000E420070004010ED00E0002048493B
:1047F00008604849C1F80404454908310860091DAA
:10480000086045484249143108607047002140491A
:104810008279002A40D03F4AD2F8002403689A43A4
:104820003C4BC3F800241A46D2F8042403689A4388
:104830000B1D1A60027911440A6803681A430A6062
:10484000344AD2F8082403689A43324BC3F8082448
:104850001A46D2F80C2403689A432D4B0C331A6085
:104860004279102A10D12B4AD2F8082403681A433F
:10487000284BC3F808241A46D2F80C2403681A43BC
:10488000244BC3F80C240DE02149427911440A68F5
:1048900003681A430A6005E0027911440A68036854
:1048A0009A430A6070470021016001710C21417137
:1048B0000021817170471649103109680143154A7A
:1048C000C2F81014704701460020114A14321268D1
:1048D0000A4201D0012000E0002070470C49143149
:1048E00008607047014600200022094B1B6803EA5C
:1048F0000102084BD3F814340B4202D00AB1012054
:1049000000E0002070470249143108607047000041
:104910000004014000000140FFFF0F000021FF4A9A
:10492000116801F03801014311607047FB490968C3
:1049300021F00801F94A116011460968014311602C
:104940007047F649096821F01001F44A11601146D8
:104950000968014311607047F148F0494860F14827
:1049600048607047EE48ED494860EE48486070473F
:10497000EA48006940F08000E84908617047E7486C
:10498000006940F08000E549086170470420E34970
:10499000C96801F00101012901D101200EE0DF49C0
:1049A000C96811F0040F01D0022007E0DB49C96893
:1049B00011F0100F01D0032000E00420704700B573
:1049C00002460423FFF7E2FF034603E0FFF7DEFFA2
:1049D0000346521E012B01D1002AF7D102B905234B
:1049E000184600BD30B5044604254FF43020FFF7CB
:1049F000E6FF0546042D17D1C848006940F00200C3
:104A0000C649086108464461006940F040000861F9
:104A10004FF43020FFF7D3FF0546C048006941F648
:104A2000FD710840BD490861284630BD10B5042419
:104A30004FF43020FFF7C3FF0446042C16D1B748CB
:104A4000006940F00400B54908610846006940F07B
:104A5000400008614FF43020FFF7B1FF0446AF4833
:104A6000006941F6FB710840AC490861204610BD61
:104A700000B502460423FFF789FF034603E0FFF772
:104A800085FF0346521E012B01D1002AF7D102B93E
:104A90000523184600BD10B504244FF43020FFF75D
:104AA000E7FF0446042C16D19C48006940F004003E
:104AB0009A4908610846006940F0400008614FF4D7
:104AC0003020FFF7D5FF04469448006941F6FB719A
:104AD000084092490861204610BD00208F49C969ED
:104AE00011F0020F01D0012000E00020704730B526
:104AF000A5240425FFF7F1FF00B100244FF4302076
:104B0000FFF75DFF0546042D3AD18548834988604B
:104B1000844888600846006940F020000861084623
:104B2000006940F0400008614FF43020FFF747FF74
:104B30000546042D1BD17948006941F6DF71084014
:104B4000764908610846006940F01000086176481F
:104B50000480E802FFF733FF0546052D10D06F48AB
:104B6000006941F6EF7108406C49086108E0052DC5
:104B700006D06A48006941F6EF710840674908614C
:104B8000284630BDF0B504460D4604260027F00245
:104B9000FFF715FF0646042E22D16048006940F059
:104BA00001005E4908612580F002FFF708FF064614
:104BB000042E0ED1A71C280C3880F002FFF7FFFE50
:104BC00006465648006941F6FE710840534908619F
:104BD00006E05248006941F6FE7108404F490861FD
:104BE0003046F0BD70B504460D460426F002FFF7CE
:104BF000E6FE0646042E11D14848006940F0010047
:104C0000464908612580F002FFF7D9FE0646434871
:104C1000006941F6FE71084040490861304670BDA8
:104C200070B504460D460426F002FFF7C8FE06469E
:104C3000042E17D13A48394988603A4888600846B6
:104C4000006940F0100008612580F002FFF7B7FE10
:104C50000646052E06D03148006941F6EF7108403E
:104C60002E490861304670BD2DE9F04304464FF6E9
:104C7000FF752E462F46A8464FF00409E443E5B2DF
:104C8000C4F30726C4F307474FEA14684FF40050F3
:104C9000FFF795FE8146B9F1040F50D120481F4916
:104CA0008860204888600846006940F0100008616C
:104CB000FF2D07D01C48083005804FF40050FFF747
:104CC0007EFE8146B9F1040F09D1FF2E07D01648A8
:104CD0000A3006804FF40050FFF771FE8146B9F1AB
:104CE000040F09D1FF2F07D00F480C3007804FF475
:104CF0000050FFF764FE8146B9F1040F0AD1B8F104
:104D0000FF0F07D00948A0F80E884FF40050FFF7B6
:104D100056FE8146B9F1050F11D009E0002002408E
:104D200023016745AB89EFCD00F8FF1F00F0FF1F9F
:104D30006948006941F6EF710840674908614846D3
:104D4000BDE8F08330B5044604254FF43020FFF76A
:104D500036FE0546042D41D160485F4988606048B1
:104D600088600846006940F0200008610846006934
:104D700040F0400008614FF43020FFF720FE054668
:104D8000042D22D15448006941F6DF710840524990
:104D900008610846006940F0100008611CB100205D
:104DA0005049088002E0A5204E4908804FF4302089
:104DB000FFF705FE0546052D10D04748006941F66E
:104DC000EF7108404449086108E0052D06D04248CB
:104DD000006941F6DF7108403F490861284630BD4F
:104DE000F0B504460D46164604273C483A4988600B
:104DF0003B488860F802FFF7E2FD0746042F19D10F
:104E00003548006940F010003349086146F0F80069
:104E1000284320433349891C0880F802FFF7CFFD5F
:104E20000746052F06D02C48006941F6EF7108406F
:104E3000294908613846F0BD2748C0698008704795
:104E40002548006A704700202349096811F0200FA7
:104E500001D0012000E00020704729B11E4A1269EC
:104E600002431D4B1A6104E01B4A126982431A4B2C
:104E70001A61704701460020012908D1164AD269FB
:104E800012F0010F01D0012008E0002006E0124AD4
:104E9000D2680A4201D0012000E0002070470E498C
:104EA000C860704704200C49C96801F0010101295C
:104EB00001D101200EE00849C96811F0040F01D0AA
:104EC000022007E00449C96811F0100F01D0032047
:104ED00000E00420704700000020024023016745E5
:104EE000AB89EFCD00F8FF1F704700000FB4054AF3
:104EF000054910B503AB7944029800F050FB10BC93
:104F00005DF814FB8C00002021DCFFFF2DE9F0414F
:104F100004460E4600202BE0E1682046884748B34F
:104F2000252802D0D4E901211FE0E16820460027AE
:104F3000884705001ED0A5F14100192802D8203568
:104F40004FF400673246294620462760FBF72AF9CE
:104F500040B1012801D1361DDEE7F61D26F0070617
:104F60000836D9E7D4E9012128469047206A401C39
:104F70002062D1E7206ABDE8F08100002DE9F04110
:104F80008046002610687529414614A511D0AFF35C
:104F90000080002802DA404211A508E0D8F800108D
:104FA0008A0701D50FA502E0490704D50EA5012601
:104FB00001E0AFF30080002408F1240704E000F0D2
:104FC00001FB30313955641C0028F8D133462A469C
:104FD00021464046BDE8F04100F061B80000000005
:104FE0002D0000002B0000002000000070B50446DA
:104FF0000D4621461068AFF300802168090502D5EF
:10500000104A7A4402E00F4A7A440E32002104F139
:10501000240306E000F00F064FEA1010965D5E5480
:10502000491C0028F6D120680023000704D5702D04
:1050300002D009B1113202232046BDE8704000F0D1
:105040002EB80000CF1E00004FF0000200B513463E
:1050500094469646203922BFA0E80C50A0E80C5098
:10506000B1F12001BFF4F7AF090728BFA0E80C5049
:1050700048BF0CC05DF804EB890028BF40F8042B42
:1050800008BF704748BF20F8022B11F0804F18BFAF
:1050900000F8012B704770477047704770472DE943
:1050A000F0470D4604469246994600F124080168EF
:1050B000880604D5E06921F01001216000E001209C
:1050C0000027A84200DD471BA1697A1902EB0900FD
:1050D000081AA0612068C00602D42046AFF3008001
:1050E000002608E0D4E901211AF806009047206A5A
:1050F000401C761C20624E45F4DB2068C0060AD5B1
:105100002046AFF3008006E0D4E90121302090472B
:10511000206A401C2062381EA7F10107F4DC07E07A
:10512000D4E9012118F805009047206A401C20624C
:10513000281EA5F10105F3DC2046AFF300802168AD
:105140000220090600D40120BDE8F08770472DE950
:10515000FF4F0C4698468DB0D2E90010DDF868A0EC
:10516000CDE90810C0F30A550DB94FF0FF35002105
:1051700008464FF00000099900F44000002905DAC4
:1051800000EB80004FF4400101EA50004FEA905BD1
:10519000BBF1010F01DD4FF0FF3BDDE9080150EAF3
:1051A000410016D1BAF1010F02D16FEA080207E0FF
:1051B000302101E02154401C4045FBDB40460022E9
:1051C000002121540D99C1E9010A0A6011B0BDE81E
:1051D000F08FA5F2FF3544F610504543CBF10000A7
:1051E0000B904FEA2549BAF1000F03D1A9EB08054E
:1051F0006D1C01E0C8F100050B9A002D00DC5A4639
:10520000294601DAC5F1000103A800F06DFADDE9D5
:10521000081000F041FBA0F500501F388DE8070092
:105220000398002D09DD42F21F015A46084403A9E4
:105230000390684600F0A1FD08E0A0F500505A4632
:105240001F3803A90390684600F0ABFD8DE8070006
:105250000004000C03D04FF0FF356E0801E00E464D
:105260001546BAF1000F25D1474607E031462846DA
:1052700000F0B6F9303205460E46E2557F1EF5D5F0
:105280000023012786EA030185EA03000843CDF8DD
:105290001C8003D0002709F1010005E020783028A8
:1052A00003D10027A9F101008146002FCDF8189005
:1052B00099D034E000200A9007460AE0112F0FDA57
:1052C0003146284600F08CF9303205460E46E2554C
:1052D0007F1C002386EA030185EA03000843EDD121
:1052E000002386EA030185EA0300084310D138460B
:1052F000002104E0235C625C6354491C2254401E7C
:105300008142F7DBA7EB0800401ECDE9060706E067
:105310000A9820B94FF011084FF0000A63E7079A86
:105320000020A0540D98C0F808A007994160069984
:1053300001604BE72DE9F04F04468846D21D22F06C
:10534000070091B0D0E90010CDE9021001460298A3
:1053500000F05DFE0399CA0F4FF02D0106D12268BF
:105360002B21930702D4202101EAC20103288B4696
:1053700001D0072806DB5B4602464146204600F086
:1053800075F905E12068800601D5E76900E0062788
:105390001120B8F1650F1ED0B8F1660F29D0B8F111
:1053A000670F62D1012F00DA01270023112F00932C
:1053B00000DC3846034602AA06A90EA8FFF7C7FE7E
:1053C00020683D460026000734D40F98A84200DA32
:1053D000054606A827E00023112F009300DA781C69
:1053E000034602AA06A90EA8FFF7B1FE00267D1CFF
:1053F00026E001234FF0004902AA06A90EA8009357
:105400003B46FFF7A4FEDDE90F50002610B90E99C8
:10541000781C0D18781B02D47D1CC0F1FF36A5EB5B
:10542000070A22E06D1E012D04DD411911F8011C4F
:105430003029F7D00E98B84202DA10F1040F03DADF
:105440004FF0010A0E980FE0002802DC2D1A0644E6
:1054500004E0401CA84201DD0E9D6D1C0E98801BCF
:1054600000F1010A4FF0004081462068000703D494
:10547000AA4501DB4FF0FF3A0020B9F1004F0DF1D2
:1054800017078DF8170024D04FF002082B20B9F130
:10549000000F01900BDA2D20C9F10009019006E000
:1054A000484600F08FF83031814607F8011DB8F109
:1054B0000000A8F10108F3DCB9F1000FF0D1019868
:1054C00007F8010D21684520090500D4652007F87B
:1054D000010D04A8C01B00F107085FEA0B0000D013
:1054E0000120411901EBEA7101EB0800A169081ADA
:1054F000401EA0612068C00602D42046AFF30080A1
:10550000BBF1000F06D05846D4E901219047206A2C
:10551000401C20622068C00625D52046AFF30080DD
:1055200021E0002E07DB0F98B04204DD06A8D4E985
:105530000121805D02E0D4E9012130209047206AFA
:10554000401C2062761CAAF101005FEA000A0AD121
:1055500000F040F8C0680168405CD4E90121904740
:10556000206A401C2062281EA5F10105D9DC07E055
:10557000D4E9012117F8010B9047206A401C2062F2
:10558000B8F10000A8F10108F2DC2046AFF300807A
:1055900002201BE601694A1C02610878704710B5B9
:1055A0000C46194690B0CDE9024200220692044A08
:1055B0007A44CDE9042001A8FFF7A8FC10B010BD83
:1055C000E1FFFFFF4FF00A01B0FBF1F202FB110116
:1055D0001046704701487047704700000C120020C9
:1055E00030B5B0F10A024FEA900E71F100034EEAB5
:1055F000817EB0EB0E0061EB91014FEA101E4EEA86
:10560000017E10EB0E0041EB11114FEA102E4EEA15
:10561000016E10EB0E0041EB11214FEA104E4EEAE5
:10562000014E10EB0E0041EB1141401841F1000119
:105630004FEAD00040EA41704FEAD10110EB8005FB
:105640004FEA810444EA907444EB01046D1944EB81
:105650000404521BA3414FF0000348BF0A3200D597
:1056600030BD401C41F1000130BD00002DE9F0418A
:1056700004461F4603260168072A01F4006003DB85
:1056800015A520B915A502E015A500B915A521F0AD
:1056900010002060A069C01EA0610FB1401EA06173
:1056A0002046AFF300800FB9206A06E0D4E901215B
:1056B00038469047206A401C2062C01C206204E0EB
:1056C000D4E9012115F8010B9047761EF8D2204647
:1056D000AFF30080BDE8F0814E414E006E616E0078
:1056E000494E4600696E66002DE9F047174681462F
:1056F0008AB0304A7A4407A838CA01F5DC511B3118
:1057000038C038CA04A8372238C091FBF2F0A0F1A3
:10571000800502FB10141B3C02D56442012000E00E
:105720000020DFF890A080460026FA44AAF1B20AD1
:105730000DE0E00709D03A4606EB46000AEB80018F
:1057400007A800F02EFB07AB07C36410761C002CE3
:10575000EFD1DFF860A001AEFA44AAF1A40A16E086
:10576000E80712D00AEB041090E80E0086E80E005D
:10577000C068F84202D10398384403903A4601A920
:1057800004A800F00EFB04AB07C36D10641C002DD1
:10579000E6D13A46B8F1000F07A904A802D000F0FC
:1057A000ECFA01E000F0FDFAA9E807000AB0BDE854
:1057B000F08700008418000000487047EC110020BA
:1057C0007546FFF7F9FFAE4605006946534620F0DF
:1057D0000700854618B020B5FDF7FAFABDE820406D
:1057E0004FF000064FF000074FF000084FF0000B9D
:1057F00021F00701AC46ACE8C009ACE8C009ACE850
:10580000C009ACE8C0098D4670470446AFF300807C
:105810002046FAF7E9FC00004FF0013C50F8042B59
:1058200051F8043B9A4221D1A2EB0C03934313EAB3
:10583000CC1317D150F8042B51F8043B9A4215D1E0
:10584000A2EB0C03934313EACC130BD150F8042BB7
:1058500051F8043B9A4209D1A2EB0C03934313EA9B
:10586000CC13DBD04FF0000070470000D01A01BA13
:10587000B1FA81F101F0180122FA01F0CB40C1F137
:105880002001DBB2C0B2C01A2CFA01F3D11A914345
:1058900011EAC311E6D170475FEA400C08BF91F0EE
:1058A000000F4FEA8C234FEAC12243EA51514FEADD
:1058B0001C5018BF00F5F0404FEA300018BF41F00F
:1058C00000415FEA6C5C00F02980BCF1FF3F08BF3B
:1058D00040F080407047130C06BF12044FF0100CCC
:1058E0004FF0000C130E04BF12020CF1080C130F42
:1058F00004BF12010CF1040C930F04BF92000CF1D1
:10590000020CD30F04BF52000CF1010C11464FF0F2
:105910000002A0F11F00A0EB0C00704711F0004F37
:1059200008BF704731F000413FF4D5AF0B0C06BF04
:1059300009044FF0100C4FF0000C0B0E04BF0902CD
:105940000CF1080C0B0F04BF09010CF1040C8B0FB8
:1059500004BF89000CF1020CCB0F04BF49000CF10D
:10596000010CCCF12003A0EB0C0022FA03F302FAA5
:105970000CF241EA030100F10100704720F07F4C76
:1059800080EA030023F07F47ACEB070303F57C5369
:1059900000F0004003F1FF032DE980494FEA154B69
:1059A00009B44FEA144325EA0B4E24EA03480FF2E8
:1059B000042606EB132749083E785FEA320203FB10
:1059C0000667C7F5000707FB06F64FEA54374FEAAC
:1059D000D64606F1020607FB066CCCF1005C4FEAE6
:1059E0001C472CEA074C07FB06F40CFB06F504EBFE
:1059F00015464FEA961634BF00204FF000404FEA9C
:105A0000D13706FB07FC4FEA1C4C0CFB0BF7D21BF3
:105A100003FB0CF761EB07010CFB0EF7B0EB074043
:105A200072EB17420CFB08F734BFA2EB0742B2EB54
:105A3000074261EB17414FEA0C444FEA910706FB1E
:105A400007FC4FEA1C4C0CFB0BF7B0EBC74072EBAA
:105A5000573203FB0CF734BFA2EBC742B2EBC7428D
:105A600061EB57310CFB0EF7B0EBC70072EB5772CE
:105A70000CFB08F734BFA2EBC702B2EBC70261EB25
:105A80005771039F4FEA816141EA921104EBCC0404
:105A90004FEAD1374FEA826206FB07FC42EA9012D6
:105AA0004FEA80604FEA1C4C0CFB0BF7D21B03FB48
:105AB0000CF761EB07010CFB0EF7B0EB074072EB44
:105AC00017420CFB08F734BFA2EB0742B2EB0742C8
:105AD00061EB17414FEA8C554FEA910704EB9C2488
