:020000040800F2
:10000000B0090020D50F0008F5030008F703000829
:10001000FB030008FF0300080304000800000000C1
:1000200000000000000000000000000007040008BD
:1000300009040008000000000B0400080D0400087B
:10004000EF0F0008EF0F0008EF0F0008EF0F000898
:10005000EF0F0008EF0F0008EF0F0008EF0F000888
:10006000EF0F0008EF0F0008EF0F0008EF0F000878
:10007000EF0F0008EF0F0008EF0F0008EF0F000868
:10008000EF0F0008EF0F0008EF0F0008EF0F000858
:10009000EF0F0008EF0F0008EF0F0008EF0F000848
:1000A000EF0F0008EF0F0008EF0F0008EF0F000838
:1000B000EF0F00088F060008EF0F0008EF0F000891
:1000C000EF0F0008EF0F0008EF0F0008EF0F000818
:1000D000EF0F0008470F0008EF0F0008EF0F0008B0
:1000E000EF0F0008EF0F0008EF0F0008EF0F0008F8
:1000F000EF0F0008EF0F0008EF0F0008EF0F0008E8
:10010000EF0F0008EF0F0008DF070008EF0F0008EF
:10011000EF0F0008EF0F0008EF0F0008EF0F0008C7
:10012000EF0F0008EF0F0008EF0F0008EF0F0008B7
:1001300000F002F800F04CF80AA090E8000C8244AD
:100140008344AAF10107DA4501D100F041F8AFF28A
:10015000090EBAE80F0013F0010F18BFFB1A43F0A5
:1001600001031847F840000018410000103A24BF6E
:1001700078C878C1FAD8520724BF30C830C144BF0C
:1001800004680C607047000000230024002500264E
:10019000103A28BF78C1FBD8520728BF30C148BFEA
:1001A0000B607047662903F0C287642902F00E8451
:1001B000002070471FB5AFF3008002F0DFFE04009F
:1001C0000020002103F00CFCE0601FBD10B510BD45
:1001D00002F0CAFF1146FFF7EDFF00F007F802F04A
:1001E000E8FFFFF7F3FF00F051FE00002DE9FF41AB
:1001F0000024002500BF002600F0E2FD00F040FED4
:100200004FF47A3000F050FE00F0E6F947214FF647
:10021000FF7000F096FAA2E05148008810F0800FBD
:10022000F9D04F48008810F0080FF4D0002408E0FF
:100230004C4830F8142021464BA002F07FFB601C94
:1002400084B2042CF4DB002408E04A4830F814207F
:10025000214649A002F072FB601C84B2042CF4DB3E
:10026000404909883F4A528811443E4A92881144C5
:100270003C4AD28811443F4A128811443D4A528870
:1002800011443C4A928811443A4AD288881803F0B3
:100290002DFE07464FF0824103F00AFD0646304628
:1002A00003F052FCCDE902012D48038800930B4670
:1002B00035A0029A02F042FB304603F0EBFDC5B2D6
:1002C000284603F02CFE8046314603F051FE0746D7
:1002D00003F03AFCCDE9020133A00CC8029803F008
:1002E000EFFB01D8681CC5B2314890F900202946BF
:1002F00030A002F023FB00263448018834A002F02D
:100300001DFB002406E03748015D37A002F016FB14
:10031000601C84B20B2CF6DB15A002F00FFB00244E
:1003200006E03248015D30A002F008FB601C84B298
:10033000264800888442F4DB0DA002F0FFFA00207A
:1003400007490880214908801949087000220221C4
:10035000274801F05BFE0121254801F032FE5BE7F2
:10036000140000202A000020256420555020256418
:100370000D0A000032000020256420646F776E2093
:1003800025640D0A0000000073616D706C652072B9
:100390006174653A25662C2564206269742053597E
:1003A0004E43210D0A000000000000000000E03F65
:1003B00023000020726174653A25643B6261726BB0
:1003C00065725F73756D3A25640D0A001600002092
:1003D0006672616D655F696E6465783A2564200DAB
:1003E0000A0000007802002025640000660000205A
:1003F000000C0040704700BFFEE700BFFEE700BFF3
:10040000FEE700BFFEE77047704770477047000087
:1004100000200021674A126842F48032654B1A605E
:1004200000BF644A126802F40031401C11B9B0F5F3
:10043000A06FF6D15F4A126812F4003F01D001218B
:1004400000E00021012942D15B4A126842F010020B
:10045000594B1A601A46126822F003021A601A46B3
:10046000126842F002021A60524A5268514B5A60B6
:100470001A4652685A601A46526842F480625A60BC
:100480001A46526822F47C125A601A46526842F4A4
:10049000E8125A601A46126842F080721A6000BF71
:1004A000444A126812F0007FFAD0424A526822F0A1
:1004B0000302404B5A601A46526842F002025A60E8
:1004C00000BF3C4A526802F00C02082AF9D170477A
:1004D00010B5FFF79DFF10BD10B53648006840F01D
:1004E00001003449086008464068344908403149F1
:1004F000486008460068324908402E4908600846AE
:10050000006820F4802008600846406820F4FE005F
:1005100048604FF41F008860FFF7DAFF4FF000607B
:100520002849086010BD10B5002000210022214B91
:100530005B6803F00C0020B1042806D0082828D1FD
:1005400007E0214B214C236027E01F4B1F4C236009
:1005500023E0184B5B6803F47011164B5B6803F4DF
:100560008032022303EB914122B9194B4B43174CC4
:1005700023600DE00F4B5B6813F4003F04D0144B75
:100580004B43124C236003E00F4B4B430F4C236053
:1005900003E00D4B0D4C236000BF00BF054B5B68B3
:1005A000C3F303130B4CE05C084B1B68C340074CC0
:1005B000236010BD00100240002002400000FFF840
:1005C000FFFFF6FE08ED00E000127A0000000020B8
:1005D00000093D000400002008B50121482001F079
:1005E00093F8E020ADF8000010208DF80300032000
:1005F0008DF8020069460D4800F0DCFD20210B4813
:1006000000F082FE4021094800F07EFE802107486C
:1006100000F07AFE2020ADF800006946044800F0A2
:10062000C9FD2021024800F06DFE08BD000C01400C
:10063000001801407FB504460D460121022001F05B
:1006400070F8ADF80840ADF804500020ADF80A008D
:10065000ADF8060001A9FF4801F08CF90122412103
:10066000FC4801F0D3FC1D208DF8000000208DF81F
:10067000010003208DF8020001208DF80300684678
:1006800000F0CDFC0121F34801F09BFC7FBD10B5CB
:100690000121F04801F037FF58B10121ED4801F088
:1006A00043FFED48006808B9012000E00020EA4956
:1006B000086010BD30B589B004460D460121022006
:1006C00001F02FF80121092001F01EF80121E34873
:1006D00000F03BFE2020ADF8200018208DF823000C
:1006E00003208DF8220008A9DD4800F063FDADF875
:1006F0001840ADF814500020ADF81A00ADF81600FF
:1007000005A9D44801F036F97020ADF804000120A5
:10071000ADF806000020ADF80A00ADF80C0001A904
:10072000CC4801F0A6F90821CA4801F080FD01215A
:10073000C84801F044FD0121C64801F042FC09B05F
:1007400030BD30B585B004460D460121082000F0CB
:10075000E8FF01210C2000F0D7FF0120ADF81000C8
:1007600028208DF8130004A9BE4800F023FD0121C4
:10077000BC4800F0C9FDADF80840ADF804500020B9
:10078000ADF80A00ADF8060001A9B74801F0F2F88B
:100790000020B64908804880012088800020C88059
:1007A00011200881B04801F04EFB32208DF8000086
:1007B00002208DF8010000208DF8020001208DF844
:1007C0000300684600F02BFC01220321A64801F03B
:1007D0001DFC0121A44801F0F4FB05B030BD10B5AB
:1007E000A348008810F0800F7ED101219E4801F0BF
:1007F0008AFE78B100209E4908809E490880002129
:10080000994801F076FD00209B490870491C08704A
:100810009A4908809648008840B9012202219248EE
:1008200001F0F4FB0021904801F063FD02218E48A5
:1008300001F069FE002857D08D48008810F0400F65
:100840007ED0894801F040FE8A4908800846008829
:1008500028281DDD084600883C2819DA84480088CD
:1008600000F00700042812DA81480088401C804903
:10087000088080480088001D81B281487E4A127835
:1008800020F812107C480078401C7B490870B0E0CA
:1008900078480088502833DD7648008878282FDA99
:1008A0007348008800F007000428F0DA70480088D8
:1008B000401C6F4908806F49088800EBD0714910CF
:1008C000091D6F4A6C4B1B7822F813106A48007898
:1008D000401C694908706B49088800EBD0714910C9
:1008E000694A654B5B1C00E0ABE11B7822F81310F2
:1008F0006148401C0078401C5F49491C087078E042
:100900005C480088782843DD5A480088B4283FDADC
:100910005748008800F0070004286ADA5448008825
:10092000801C5349088053480088032190FBF1F054
:10093000001D5349504A127821F812004E4800E039
:1009400077E00078401C4C4908704E48008803212D
:1009500090FBF1F04C49484A521C127821F81200E1
:100960004548401C0078401C4349491C08704148D8
:100970000088032190FBF1F0001D41493E4A1278A6
:1009800021F812003C480078401C3B49087030E0D8
:1009900038480088A02823DD36480088F0281FDA70
:1009A0003348008800F00700042822DA3048008825
:1009B00000F0070002281CDB32490888C11700EB51
:1009C00091718910304A2C4B5B1C1B7822F8131054
:1009D0002948401C0078401C2749491C087008E041
:1009E0000020234908802349088023490870491CB6
:1009F00008702148401C0078042803DB00201E49B1
:100A0000491C08701C480078042802DB00201A49A1
:100A100008701748008800F0BF0015490880084694
:100A2000008840F02000088000210F4801F061FCA0
:100A300007E10D4801F048FD0E490988401A1149A7
:100A4000088008460088282832DD084600883C28AF
:100A50002EDA1BE0000400409401234200081A0033
:100A6000000C014000080140000C00405C00002028
:100A70001400002026000020240000201600002082
:100A80002A0000202800002032000020BE480088F4
:100A900010F0200F0BD008460188BC48BC4A1278E1
:100AA00020F81210BA480078401CB94908707FE05D
:100AB000B848008850282FDDB648008878282BDAFF
:100AC000B148008810F0200F72D0AF480088401C59
:100AD000AD490880B049088800EBD0714910AF4A91
:100AE000AB4B5B1E1B7822F81310A948401E007800
:100AF000401CA749491E0870A649088800EBD07120
:100B00004910A24AA24B1B7822F81310A048007883
:100B1000401C9F4908704BE09E480088782840DDC3
:100B20009C480088B4283CDA9748008810F0200FD1
:100B30003ED095480088401C93490880964800881C
:100B4000032190FBF1F09549914A521E127821F849
:100B500012008F48401E0078401C8D49491E0870C5
:100B60008C480088032190FBF1F081B28748884AC5
:100B7000127820F8121086480078401C84490870CA
:100B800084480088032190FBF1F081B27F48804ABD
:100B9000127820F812107E480078401C7C490870BA
:100BA00006E000207849088079490870491E0870DD
:100BB0007548008800F00700032817DD7248008898
:100BC00040F080007049088000220221744801F042
:100BD0001DFA0F2000F009F9312071492C310880ED
:100BE0000121704800F074FB6F49887268480078F2
:100BF000042802DB0020664908706548401E007822
:100C0000042803DB00206249491E08700020624965
:100C100008800021624801F041FC5B48008840F0F8
:100C20004000594908800846008810F0800F04D021
:100C300000215B4801F05DFB03E00221584801F010
:100C400058FB5148008810F0800F4ED04E48008865
:100C500010F0100F49D10121514801F054FC002837
:100C60003ED001214F4800F033FB4F49C8724F4836
:100C7000006808B9012000E000204C490860002409
:100C800005E04949601C085C0855601CC4B20B2C87
:100C9000F7DB002414E04448005D4549095D8842C3
:100CA00006D144480078401C40B24249087005E033
:100CB00040480078401E40B23E490870601CC4B2F3
:100CC0000B2CE8DB3B4890F900000A2809DB2E4892
:100CD000008840F010002C49088000203649088028
:100CE0004DE000203349087049E02748008810F0A3
:100CF000800F44D02448008810F0100F3FD02248C5
:100D0000008810F0080F3AD10121254801F0FBFBC3
:100D1000002834D02848008840F21221884215DA91
:100D20000121204800F0D4FA2449234A128888542B
:100D30001E48006808B9012000E000201B49086037
:100D40001D480088401C1C49088018E000201749F5
:100D500008600D48008840F008000B49088000201A
:100D60000B49491E0870491C08704FF6FF704FF080
:100D70008041A1F82C0C0021094801F022F903213F
:100D8000074801F0D1FB10BD140000203200002004
:100D90002500002028000020260000202A00002036
:100DA000000C004000080140780200209881214298
:100DB00018000020230000201600002066000020FC
:100DC00010B56FF0040000F077F92A4800682A494E
:100DD000B0FBF1F029490870084600784FF47A71A9
:100DE00048432649891C088010BD244A1278424392
:100DF0004FF0E0235A6100229A611A46126942F0CC
:100E000001021A6100BF4FF0E022116911F0010FD9
:100E100002D011F4803FF6D04FF0E022126922F0A8
:100E200001024FF0E0231A6100229A617047134AD1
:100E3000921C128842434FF0E0235A6100229A61CB
:100E40001A46126942F001021A6100BF4FF0E02217
:100E5000116911F0010F02D011F4803FF6D04FF06C
:100E6000E022126922F001024FF0E0231A61002211
:100E70009A6170470000002000127A003A000020BA
:100E800010B54FF4A06000F0C5F810BD014600BFDA
:100E9000704700BF4B4A128812F0400FFAD0C2B21E
:100EA000484B1B1D1A80704710B586B004460121BF
:100EB00044F2040000F028FC424801F039FB4FF4F2
:100EC0000070ADF8140003208DF8160018208DF87E
:100ED000170005A93C4800F06DF94FF48060ADF8AB
:100EE000140004208DF8170005A9374800F062F9B6
:100EF00025208DF8000003208DF801008DF80200F8
:100F000001208DF80300684600F089F80194002064
:100F1000ADF80800ADF80A00ADF80C00ADF810000F
:100F20000C20ADF80E0001A9264801F044FB012277
:100F300040F22551234801F0D5FB0121214801F061
:100F4000C5FB06B010BD10B540F225511D4801F09B
:100F5000B0FC002834D01B4801F02BFCC4B21B4865
:100F6000008810F4004F2BD11848008810F4804FEF
:100F70000CD00A2C03D000201449088020E013482C
:100F8000008840F400401149088019E00D2C06D17A
:100F90000E48008840F480400C49088010E00B485F
:100FA0000088C0F30D000A490C5408480088401C12
:100FB0000649088008460088C72801DD002008800F
:100FC00010BD000000380140000801404000002032
:100FD000840200200948804709480047FEE7FEE7F1
:100FE000FEE7FEE7FEE7FEE7FEE7FEE7FEE7FEE7D9
:100FF00004480549054A064B70470000D90400081B
:1010000031010008B0030020B0090020B005002025
:10101000B005002032490143324A1160704770B573
:10102000002100230F22C4780CB32E4C246804F452
:10103000E064C4F5E064210AC1F10403CA404478C5
:1010400004FA03F18478144021430901264C067800
:10105000A155047804F01F050124AC4005786D11FA
:101060004FF0E02606EB8505C5F8004109E004785D
:1010700004F01F040125A5401C4C0678761144F8A5
:10108000265070BD1A4A0A400243164B1B1F1A60B5
:10109000704741B1134A121D126802434FF0E0231A
:1010A000C3F8102D07E00F4A121D126882434FF05B
:1010B000E023C3F8102D7047042808D14FF0E02139
:1010C000096941F004014FF0E022116107E04FF09F
:1010D000E021096921F004014FF0E022116170471D
:1010E0000000FA050CED00E000E400E080E100E023
:1010F00080FFFF1F10B50446C748844208D1012174
:10110000042000F01BFB0021042000F017FB46E048
:10111000C248844208D10121082000F00FFB0021C1
:10112000082000F00BFB3AE0BD48844208D10121C1
:10113000102000F003FB0021102000F0FFFA2EE049
:10114000B848844208D10121202000F0F7FA00219C
:10115000202000F0F3FA22E0B348844208D10121B4
:10116000402000F0EBFA0021402000F0E7FA16E002
:10117000AE48844208D10121802000F0DFFA00212E
:10118000802000F0DBFA0AE0A948844207D101215F
:10119000801500F0D3FA0021A01500F0CFFA10BDA1
:1011A00010B50121084600F0C9FA0021012000F025
:1011B000C5FA10BDF0B5002200230024002500264A
:1011C000002791F803C00CF00F0291F803C01CF047
:1011D000100F03D091F802C04CEA0202B1F800C02F
:1011E0001CF0FF0F31D0066800242BE04FF0010CFB
:1011F0000CFA04F5B1F800C00CEA0503AB4220D1AB
:10120000A5004FF00F0C0CFA05F7BE4302FA05FCDF
:101210004CEA060691F803C0BCF1280F06D14FF046
:10122000010C0CFA04FCC0F814C00AE091F803C0E9
:10123000BCF1480F05D14FF0010C0CFA04FCC0F8CA
:1012400010C0641C082CD1D30660B1F800C0BCF1FA
:10125000FF0F34DD466800242EE004F1080C4FF047
:10126000010E0EFA0CF5B1F800C00CEA0503AB4212
:1012700021D1A5004FF00F0C0CFA05F7BE4302FA7E
:1012800005FC4CEA060691F803C0BCF1280F05D115
:1012900004F1080C0EFA0CFEC0F814E091F803C03B
:1012A000BCF1480F07D104F1080C4FF0010E0EFA03
:1012B0000CFEC0F810E0641C082CCED34660F0BDD4
:1012C0004FF6FF710180022181700421C1707047C7
:1012D0000246002093680B4201D0012000E000206C
:1012E00070470146886880B2704702460020D36884
:1012F0000B4201D0012000E0002070470146C86881
:1013000080B2704701617047416170470AB1016165
:1013100000E041617047C16070474FF480320A437A
:101320008261816182618269826970470022414BDA
:101330001A684FF680731A4042EA00120A433D4B86
:101340001A6070473C49C8617047F0B5002200231D
:101350000024002500F00046B6F1004F02D1354EC2
:10136000F46901E0334E7468C0F3034582B200F4BF
:101370004016B6F5401F08D124F070642D4E7668F3
:1013800026F070662B4F7E6012E000F48016B6F5F2
:10139000801F06D1032606FA05F39C4344F07064CF
:1013A00006E0460D360102FA06F6B44344F07064D6
:1013B00021B1460D360102FA06F6344300F000462C
:1013C000B6F1004F02D11B4EF46101E0194E74607A
:1013D000F0BD30B500228B071C0F0F2303FA04F277
:1013E000144B08338C1053F8244094438D1043F869
:1013F00025408C1053F824308C07240F00FA04F495
:1014000023430C4C08348D1044F8253030BD0A4974
:10141000DC3108607047000000080140000C01400A
:10142000001001400014014000180140001C014060
:10143000002001400000014000002042DB4800681D
:1014400040F00100D949086008464068D849084082
:10145000D649486008460068D6490840D349086024
:101460000846006820F4802008600846406820F4A0
:10147000FE0048604FF41F0088607047CB49096840
:1014800021F48031C94A11601146096821F4802194
:101490001160B0F5803F03D0B0F5802F0ED106E08B
:1014A000C249096841F48031C04A116007E0BF4970
:1014B000096841F4A021BD4A116000E000BF00BFEF
:1014C000704710B501460022002300204A11012A6E
:1014D00002D1B64C236806E0022A02D1B34C236A3B
:1014E00001E0B24C636A01F01F02012494401C42E7
:1014F00001D0012000E0002010BD70B500240025BF
:10150000002600BF3120FFF7DCFF0646641CB4F55F
:10151000A06F01D0002EF5D03120FFF7D2FF08B127
:10152000012500E00025284670BD00219F4A116872
:1015300021F0F80141EAC001116070479E4908603E
:1015400070470022994B5A6822F47C1240EA01034A
:101550001A43964B5A6070479749086670470021B6
:10156000924A516821F003010143516070478F484E
:10157000406800F00C00704700218C4A516821F04F
:10158000F0010143516070470021884A516821F4FD
:10159000E0610143516070470021844A516821F4A1
:1015A000605141EAC0015160704729B17F4A527AC7
:1015B00002437E4B5A7206E07C4A527AC343DBB246
:1015C0001A407A4B5A7270477B49D831086070478D
:1015D0000021764A516821F440410143516070472F
:1015E0000021724A20321170704A82F820100128BE
:1015F00002D004280AD104E001216C4A2032117083
:1016000005E00521694A2032117000E000BF00BFEB
:1016100070476A49086070476449096A0143634A30
:1016200011627047654944390860704730B5002140
:101630000022002300245D4D6D6805F00C0121B1EE
:10164000042905D0082923D105E05D4D056022E07D
:101650005B4D05601FE0554D6D6805F47012534DEC
:101660006D6805F48033022505EB92421BB9554D98
:10167000554305600BE04D4D6D6815F4003F03D0F8
:10168000504D5543056002E04D4D5543056002E065
:101690004B4D056000BF00BF444D6D6805F0F00183
:1016A0000909494D6C5C0568E54045603F4D6D6832
:1016B00005F4E061090A444D6C5C4568E5408560CD
:1016C0003A4D6D6805F46051C90A3F4D6C5C456840
:1016D000E540C560354D6D6805F44041890B3A4DD4
:1016E00010356C5CC568B5FBF4F5056130BD29B1FA
:1016F0002E4A526902432D4B5A6104E02B4A52692B
:1017000082432A4B5A61704729B1284A92690243A1
:10171000264B9A6104E0254A92698243234B9A61E1
:10172000704729B1214AD2690243204BDA6104E0B3
:101730001E4AD26982431D4BDA61704729B11B4AA8
:10174000D2680243194BDA6004E0184AD268824337
:10175000164BDA60704729B1144A12690243134BE1
:101760001A6104E0114A12698243104B1A617047F2
:1017700012494039086070470F49C86470470B49E7
:10178000C87170470948406A40F080700749486254
:10179000704701460020054A92680A4201D00120A4
:1017A00000E0002070470149887270470010024035
:1017B0000000FFF8FFFFF6FE0000424280044242B4
:1017C00000127A0000093D004800002010B50446D0
:1017D000FF48844208D10121C014FFF7AFFF002168
:1017E000E014FFF7ABFFC4E0B4F1804F08D1012152
:1017F0000846FFF7B0FF00210120FFF7ACFFB8E07B
:10180000F448844208D101210220FFF7A4FF0021FF
:101810000220FFF7A0FFACE0EF48844208D101218D
:101820000420FFF798FF00210420FFF794FFA0E0B9
:10183000EA48844208D101210820FFF78CFF0021EB
:101840000820FFF788FF94E0E548844208D1012191
:101850001020FFF780FF00211020FFF77CFF88E0B9
:10186000E048844208D101212020FFF774FF0021C5
:101870002020FFF770FF7CE0DB48844208D1012183
:101880004014FFF75BFF00216014FFF757FF70E083
:10189000D648844209D10121C804FFF74FFF002137
:1018A0004FF40020FFF74AFF63E0D148844209D19A
:1018B00001210805FFF742FF00214FF48010FFF7D8
:1018C0003DFF56E0CB48844209D101214805FFF78E
:1018D00035FF00214FF40010FFF730FF49E0C64804
:1018E000844208D101214020FFF735FF002140202C
:1018F000FFF731FF3DE0C148844208D1012180203B
:10190000FFF729FF00218020FFF725FF31E0BC48C9
:10191000844208D101218015FFF71DFF0021A01589
:10192000FFF719FF25E0B748844209D101210804D7
:10193000FFF704FF00214FF48030FFF7FFFE18E0AF
:10194000B148844209D101214804FFF7F7FE002184
:101950004FF40030FFF7F2FE0BE0AC48844208D1B0
:1019600001218804FFF7EAFE00214FF48020FFF7F1
:10197000E5FE10BD00220288954B98420ED09A4B8E
:1019800098420BD0B0F1804F08D0924B984205D0CE
:10199000914B984202D0914B984204D14FF68F73ED
:1019A0001A404B881A438E4B984207D08D4B984271
:1019B00004D04FF6FF431A40CB881A4302808B882D
:1019C00083850B880385824B98420BD0864B9842C7
:1019D00008D08C4B984205D08B4B984202D08B4B51
:1019E000984201D10B7A038601238382704770B538
:1019F000002200230024058C4FF6FE763540058436
:101A0000038C8488028B4FF68F752A40B51E2A40BE
:101A10000D882A43751E2B400D892B434D882B437F
:101A20006B4DA8420BD0704DA84208D0754DA8420E
:101A300005D0754DA84202D0744DA84213D14FF67F
:101A4000F7752B404D892B434FF6FB752B408D8846
:101A50002B434FF6FF652C404FF6FF552C408D89E8
:101A60002C43CD892C4384800283CD8885860384D2
:101A700070BD70B5002200230024058C4FF6EF7670
:101A800035400584038C8488028B48F6FF752A4014
:101A90004FF6FF452A400D882D0642EA15424FF6C3
:101AA000DF752B400D892D0543EA15434D882D0523
:101AB00043EA1543464DA84202D04B4DA8421BD1E4
:101AC0004FF67F752B404D892D0543EA15434FF6A0
:101AD000BF752B408D882D0543EA15434FF6FF3522
:101AE0002C404FF2FF752C408D89AD0444EA15441B
:101AF000CD89AD0444EA154484800283CD880587EE
:101B0000038470BD70B5002200230024058C4FF6BD
:101B1000FF6635400584038C8488828B4FF68F7571
:101B20002A404FF6FC752A400D882A434FF6FF5590
:101B30002B400D892D0643EA15434D882D0643EAB7
:101B40001543234DA84202D0274DA8421BD14FF286
:101B5000FF752B404D892D0643EA15434FF6FF359F
:101B60002B408D882D0643EA15434EF6FF752C4019
:101B70004DF6FF752C408D892D0544EA1544CD891D
:101B80002D0544EA154484808283CD8885870384AB
:101B900070BD70B5002200230024058C4EF6FF7640
:101BA00035400584038C8488828B48F6FF752A4073
:101BB0004FF6FF452A400D882D0642EA15424DF6A4
:101BC000FF752B400D892D0743EA15434D881FE013
:101BD000002C01400004004000080040000C0040C0
:101BE000001000400014004000340140004C01404F
:101BF000005001400054014000180040001C00400B
:101C000000200040004001400044014000480140E5
:101C10002D0743EA1543F84DA84202D0F74DA842DC
:101C200006D14BF6FF752C408D89AD0544EA15446D
:101C300084808283CD88A0F84050038470BD828B5D
:101C40004FF2FF331A408283828B0B0642EA134223
:101C500082837047F0B5002400250026078C4EF6DD
:101C6000FF7C07EA0C070784848B058C0F073E0C6A
:101C700040F6FF473C40170644EA17441F0744EA72
:101C80001744DD4FB8420ED0DC4FB8420BD0B0F154
:101C9000804F08D0DA4FB84205D0DA4FB84202D0B0
:101CA000D94FB84206D14DF6FF773D4046F48057F4
:101CB0003D4305E047F6FF573D4041F480573D4323
:101CC00084830584F0BD828B4FF6F3731A408283C0
:101CD000828B0A4382837047F0B5002400250026DA
:101CE000078C4FF6FF6C07EA0C070784848B058C82
:101CF0000F063E0C4FF60C773C401F0542EA174793
:101D00003C43BD4FB8420ED0BC4FB8420BD0B0F1EF
:101D1000804F08D0BA4FB84205D0BA4FB84202D06F
:101D2000B94FB84206D14FF6FF573D4046F4807791
:101D30003D4305E04FF2FF573D4041F480773D437E
:101D400084830584F0BD028B4FF2FF331A40028377
:101D5000028B0B0642EA134202837047F0B500245F
:101D600000250026078C4FF6EF7C07EA0C07078456
:101D7000048B058C0F053E0C40F6FF473C401F07C7
:101D800044EA1744170644EA17449B4FB8420ED062
:101D90009A4FB8420BD0B0F1804F08D0984FB8425C
:101DA00005D0984FB84202D0974FB84206D14FF6AF
:101DB000DF773D4046F010073D4305E04FF65F7783
:101DC0003D4041F010073D4304830584F0BD028B84
:101DD0004FF6F3731A400283028B0A430283704763
:101DE000F0B500240025068C4FF6FE773E400684B1
:101DF000048B058C4FF60C7634401E0542EA1646DD
:101E000034437D4EB0420ED07C4EB0420BD0B0F188
:101E1000804F08D07A4EB04205D07A4EB04202D000
:101E2000794EB04206D14FF6FD76354041F00106BD
:101E3000354305E04FF6F576354041F00106354370
:101E400004830584F0BD70B504460D466A4884429B
:101E50000ED06A4884420BD0B4F1804F08D0684855
:101E6000844205D06748844202D06748844200D14A
:101E700000E000BF288850B92B89AA8869882046CD
:101E8000FFF7AEFFE9882046FFF7A1FF25E028888D
:101E900004280AD12B89AA8869882046FFF75EFFAB
:101EA000E9882046FFF74FFF17E0288808280AD165
:101EB0002B89AA8869882046FFF70EFFE98820460B
:101EC000FFF701FF09E02B89AA8869882046FFF700
:101ED000C1FEE9882046FFF7B2FE70BD2DE9F04152
:101EE00004460D4600260127688808B9022600E04E
:101EF0000026A888012801D1022700E001272888B0
:101F0000A0B92B89AA8869882046FFF769FFE9886C
:101F10002046FFF75CFF2B893A4631462046FFF703
:101F20001DFFE9882046FFF70EFF13E02B89AA88E2
:101F300069882046FFF712FFE9882046FFF703FF74
:101F40002B893A4631462046FFF74AFFE98820466A
:101F5000FFF73DFFBDE8F0810A884B881A438B8864
:101F60001A43CB881A430B891A434B891A438B892E
:101F70001A43A0F8442070474FF6FF71818000217A
:101F80000180C18041800172704700210180418041
:101F90008180C180018141818181C181704700219F
:101FA00001804180012181800021C1800181704731
:101FB0000021018041808180C18001814181818136
:101FC000704721B1028842F00102028004E00288D9
:101FD0004FF6FE731A400280704731B1B0F84420CA
:101FE00042F40042A0F8442005E0B0F84420C2F3D7
:101FF0000E02A0F844207047002C0140003401403C
:102000000004004000080040000C004010B51AB168
:1020100083890B43838104E08389CC43A4B22340AA
:10202000838110BD8182704741EA0203A0F84830E5
:10203000704710B51AB183890B43838104E083890B
:10204000CC43A4B22340838110BD01894FF6F872BE
:10205000114001817047002202894FF68F731A40A8
:102060000A430281704730B504460D462946204692
:10207000FFF7F1FF208940F00700208130BD2DE9F6
:10208000F04104460D4616461F46602D06D13B46DC
:10209000012231462046FFF761FE05E03B46012262
:1020A00031462046FFF79CFE29462046FFF7D3FF26
:1020B000208940F007002081BDE8F08130B5002480
:1020C0000489E4B21D0642EA15450D432C43048100
:1020D00030BD2DE9F04104460D46164698460027CE
:1020E0004346324629462046FFF7E8FF27894FF648
:1020F000F870074047F007074FF68F70074047F02A
:1021000070072781BDE8F081F0B504460D461646FC
:102110001F463B46324629462046FFF7CFFF20891F
:1021200040F480402081F0BD01858282704700220A
:1021300002884FF68F731A400A4302807047F0B549
:102140000024002500260489058B068C4FF6F877BD
:102150003C400C434FF6FC473D4040F201173D43E5
:102160004FF6DD773E401F0542EA17473E430481A4
:1021700005830684F0BD0022028B4FF68F731A4050
:102180000A43028370470022028B48F6FF731A400D
:102190000B0642EA1342028370470022828B4FF6FD
:1021A0008F731A400A43828370470022828B48F65D
:1021B000FF731A400B0642EA13428283704721B133
:1021C000028842F08002028004E002884FF67F73AA
:1021D0001A400280704721B1828842F00402828056
:1021E00004E082884FF6FB731A408280704721B169
:1021F000828842F00802828004E082884FF6F773FA
:102200001A408280704721B1828842F001028280A8
:1022100004E082884FF6FE731A40828070470022E5
:10222000028B4FF6F7731A400A430283704700226D
:10223000028B4FF2FF731A400B0642EA13420283ED
:1022400070470022828B4FF6F7731A400A4382834D
:1022500070470022828B4FF2FF731A400B0642EA4E
:102260001342828370470022028B4FF6FB731A40A1
:102270000A43028370470022028B4FF6FF331A4055
:102280000B0642EA1342028370470022828B4FF60C
:10229000FB731A400A43828370470022828B4FF6F9
:1022A000FF331A400B0642EA134282837047002232
:1022B000028B4FF67F731A400A4302837047002255
:1022C000028BC2F30E020B0642EA134202837047EE
:1022D0000022828B4FF67F731A400A438283704735
:1022E0000022828BC2F30E020B0642EA1342828363
:1022F00070470022028C4FF6FD731A400A43028495
:1023000070470022028C4FF6F7731A400A4302848A
:1023100070470022028C4FF6DF731A400B0542EA29
:102320001342028470470022028C4FF67F731A40DA
:102330000B0542EA1342028470470022028C4FF6DA
:10234000FF531A400B0642EA1342028470470022F0
:10235000028C4FF2FF731A400B0642EA13420284CA
:1023600070470022028C4DF6FF731A400B0742EAB9
:1023700013420284704730B5002301248C40A3B27D
:10238000048CDD43ADB22C400484048C02FA01F5C8
:10239000ADB22C43048430BD30B5002304248C40FE
:1023A000A3B2048CDD43ADB22C400484048C02FA49
:1023B00001F5ADB22C43048430BD70B50023002478
:1023C00003461846183301258D40ACB2058CE64310
:1023D000B6B23540058409B1082909D103EB610380
:1023E0001D6825F070051D601D6815431D600CE01B
:1023F0000D1FADB203EB65031D6825F4E0451D60BC
:102400001D68160645EA16451D6070BD21B102889B
:1024100042F00202028004E002884FF6FD731A4087
:102420000280704721B1028842F00402028004E079
:1024300002884FF6FB731A400280704721B18288F0
:1024400042F08002828004E082884FF67F731A4057
:102450008280704702884FF6F7731A400280028824
:102460000A430280704782884FF68F731A40828039
:1024700082880A438280704702894FF6F8731A40B7
:10248000028102890A430281704702894FF67F73F5
:102490001A40028102890A43028170478184704791
:1024A00081857047818670470187704781877047B3
:1024B000A0F84010704702884FF6FF431A40028090
:1024C00002880A43028070470146888E70470146A1
:1024D000088F70470146888F70470146B1F8400069
:1024E00070470146888C70470146088D7047024648
:1024F0000020138A0B4201D0012000E00020704729
:10250000CA430282704730B50246002000230024EF
:10251000158A05EA0103958905EA010413B10CB196
:10252000012000E0002030BDCA4302827047000055
:1025300010B50446FB48844209D101218803FFF706
:10254000FDF800214FF48040FFF7F8F832E0F6483C
:10255000844209D101214804FFF7FDF800214FF41E
:102560000030FFF7F8F825E0F048844209D1012156
:102570008804FFF7F0F800214FF48020FFF7EBF814
:1025800018E0EB48844209D10121C804FFF7E3F8C1
:1025900000214FF40020FFF7DEF80BE0E54884420D
:1025A00008D101210805FFF7D6F800214FF480106B
:1025B000FFF7D1F810BD2DE9F04786B004460D466F
:1025C0000026002700BFB146B246A88900B100BF6F
:1025D000A246268A4CF6FF700640E888064326820B
:1025E000A6894EF6F3100640A88829890843698910
:1025F00008430643A681A68A4FF6FF400640A889F5
:102600000643A68201A8FFF711F85446C548824543
:1026100001D1049F00E0039FA08910F4004F08D06F
:1026200007EBC70000EB071029684900B0FBF1F881
:1026300007E007EBC70000EB071029688900B0FB33
:10264000F1F86420B8FBF0F006013009642101FBC9
:102650001089A08910F4004F09D0322101EBC90084
:102660006421B0FBF1F000F00700064308E03221DE
:1026700001EB09106421B0FBF1F000F00F000643FC
:10268000268106B0BDE8F0874FF4165101600021A5
:102690008180C18001810C214181002181817047AD
:1026A00010B50022028A4FF2FF031A400B884C88B3
:1026B00023438C882343CC8823431A43028210BDD2
:1026C0000021018041808180C180704721B18289D1
:1026D00042F40052828104E082894DF6FF731A4071
:1026E00082817047F0B50024002500260023A1F563
:1026F00010676A3F00D100BF0346C1F3421401F0E6
:102700001F05012707FA05F6012C01D10C3304E05F
:10271000022C01D1103300E014331AB11F68374383
:102720001F6002E01F68B7431F60F0BD10B51AB10B
:10273000838A0B43838204E0838ACC43A4B2234080
:10274000838210BD028A4FF6F0731A400282028A19
:102750000A430282704782894FF2FF731A408281D6
:1027600082890A438281704721B1828942F0020244
:10277000828104E082894FF6FD731A40828170479E
:10278000028A4FF6DF731A400282028A0A430282EB
:10279000704721B1028A42F48042028204E0028A38
:1027A0004BF6FF731A4002827047C1F30802828021
:1027B000704701468888C0F308007047818941F05E
:1027C000010181817047028BD2B20283028B42EAFF
:1027D000012202837047028B02F47F420283028B44
:1027E0000A430283704721B1828A42F0200282822A
:1027F00004E0828A4FF6DF731A408282704721B16B
:10280000828A42F01002828204E0828A4FF6EF73DD
:102810001A408282704721B1828A42F00802828285
:1028200004E0828A4FF6F7731A408282704721B122
:10283000828942F40042828103E08289C2F30E025F
:102840008281704721B1828A42F40062828204E070
:10285000828A4FF2FF731A4082827047828A4FF653
:10286000FB731A408282828A0A438282704721B1B6
:10287000828A42F00202828204E0828A4FF6FD736D
:102880001A408282704702460020B1F5007F00D1D5
:1028900000BF13880B4201D0012000E000207047E8
:1028A00001F40072B2F5007F00D100BFCA4302807C
:1028B000704770B502460023002400250020A1F5D2
:1028C00010666A3E00D100BFC1F3421501F01F043B
:1028D000012606FA04F4012D02D19689344006E05F
:1028E000022D02D1168A344001E0968A34400B1240
:1028F000012606FA03F31688334014B10BB1012008
:1029000000E0002070BD10B500220023A1F5106486
:102910006A3C00D100BF0A1201249440A3B2DC43F8
:10292000048010BD003801400044004000480040D1
:10293000004C004000500040704700000FB4054AB2
:10294000054910B503AB7944029800F0FCFA10BCBD
:102950005DF814FB4400002049E5FFFF2DE9F0413C
:1029600004460E4600202BE0E1682046884748B325
:10297000252802D0D4E901211FE0E1682046002784
:10298000884705001ED0A5F14100192802D820353E
:102990004FF400673246294620462760FDF702FCC7
:1029A00040B1012801D1361DDEE7F61D26F00706ED
:1029B0000836D9E7D4E9012128469047206A401C0F
:1029C0002062D1E7206ABDE8F08100002DE9F041E6
:1029D0008046002610687529414614A511D0AFF332
:1029E0000080002802DA404211A508E0D8F8001063
:1029F0008A0701D50FA502E0490704D50EA50126D7
:102A000001E0AFF30080002408F1240704E000F0A7
:102A1000ADFA30313955641C0028F8D133462A46C6
:102A200021464046BDE8F04100F00CB8000000002F
:102A30002D0000002B0000002000000070477047B0
:102A4000704770472DE9F0470D4604469246994677
:102A500000F124080168880604D5E06921F010011E
:102A6000216000E001200027A84200DD471BA1698A
:102A70007A1902EB0900081AA0612068C00602D486
:102A80002046AFF30080002608E0D4E901211AF8BF
:102A900006009047206A401C761C20624E45F4DBFD
:102AA0002068C0060AD52046AFF3008006E0D4E9CE
:102AB000012130209047206A401C2062381EA7F177
:102AC0000107F4DC07E0D4E9012118F8050090477C
:102AD000206A401C2062281EA5F10105F3DC204677
:102AE000AFF3008021680220090600D40120BDE870
:102AF000F08770472DE9FF4F0C4698468DB0D2E91C
:102B00000010DDF868A0CDE90810C0F30A550DB932
:102B10004FF0FF35002108464FF00000099900F4FE
:102B20004000002905DA00EB80004FF4400101EA83
:102B300050004FEA905BBBF1010F01DD4FF0FF3B0E
:102B4000DDE9080150EA410016D1BAF1010F02D1C6
:102B50006FEA080207E0302101E02154401C4045A3
:102B6000FBDB40460022002121540D99C1E9010AF6
:102B70000A6011B0BDE8F08FA5F2FF3544F61050A1
:102B80004543CBF100000B904FEA2549BAF1000F05
:102B900003D1A9EB08056D1C01E0C8F100050B9AF3
:102BA000002D00DC5A46294601DAC5F1000103A8D0
:102BB00000F06EFADDE9081000F042FBA0F50050CD
:102BC0001F388DE807000398002D09DD42F21F0130
:102BD0005A46084403A90390684600F0A2FD08E0A5
:102BE000A0F500505A461F3803A90390684600F02C
:102BF000ACFD8DE807000004000C03D04FF0FF355A
:102C00006E0801E00E461546BAF1000F25D1474681
:102C100007E03146284600F0B7F9303205460E4647
:102C2000E2557F1EF5D50023012786EA030185EAD8
:102C300003000843CDF81C8003D0002709F10100F0
:102C400005E02078302803D10027A9F10100814652
:102C5000002FCDF8189099D034E000200A90074654
:102C60000AE0112F0FDA3146284600F08DF9303294
:102C700005460E46E2557F1C002386EA030185EADD
:102C800003000843EDD1002386EA030185EA03002F
:102C9000084310D13846002104E0235C625C635491
:102CA000491C2254401E8142F7DBA7EB0800401E5E
:102CB000CDE9060706E00A9820B94FF011084FF059
:102CC000000A63E7079A0020A0540D98C0F808A0F6
:102CD00007994160069901604BE72DE9F04F0446E2
:102CE0008846D21D22F0070091B0D0E90010CDE94E
:102CF00002100146029800F05EFE0399CA0F4FF0E1
:102D00002D0106D122682B21930702D4202101EA4C
:102D1000C20103288B4601D0072806DB5B4602462A
:102D20004146204600F076F905E12068800601D58D
:102D3000E76900E006271120B8F1650F1ED0B8F151
:102D4000660F29D0B8F1670F62D1012F00DA012791
:102D50000023112F009300DC3846034602AA06A97F
:102D60000EA8FFF7C7FE20683D460026000734D4B2
:102D70000F98A84200DA054606A827E00023112F85
:102D8000009300DA781C034602AA06A90EA8FFF7F2
:102D9000B1FE00267D1C26E001234FF0004902AA67
:102DA00006A90EA800933B46FFF7A4FEDDE90F50ED
:102DB000002610B90E99781C0D18781B02D47D1CC2
:102DC000C0F1FF36A5EB070A22E06D1E012D04DDE0
:102DD000411911F8011C3029F7D00E98B84202DAD7
:102DE00010F1040F03DA4FF0010A0E980FE00028EB
:102DF00002DC2D1A064404E0401CA84201DD0E9DB1
:102E00006D1C0E98801B00F1010A4FF000408146B6
:102E10002068000703D4AA4501DB4FF0FF3A0020E9
:102E2000B9F1004F0DF117078DF8170024D04FF0BE
:102E300002082B20B9F1000F01900BDA2D20C9F107
:102E40000009019006E0484600F090F830318146D4
:102E500007F8011DB8F10000A8F10108F3DCB9F191
:102E6000000FF0D1019807F8010D216845200905F0
:102E700000D4652007F8010D04A8C01B00F1070865
:102E80005FEA0B0000D00120411901EBEA7101EB70
:102E90000800A169081A401EA0612068C00602D47B
:102EA0002046AFF30080BBF1000F06D05846D4E9AE
:102EB00001219047206A401C20622068C00625D569
:102EC0002046AFF3008021E0002E07DB0F98B042D0
:102ED00004DD06A8D4E90121805D02E0D4E90121E6
:102EE00030209047206A401C2062761CAAF1010025
:102EF0005FEA000A0AD100F041F8C0680168405C4E
:102F0000D4E901219047206A401C2062281EA5F1C7
:102F10000105D9DC07E0D4E9012117F8010B90473E
:102F2000206A401C2062B8F10000A8F10108F2DC20
:102F30002046AFF3008002201BE6000001694A1C16
:102F400002610878704710B50C46194690B0CDE97B
:102F5000024200220692044A7A44CDE9042001A8E4
:102F6000FFF7FCFC10B010BDE1FFFFFF4FF00A01BE
:102F7000B0FBF1F202FB11011046704701487047A7
:102F8000704700006C03002030B5B0F10A024FEA30
:102F9000900E71F100034EEA817EB0EB0E0061EB02
:102FA00091014FEA101E4EEA017E10EB0E0041EB3C
:102FB00011114FEA102E4EEA016E10EB0E0041EB9C
:102FC00011214FEA104E4EEA014E10EB0E0041EB7C
:102FD0001141401841F100014FEAD00040EA417030
:102FE0004FEAD10110EB80054FEA810444EA907466
:102FF00044EB01046D1944EB0404521BA3414FF050
:10300000000348BF0A3200D530BD401C41F1000129
:1030100030BD00002DE9F04104461F46032601683B
:10302000072A01F4006003DB15A520B915A502E00D
:1030300015A500B915A521F010002060A069C01EDB
:10304000A0610FB1401EA0612046AFF300800FB910
:10305000206A06E0D4E9012138469047206A401CE6
:103060002062C01C206204E0D4E9012115F8010BA4
:103070009047761EF8D22046AFF30080BDE8F0817D
:103080004E414E006E616E00494E4600696E66000C
:103090002DE9F047174681468AB0304A7A4407A89E
:1030A00038CA01F5DC511B3138C038CA04A83722B0
:1030B00038C091FBF2F0A0F1800502FB10141B3C1C
:1030C00002D56442012000E00020DFF890A0804695
:1030D0000026FA44AAF1B20A0DE0E00709D03A4608
:1030E00006EB46000AEB800107A800F02EFB07ABB9
:1030F00007C36410761C002CEFD1DFF860A001AE8E
:10310000FA44AAF1A40A16E0E80712D00AEB041068
:1031100090E80E0086E80E00C068F84202D10398DD
:10312000384403903A4601A904A800F00EFB04AB12
:1031300007C36D10641C002DE6D13A46B8F1000FAC
:1031400007A904A802D000F0ECFA01E000F0FDFAB3
:10315000A9E807000AB0BDE8F0870000A41100004C
:10316000004870474C0300207546FFF7F9FFAE4654
:1031700005006946534620F00700854618B020B583
:10318000FDF736FFBDE820404FF000064FF0000786
:103190004FF000084FF0000B21F00701AC46ACE8FF
:1031A000C009ACE8C009ACE8C009ACE8C0098D466C
:1031B00070470446AFF300802046FDF712F8000088
:1031C0004FF0013C50F8042B51F8043B9A4221D1B6
:1031D000A2EB0C03934313EACC1317D150F8042B42
:1031E00051F8043B9A4215D1A2EB0C03934313EA26
:1031F000CC130BD150F8042B51F8043B9A4209D15F
:10320000A2EB0C03934313EACC13DBD04FF0000086
:1032100070470000D01A01BAB1FA81F101F018012B
:1032200022FA01F0CB40C1F12001DBB2C0B2C01ADA
:103230002CFA01F3D11A914311EAC311E6D1704778
:103240005FEA400C08BF91F0000F4FEA8C234FEA71
:10325000C12243EA51514FEA1C5018BF00F5F0401B
:103260004FEA300018BF41F000415FEA6C5C00F0AB
:103270002980BCF1FF3F08BF40F080407047130C2D
:1032800006BF12044FF0100C4FF0000C130E04BFD9
:1032900012020CF1080C130F04BF12010CF1040C04
:1032A000930F04BF92000CF1020CD30F04BF520025
:1032B0000CF1010C11464FF00002A0F11F00A0EB31
:1032C0000C00704711F0004F08BF704731F000410B
:1032D0003FF4D5AF0B0C06BF09044FF0100C4FF0B4
:1032E000000C0B0E04BF09020CF1080C0B0F04BFFD
:1032F00009010CF1040C8B0F04BF89000CF1020CC6
:10330000CB0F04BF49000CF1010CCCF12003A0EB62
:103310000C0022FA03F302FA0CF241EA030100F175
:103320000100704720F07F4C80EA030023F07F47C4
:10333000ACEB070303F57C5300F0004003F1FF03FF
:103340002DE980494FEA154B09B44FEA144325EAA9
:103350000B4E24EA03480FF2042606EB1327490814
:103360003E785FEA320203FB0667C7F5000707FBFA
:1033700006F64FEA54374FEAD64606F1020607FB37
:10338000066CCCF1005C4FEA1C472CEA074C07FBAB
:1033900006F40CFB06F504EB15464FEA961634BF0F
:1033A00000204FF000404FEAD13706FB07FC4FEA00
:1033B0001C4C0CFB0BF7D21B03FB0CF761EB07015A
:1033C0000CFB0EF7B0EB074072EB17420CFB08F753
:1033D00034BFA2EB0742B2EB074261EB17414FEA61
:1033E0000C444FEA910706FB07FC4FEA1C4C0CFB10
:1033F0000BF7B0EBC74072EB573203FB0CF734BF4F
:10340000A2EBC742B2EBC74261EB57310CFB0EF7A0
:10341000B0EBC70072EB57720CFB08F734BFA2EB9E
:10342000C702B2EBC70261EB5771039F4FEA81619C
:1034300041EA921104EBCC044FEAD1374FEA8262A1
:1034400006FB07FC42EA90124FEA80604FEA1C4CF0
:103450000CFB0BF7D21B03FB0CF761EB07010CFB1A
:103460000EF7B0EB074072EB17420CFB08F734BFC6
:10347000A2EB0742B2EB074261EB17414FEA8C55D2
:103480004FEA910704EB9C2406FB07FC4FEA1C4C17
:103490000CFB0BF7B0EBC74072EB573203FB0CF79A
:1034A00034BFA2EBC742B2EBC74261EB57310CFB12
:1034B0000EF7B0EBC70072EB57720CFB08F734BF86
:1034C000A2EBC702B2EBC70261EB577115EB4C25BB
:1034D0004FEA816141EA92114FEA82624FEAD137A5
:1034E00042EA901206FB07FC44F100044FEA8060B8
:1034F0004FEA1C4C0CFB0BF7D21B03FB0CF761EBE8
:1035000007010CFB0EF7B0EB074072EB17420CFB08
:1035100008F734BFA2EB0742B2EB074261EB174159
:1035200015EB1C154FEA813141EA92414FEA823294
:1035300042EA90424FEA80304FEA0C7644F10004B0
:1035400048EA03434EEA0B484FF0000EB2EB080C7A
:1035500071EB030724BF624639464EEB0E0E4FF067
:10356000000B0018524149414BEB0B0BB2EB080C1E
:1035700071EB03077BF1000B24BF624639464EEB2B
:103580000E0E4FF0000B0018524149414BEB0B0B54
:10359000B2EB080C71EB03077BF1000B24BF624612
:1035A00039464EEB0E0E51EA020718BF46F00106EF
:1035B00016EB0E7655F1000254F1000103D5BDE87B
:1035C0008901BDE80088BDE88901BDE80048B61959
:1035D000524141EB0101A3F10103704780807F7EDE
:1035E0007D7C7B7A79787776767574737271717079
:1035F0006F6E6E6D6C6C6B6A6A696868676666652B
:103600006464636362616160605F5F5E5E5D5D5CB8
:103610005C5B5B5A5A595958585757565655555529
:103620005454535352525251515050504F4F4F4E89
:103630004E4D4D4D4C4C4C4B4B4B4A4A4A494949D7
:103640004848484747474746464645454544444419
:10365000444343434342424242414141002B26D42A
:10366000770021D01CB54FEA370703B44FF01000A4
:103670004FF010014FF000000FBCBDE810400BF1FF
:10368000010BBBF1010F08BF5FEA170722BF12F160
:10369000010211F101014FF0004143F1000300F07C
:1036A000004043EA00007047F9D35708DAE746EADA
:1036B000064613F1400F4FEA16461FDD13F1200FA7
:1036C000DFBF16430A46002120335B42C8D0C3F156
:1036D000200746EA064602FA07F74FEA164646EA88
:1036E0000706C3F1200722FA03F201FA07F721FACD
:1036F00003F14FF0000342EA0702B1E746EA02068F
:1037000046EA06464FEA164646EA0106BCBF46EAC6
:103710000646360C4FF000034FF000024FF0000158
:103720009EE72DE9C048934630B491E8380007C8B9
:1037300031EA400C48BF34EA430C03D5FFF7F2FDF1
:10374000FFF78CFFF0BCBDE800882DE9C048934628
:1037500030B491E8380007C810F0804F08BF13F06C
:10376000804F03D100F005F8FFF778FFF0BCBDE80B
:10377000008820F07F4780EA030023F07F4C07EBAE
:103780000C03A3F57C5300F00040A3F1FE0392F07C
:10379000000F00F0B38095F0000F00F077802DE966
:1037A00001494FEA11404FEA144621EA004800FB64
:1037B00006FC24EA064708FB06F607FB08F800FBB0
:1037C00007F718EB06484CEB164C4FEA124B18EB78
:1037D00007484FEA15464CEB174022EA0B4E0BFB0D
:1037E00006FC25EA06470EFB06F607FB0EFE0BFB62
:1037F00007F71EEB064E4CEB164C4FF000061EEB87
:10380000074E4CEB174B18EB0B0840F1000018EB80
:103810000E0B58EB000840F100008F1A4FF000012A
:103820003CBFC943661B14BFB5EB040C00213CBF71
:10383000C943F61B4FEA17444EEA8E0E27EA0445A9
:103840004FEA1C4704FB07622CEA074C05FB07F70D
:103850000CFB05F604FB0CFC16EB074642EB17428B
:1038600016EB0C4642EB1C421BEB060658EB020221
:10387000414146EA9E0601D5BDE80189B61952418B
:1038800041EB0101A3F10103BDE801894FEA1445B1
:103890004FEA114724EA054621EA074C05FB07F4E5
:1038A00006FB07F70CFB06F105FB0CFC11EB0741CF
:1038B00044EB17444FEA124711EB0C4144EB1C4414
:1038C00022EA074C05FB07F206FB07F70CFB06F69E
:1038D00005FB0CFC16EB074642EB174216EB0C46B9
:1038E00042EB1C456A1854F1000148BF7047B619F5
:1038F000524141EB0101A3F10103704795F0000F24
:1039000037D04FEA11424FEA144721EA024624EA2F
:10391000074C02FB07F106FB07F70CFB06F402FB62
:103920000CFC14EB074441EB17414FEA154714EB2D
:103930000C4441EB1C4125EA074C02FB07F506FB52
:1039400007F70CFB06F602FB0CFC16EB074645EBF3
:10395000174516EB0C4645EB1C42121951F10001BC
:1039600048BF7047B619524141EB0101A3F1010371
:1039700070474FEA14454FEA114724EA054621EA09
:10398000074C05FB07F106FB07F70CFB06F24FF0AF
:10399000000605FB0CFC12EB074241EB174112EB52
:1039A0000C4251EB1C4148BF7047921841EB01019A
:1039B000A3F101037047490050EAC12000D0042060
:1039C0004A0D01D040F0010040F2FF72B2EB515FAE
:1039D00001D140F00200012800D10520704700000D
:1039E00010B500290AD00878002807D00548784487
:1039F000FFF7E6FB002801D0002010BD0248784404
:103A000010BD00008E0800008608000002494FF03B
:103A1000000000F08EBB00000000F87F00B54FF4FE
:103A2000001E1EEB410F08BF002898BF1EEB430F7E
:103A300008BF002A26D85DF804EBAFF3008051EAF6
:103A4000030C06D4994208BF904210D6EFF30080D1
:103A500070478B4208BF8242EFF3008020F0104095
:103A600038BF40F0004080F3008878BF70474FF0C7
:103A7000010C38BFBCF1020F68BFBCF1000FEFF3BF
:103A8000008070475DF804EB1CF4502F3FF4BEAF8C
:103A900000F081BB10F0004314BF4142014643F0E7
:103AA0008043B1FA81FC03F1F87311FA0CF1A3EB36
:103AB0000C534FEA415008BF704703EBE1217047B8
:103AC00053EA010C17D41CF5801F58BFBCF5801FAA
:103AD00000F106808B4218BF704708BF82427047D2
:103AE00007D713F5801F58BF11F5801F19D48B42DB
:103AF00070479B4270471CF5801F08D5BCF5801F9E
:103B0000F7D5994218BF704708BF904270474FF4ED
:103B1000001C1CEB430F38BF1CEB410F01D2994234
:103B2000704783EA010182EA000081EA030380EA28
:103B30000202DFF810C083EA010182EA0000FFF709
:103B40006DBF00001900160400F5000C1CF0FE4FBC
:103B500009D0C1104FEA407001F1605158BF704761
:103B6000A1F1E04170471CF4000F08D0014640006D
:103B700008BF70474FF000004FEA30017047DFF890
:103B800014C0420240F08E80AFF3008040F4E001A8
:103B9000104670471800000490EA010F48BF81F0FA
:103BA000004100F1F681421A3CBF801A89184FEAA1
:103BB000D0524FF07F4C1CEA410FA2EBD15318BFFB
:103BC0009CEA026F00F040804FF0004C4CEA00206D
:103BD0004CEA012121FA03FC10EB0C0C23D202F178
:103BE000FF325FEA1C2040EBC25038BF70471CF028
:103BF0007F0F4FEA400C18BFBCF17F4F38BF7047B2
:103C0000C3F12003994008BF20F00100BCF17F4FB1
:103C100038BF7047A0F1C0404FF0FF0141EAD051DA
:103C20004FEAC15070474FEA3C00000A40EBC250D7
:103C300028BF1CF0FF0F4FEA400CE1D018BFBCF1C9
:103C40007F4F38BF7047E5E79CEA026F05D010EA66
:103C50005C0F08BF00F000407047BCEB410F4FEA1B
:103C6000400228BF9445DFF828C0C0F01580AFF3AC
:103C70000080B2EB410F05D012F1807F08BF704782
:103C80000846704790EA010F58BF704701487047D7
:103C9000010000040000C07F014800F04ABA0000A3
:103CA0000000C07F014800F044BA00000000C07F5F
:103CB0004FF47F0C1CEAD0121EBF1CEAD11392EA0B
:103CC0000C0F93EA0C0F00F0A58090EA010F48BF9B
:103CD00042F4807240F4000C41F400002CF07F416B
:103CE00020F07F4000B58142A2EB03020FF2401C9E
:103CF000ACEB504EC0F100009EF800E04FEA4E0ED3
:103D000000FB0EFC38BF49004FEA2C1C02F5FA02FA
:103D10000CFB0EF34FEACE1E4FEA112C4FEAC121E5
:103D20000EEB635E0EFB0CFC4FEA1C5300FB031111
:103D30004FEA112C4FEA01310EFB0CFC02F4807E9D
:103D400042EB22424FEADC4C00FB0C11C14228BF7F
:103D500009184CEB0333012924BF4EF0020E4EF03C
:103D6000804E10EB410F24BF4EF0010E4EF0804EFE
:103D700008BF4EF0040E4EF008015DF804EB43EB73
:103D8000C25018BFB2F57C0F38BF704741EAC0710E
:103D900008BF20F00100B2F57C0F38BF704729D56D
:103DA00012F0F00F1CBF00F1C04000F0004070475F
:103DB000008182838485868788898B8C8D8E8F9104
:103DC0009293959697999A9C9D9FA0A2A3A5A7A828
:103DD000AAACAEB0B2B3B5B7B9BCBEC0C2C5C7C954
:103DE000CCCED1D4D7D9DCDFE2E6E9ECF0F3F7FAB8
:103DF000FE0000004FEA400C0CF1807CBCF17E4FCD
:103E000028BF7047B0F1C0404FF07F404CBF40101A
:103E10004008704790EA010F0CEAD11348BF42F402
:103E20008072624538BF634507D213F47F0F23D0F9
:103E300080EA010000F0004070474FF0807C1CEBEE
:103E4000400F98BF1CEB410FDFF840C03FF624AF96
:103E5000AFF300804FF0807C1CEB400F02BF1CEBE7
:103E6000410F0B4870471CEB410F0CBF002020F0A6
:103E7000004040EAC250704712F47F0F04BF04486C
:103E8000704742F0FF004FEAC05070470400000442
:103E90000000C07FC2154FEA002318BF43F0004363
:103EA00005D4D2F19E020AD323FA02F070474FEAFA
:103EB0004001B1F1FE4F02D24FF000007047DFF831
:103EC00028C04FEA4001B1F17F4F88BF4CF4803CDD
:103ED0003FF6E8AE1CBF6FEAE0707047AFF30080BA
:103EE0006FEAE070704700006800020410F00042C2
:103EF00018BF404242F08042B0FA80F18840A2EB05
:103F0000C15202F1786208BF7047410642EB20209F
:103F100018BF5FF0806C28BF20F0010070474FF0A1
:103F20008042FFF7E9BF10B412F47F0F4FEA002080
:103F30004FEA012110D1B0FA80F400FA04F0A2EBAC
:103F4000044213F47F0F02F5803218BF41F00041A4
:103F500000D010BC18BF604740F00040B1FA81F4B7
:103F600001FA04F1A3EB044310BC03F5803360476E
:103F700080F0004090EA010F7FF515AE81F000411E
:103F800000F007B890EA010F48BF81F000413FF50B
:103F90000AAE421A3EBF82F00042801A89184FEAE8
:103FA000D0524FF07F4C1CEA410FA2EBD15318BF07
:103FB0009CEA026F4FD04FF0004C4CEA00204CEAD4
:103FC000012121FA03FCB0EB0C0C0FD412F0FE0F10
:103FD00018BF5FEA4C001DD5001240EBC25038BF3D
:103FE00070471CF03F0F18BF70470BE0A2F10102B1
:103FF0005FEA1C2040EBC25038BF70471CF07F0FB7
:1040000018BF7047C3F12003994014BF401E20F031
:10401000010070474FEA122316D0004204BF00206F
:1040200070474FEA9000B0FA80FCA2EB0C02CCF192
:10403000280C60FA0CF093EA122F04BF00EBC25078
:1040400070474FEAC37070475FEADC1008BF7047E3
:104050004FEAC37070479CEA026F04D010EA5C0F0D
:1040600008BF00207047BCEB410F4FEA400228BF59
:104070009445DFF82CC0FFF40FAEAFF30080B2EB35
:10408000410F06D012F1807F08BF704781F00040D9
:10409000704790EA010F48BF704702487047000020
:1040A000020000040000C07F00F0004343EAD05348
:1040B00023F48073C3F1C10323F0004117291FD8F3
:1040C000C3F1200310FA03F1C3F1200320F07F4075
:1040D00040F4000020FA03F003F0004340EA03003C
:1040E0000DD00B46590009D318BF401C06D17FEAFA
:1040F000E27398BF401C38BF20F001007047704742
:10410000182903EB912318BF6FF00041013168BFFC
:1041100003F0004009D6400203F0004000F1010026
:1041200004BF12F0004F20F0010070477047FEF707
:10413000D4BD0CF00F03092B08BF082000F02B8022
:104140000A2B0BD0082B18BF704708BF1CF0400F7C
:104150000AD04FF000004FF0000170471CF0400FF4
:1041600018BF4FF0004070471CF0100F08D020F02F
:10417000704300F07F4242EAD3014FEA4370704738
:1041800000F0604021F07F4242EA000201F07F40EF
:1041900040EA727070471CF4801F11D01CF4E02FAD
:1041A00003D06FEACC31490070474FF04050EFF335
:1041B000008222F0704242EA000282F300887047D7
:1041C0004FF000007047000002400000000000A017
:1041D0000000000005400000000000C800000000D2
:1041E0000C4000000000409C00000000194000004E
:1041F0000020BCBE0000000034400000BFC91B8E80
:1042000000000004B5400000504BCFD06607E2CF5D
:10421000010000006C4100003E8251AADFEEA7348D
:1042200001000000D9420000DCB5A0E23A301F973F
:10423000FFFFFFFFB4450000FD25A0C8E9A3C14F63
:10424000FFFFFFFFFF3F00000000008000000000B4
:10425000FF3F0000000000800000000098420008BE
:10426000000000205C0000006C010008F44200081F
:104270005C00002054090000880100081C000000B8
:1042800043000000F8FFFFFF0C0000000E000000DC
:104290000F0000002E00000000A24A0400000000F1
:1042A00000000000010203040607080900000000E6
:1042B00001010100000001000001000000000000F9
:1042C00000000000000000000000000000000000EE
:1042D00000000000000000000000000000000000DE
:1042E000000000000102030401020304060708099C
:0442F00002040608B6
:0400000508000131BD
:00000001FF
