:020000040800F2
:10000000000D00202D210008890800088B08000839
:100010008F080008930800089708000800000000F7
:100020000000000000000000000000009B08000825
:100030009D080008000000009F080008A1080008B3
:1000400047210008472100084721000847210008F0
:100050004721000847210008E91900084721000846
:1000600047210008472100084721000847210008D0
:1000700047210008472100084721000847210008C0
:1000800047210008472100084721000847210008B0
:1000900047210008472100084721000847210008A0
:1000A0004721000847210008472100084721000890
:1000B00047210008230B00084721000847210008BA
:1000C0004721000847210008472100084721000870
:1000D000472100089F200008472100084721000809
:1000E0004721000847210008472100084721000850
:1000F0004721000847210008472100084721000840
:100100004721000847210008750C00084721000816
:10011000472100084721000847210008472100081F
:10012000472100084721000847210008472100080F
:1001300000F002F800F04CF80AA090E8000C8244AD
:100140008344AAF10107DA4501D100F041F8AFF28A
:10015000090EBAE80F0013F0010F18BFFB1A43F0A5
:10016000010318475052000070520000103A24BF9B
:1001700078C878C1FAD8520724BF30C830C144BF0C
:1001800004680C607047000000230024002500264E
:10019000103A28BF78C1FBD8520728BF30C148BFEA
:1001A0000B607047662904F0C287642903F0BC85A0
:1001B000002070471FB5AFF3008004F0B3F80400CF
:1001C0000020002104F0E0FDE0601FBD10B510BD6F
:1001D00004F09EF91146FFF7EDFF00F02FF904F04F
:1001E000BCF9FFF7F3FF01F0FDFE00007047F0B52A
:1001F000A5B007460C4600250026802105A803F07F
:10020000CBFD01A800210A460B468C4680E80E1063
:1002100000BF0CE0A7F12400A84203DD605D05A942
:10022000485502E0002005A94855681CC5B2802D3C
:10023000F0DBFCA003F030FD002606E005A8815DA0
:10024000FCA003F029FD701C86B2802EF6DB01A90C
:1002500005A801F023FEF84901A801F076FD05A9E3
:1002600001A801F0F7FDF5A003F016FD002606E059
:1002700005A8815DEFA003F00FFD701C86B2802EF3
:10028000F6DBF3A003F008FD0025A7F1240086B2F9
:100290000DE0A05D05A9495D884204D0EDA003F002
:1002A000FBFC25B0F0BD681CC5B2701C86B2BE4216
:1002B000EFDB242D05D1ED48008840F48060EB4948
:1002C00008800026E948008810F4806F23D00225BA
:1002D00007E0605DC5F10B018840304386B2681CC1
:1002E000C5B20C2DF5DB3146E1A003F0D5FC0A2E9A
:1002F00010D2DFE806F005060708090A0B0C0D0E00
:1003000008E007E006E005E004E003E002E001E0C9
:1003100000E000BF00BFC4E7F0B5A5B004460D463D
:1003200000260027802105A803F036FD01A8002142
:100330000A460B468C4680E80E1000BF0CE0A4F184
:100340002400B04203DDA85D05A9885502E0002025
:1003500005A98855701CC6B2802EF0DBB1A003F051
:100360009BFC002706E005A8C15DB2A003F094FC49
:10037000781C87B2802FF6DB01A905A801F08EFD5D
:10038000AD4901A801F0E1FC05A901A801F062FD59
:10039000AAA003F081FC002706E005A8C15DA5A086
:1003A00003F07AFC781C87B2802FF6DBA8A003F05C
:1003B00073FC0026A4F1240087B20DE0E85D05A9D6
:1003C000895D884204D0AFA003F066FC25B0F0BD83
:1003D000701CC6B2781C87B2A742EFDB242E05D171
:1003E000A248008840F48060A04908809F480088A7
:1003F00010F4806F20D0E878A97800EB4100022843
:1004000003D1A6A003F048FC16E0E878A97800EB39
:100410004100012803D1AAA003F03EFC0CE0E878DB
:10042000A97800EB4100032803D1ADA003F034FC10
:1004300002E0B4A003F030FCC8E770472DE9F047B4
:10044000ADF51A7D002400250026182194A803F09C
:10045000A3FC18218EA803F09FFC00BF4FF40A7183
:1004600004A803F099FC0027A046A14601F054FD22
:1004700001F0B2FD4FF47A3001F0C2FD00F0F6FA5F
:100480000020A549086047214FF6FF7000F0A3FB4C
:1004900041F61F4142F20F7000F016FBD4E17348A1
:1004A000008810F4007F4AD17048008810F4006F73
:1004B00045D09A480088401C182190FBF1F09849DB
:1004C000097888423BDD00250BE09548007800EB79
:1004D000400005EBC0009349085C94A94855681C8E
:1004E000C5B2182DF1DB8EA994A800F0E0FF00251D
:1004F0000EE0C5F10B008EA9085C04A98A4A128897
:10050000885489480088401C87490880681CC5B207
:100510000C2DEEDB82480078401C8149087082482F
:10052000008882490988B1EB400F08D14F48008804
:1005300040F400704D4908800020794908704FF65A
:10054000FD70804504DA08F101001FFA80F809E027
:100550004FF6FD70804505DB09F101001FFA80F9B7
:100560004FF00008B9F15A0F0AD16F4803886C4860
:1005700002783E4801886E4803F08EFB4FF0000978
:100580003A48008810F4007F88D03848008810F07E
:10059000080FF9D000240FE0664830F814202146F7
:1005A00065A003F079FB674830F81420214666A067
:1005B00003F072FB601C84B2072CEDDB5D490988F7
:1005C0005C4A528811445B4A92881144594AD28845
:1005D00011445C4A128811445A4A52881144594ABB
:1005E00092881144574AD288881804F01FFD824629
:1005F0004FF0824104F028FC0646304604F0F0FB40
:10060000CDE902011948038800930B4652A0029AD3
:1006100003F042FB4148018857A003F03DFB002452
:10062000BCE000000D0A41455320737472696E6787
:100630003A0D0A0025640000330000200D0A4145F0
:1006400053206E617469766520737472696E673ABF
:100650000D0A00000D0A436F6E74726F6C204145E5
:10066000532077726F6E6721210D0A001800002059
:100670000D0A776172696E6720696E6465783D2541
:10068000640D0A000D0A57616B6575702041455372
:100690002077726F6E6721210D0A000062726F6110
:1006A00064636173742077616B6575702041455395
:1006B00020535543434553530D0A0D0A00000000D3
:1006C000756E69636173742077616B657570204125
:1006D000455320535543434553530D0A0D0A00001B
:1006E0006D756C7469636173742077616B65757087
:1006F0002041455320535543434553530D0A0D0A9A
:10070000000000000D0A66696E616C2077726F6EE2
:100710006721210D0A000000940123421E000020E1
:100720000000002094000020020000202C00002087
:10073000C851000878000020256420555020256409
:100740000D0A000086000020256420646F776E206B
:1007500025640D0A0000000073616D706C652072E5
:100760006174653A25662C256420626974205359AA
:100770004E43210D0A0000006672616D655F696E6F
:100780006465783A2564200D0A0000002F48015D59
:10079000AFF2601003F080FA601C84B20B2CF5DB22
:1007A0002BA003F079FA002407E02D48015DAFF299
:1007B0007C1003F071FA601C84B22A4800888442DD
:1007C000F3DB29A003F068FA002407E004A8015D28
:1007D000AFF2A01003F060FA601C84B226480088D3
:1007E0008442F3DB9DF811009DF8101000EB4100EE
:1007F000C7B237B1012F07D0022F0BD0032F12D170
:100800000EE0FFF71AFE0EE004A91B480088FFF770
:1008100083FD08E004A918480088FFF7E8FC02E01F
:10082000FFF7E4FC00BF00BF002014490880124914
:1008300008801349087047214FF6FF7000F0CBF98C
:100840000121104802F069FC29E60000E0040020C4
:100850000D0AD4ADCABCCAFDBEDDA3BA00000000BB
:10086000940000201E0000200D0ABDE2C2EBD6A1BC
:10087000A3BA0D0A000000000200002018000020AA
:1008800000000020000C0040704700BFFEE700BFE2
:10089000FEE700BFFEE700BFFEE770477047704706
:1008A0007047000000200021674A126842F480323D
:1008B000654B1A6000BF644A126802F40031401CA4
:1008C00011B9B0F5A06FF6D15F4A126812F4003F7B
:1008D00001D0012100E00021012942D15B4A1268C8
:1008E00042F01002594B1A601A46126822F00302B5
:1008F0001A601A46126842F002021A60524A52689E
:10090000514B5A601A4652685A601A46526842F46D
:1009100080625A601A46526822F47C125A601A4663
:10092000526842F4E8125A601A46126842F0807225
:100930001A6000BF444A126812F0007FFAD0424A9F
:10094000526822F00302404B5A601A46526842F045
:1009500002025A6000BF3C4A526802F00C02082AA8
:10096000F9D1704710B5FFF79DFF10BD10B536489F
:10097000006840F001003449086008464068344986
:1009800008403149486008460068324908402E490D
:1009900008600846006820F4802008600846406827
:1009A00020F4FE0048604FF41F008860FFF7DAFF74
:1009B0004FF000602849086010BD10B500200021EC
:1009C0000022214B5B6803F00C0020B1042806D004
:1009D000082828D107E0214B214C236027E01F4B3A
:1009E0001F4C236023E0184B5B6803F47011164B17
:1009F0005B6803F48032022303EB914122B9194B67
:100A00004B43174C23600DE00F4B5B6813F4003F22
:100A100004D0144B4B43124C236003E00F4B4B4369
:100A20000F4C236003E00D4B0D4C236000BF00BF53
:100A3000054B5B68C3F303130B4CE05C084B1B686E
:100A4000C340074C236010BD00100240002002404C
:100A50000000FFF8FFFFF6FE08ED00E000127A004C
:100A60000400002000093D000800002008B5012115
:100A7000482001F0F5FEE020ADF8000010208DF8D0
:100A8000030003208DF8020069460D4801F03EFC8A
:100A900020210B4801F0E2FC4021094801F0E0FC74
:100AA0008021074801F0DCFC2020ADF800006946F9
:100AB000044801F02BFC2021024801F0CFFC08BDC6
:100AC000000C0140001801407FB504460D4601218D
:100AD000022001F0D2FEADF80840ADF8045000202D
:100AE000ADF80A00ADF8060001A9FF4801F0EEFFDD
:100AF00001224121FC4802F035FB1D208DF8000049
:100B000000208DF8010003208DF8020001208DF8EF
:100B10000300684601F02FFB0121F34802F0FDFAC3
:100B20007FBD10B50121F04802F099FD58B10121B7
:100B3000ED4802F0A5FDED48006808B9012000E08D
:100B40000020EA49086010BD30B589B004460D4662
:100B50000121022001F091FE0121092001F080FE17
:100B60000121E34801F09DFC2020ADF82000182071
:100B70008DF8230003208DF8220008A9DD4801F03C
:100B8000C5FBADF81840ADF814500020ADF81A00C0
:100B9000ADF8160005A9D44801F098FF7020ADF813
:100BA00004000120ADF806000020ADF80A00ADF801
:100BB0000C0001A9CC4802F008F80821CA4802F04C
:100BC000E2FB0121C84802F0A6FB0121C64802F061
:100BD000A4FA09B030BD30B585B004460D460121F8
:100BE000082001F04AFE0121042001F039FE022014
:100BF000ADF8100048208DF8130004A9BE4801F09C
:100C000085FB0221BC4801F02BFCADF80840ADF893
:100C100004500020ADF80A00ADF8060001A9B7485D
:100C200001F054FF0420B6490880002048800120CC
:100C300088800020C88011200881B04802F0AFF9F8
:100C400032208DF8000002208DF8010000208DF880
:100C5000020001208DF80300684601F08CFA0122A1
:100C60000521A64802F07EFA0121A44802F055FAB7
:100C700005B030BD70B58CB000240025182106A841
:100C800003F08AF81821684603F086F800269D488C
:100C9000008810F0800F7ED10121984802F0DFFC1F
:100CA000B8B19948007888B90020964908809749DA
:100CB00008800021914802F0D8FB00209249891E4B
:100CC0000870491C08709249088002E000208E4993
:100CD00008708C48008880B901220421874802F0FE
:100CE00041FA0021854802F0C0FB00208649891E98
:100CF0000870491C08708549088004217F4802F06B
:100D0000AEFC002873D001207F4908707D48008820
:100D100010F0400F6CD0794802F085FC7B490880C8
:100D200008460088B0F5617F21DD0846008840F262
:100D30004C4188421BDA7348008800F007000728FE
:100D400061DA70480088401C6E4908806F4800884E
:100D5000C01C70496C4A921E127821F812006A4831
:100D6000801E0078401C6849891E08704BE0674867
:100D7000008840F26C7188423BDD6448008840F690
:100D80003401884235DA5F48008800F00700072800
:100D900039DA5C4800E048E10088401C5949088085
:100DA0005A49088800EBD0714910C91C594A564B62
:100DB0009B1E1B7822F813105348801E0078401C9D
:100DC0005149891E08705449088800EBD0714910B8
:100DD000491E524A4C4B5B1E1B7822F813104A489E
:100DE000401E0078401C4849491E08700BE061E233
:100DF00019E0002043490880444908804249891E7F
:100E00000870491C08703F48008800F0BF003D4949
:100E100008800846008840F02000088000213748FC
:100E200002F023FB46E2354802F0FDFB3749098812
:100E3000401A3949088008460088B0F5617F1CDDFA
:100E40000846008840F24C41884216DA2D48008856
:100E500010F0200F71D030480088401E81B22F481A
:100E6000294A521E127820F812102748401E007896
:100E7000401C2549491E08705FE02748008840F261
:100E80006C71884252DD2448008840F63401884263
:100E90004CDA1C48008810F0200F4ED0194800880A
:100EA000401C184908801949088800EBD071491086
:100EB000C91C184A144B9B1E1B7822F813101248A9
:100EC000801E0078401C1049891E0870124908884D
:100ED00000EBD0714910491E8AB210490A4B5B1EC3
:100EE0001B7821F813201BE000040040948121426C
:100EF00000081A00000C014000080140000C0040EE
:100F0000EC04002018000020310000201A0000200E
:100F10001E000020780000201C0000208600002019
:100F2000E7480078401CE649087006E00020E549E3
:100F30000880E3490870491E0870E248008800F004
:100F40000700062851DDDF48008840F08000DD49B9
:100F5000088000220421DC4802F004F90024002665
:100F600006E0DA4830F81600204484B2701CC6B29D
:100F7000D348401E00788642F3DB002606E0D448C2
:100F800030F81600204484B2701CC6B2CC480078F9
:100F90008642F4DB04F1320084B24FF47A7094FBA1
:100FA000F0F100FB114084B2B4F5FA7F07DD40F2A6
:100FB000DC51091BA1F10A0000F0C3FF03E0C4F5F6
:100FC000F57000F0BEFF0221C24801F02DFAC249BF
:100FD000887240F2E730BC492C3108800020B849C3
:100FE0000870491E0870C91C0870B54800780728A9
:100FF00004DAB348401E0078072804DB0020B0491B
:101000000870491E08700020B44908800021AE48CD
:1010100002F0F0FAAB48008840F04000A94908808F
:101020000221A94802F021FA44E1A648008810F004
:10103000800F78D0A348008810F0100F73D10121E1
:10104000A14802F00CFB0028EED00221A14801F0DB
:10105000EBF9A149C872A248006808B9012000E074
:1010600000209F490860002605E09B49701C085C31
:101070008855701CC6B20B2EF7DB002614E096488C
:10108000805D9849895D884206D197480078401C68
:1010900040B29549087005E093480078401E40B280
:1010A00091490870701CC6B20B2EE8DB8448801C86
:1010B0000078401C8249891C08708B4890F9000018
:1010C00009280DDB0020894908804FF48760884992
:1010D00008807C48008840F010007A4908801DE0B4
:1010E0007748801C00781E2818DD00208149087090
:1010F000814908804FF6FF7073492C310880012226
:101100000421714802F02EF800216F4802F0ADF979
:1011100000206C49088079A002F0BEFD00207249D1
:101120000870C7E0FFE76748008810F0800FF8D02C
:101130006448008810F0100FF3D06248008810F067
:10114000080FEED10121604802F089FA0028E8D0AA
:10115000664800886649098888427CDA02215D4831
:1011600001F062F96949614A128888545C48006854
:1011700008B9012000E00020594908605148008862
:1011800010F4807F62D15948008818285EDD4D48F0
:10119000008840F480704B490880002605E05B48D9
:1011A000805D06A98855701CC6B2182EF7DB69460B
:1011B00006A800F07CF905469DF80A009DF80B1082
:1011C00000EB4100C6B2314651A002F065FD36B1D8
:1011D000012E09D0022E29D0032E30D12AE04FF45F
:1011E0008760434908802AE09DF808009DF80910AF
:1011F00000EB41004A49087008460078022803D1F4
:10120000F0203B49088010E045480078012804D1CF
:101210004FF490703649088007E041480078032871
:1012200003D14FF4A8703249088008E0A820304963
:10123000088004E04FF46B702D49088000BF00BFA8
:101240002048008840F400601E4908802748008834
:10125000401C26490880254800882549098888427D
:1012600028D100201E4908601648008840F0080078
:10127000144908804FF6FF704FF08041A1F82C0C04
:1012800001220421104801F06DFF00210E4802F0F8
:10129000ECF8002205210C4801F064FF00210A4807
:1012A00001F03BFF1E4801781EA002F0F5FC22A0D1
:1012B00002F0F2FC0521044802F0E2F90CB070BD26
:1012C0003000002018000020000C004078000020B2
:1012D0008600002000080140E00400201A000020E1
:1012E00098812142200000202B0000201E000020B9
:1012F0002C00002000000020020000200D0AD5E292
:10130000C0EFD3D0CECACCE2C5B6210094000020F5
:101310000D0AD6A1C0E0D0CD693D25640D0A0000BC
:101320002E0000200D0AB9E3B2A5C0E0D0CD473DA4
:1013300025640D0A000000000D0AB1C8CCD8CAD53A
:10134000CDEA210D0A000000F0B586B003AF0022FF
:10135000134614461CC700240025002600BF84E065
:10136000C4F10B03C35C9DF81670DA1902EBD2735B
:101370005B10A2EB4303DBB28DF80B309DF80B2022
:101380008DF80A209DF80A208DF806209DF8062089
:101390008DF805209DF805208DF804209DF8042087
:1013A0008DF802209DF802208DF800209DF8153060
:1013B0009DF80A70DA1902EBD2735B10A2EB4303BB
:1013C000DBB28DF816309DF814208DF815209DF8AD
:1013D00013208DF814209DF812208DF813209DF80D
:1013E00011309DF80670DA1902EBD2735B10A2EB94
:1013F0004303DBB28DF812309DF810309DF8057074
:10140000DA1902EBD2735B10A2EB4303DBB28DF867
:1014100011309DF80F309DF80470DA1902EBD27389
:101420005B10A2EB4303DBB28DF810309DF80E2069
:101430008DF80F209DF80D309DF80270DA1902EB3F
:10144000D2735B10A2EB4303DBB28DF80E309DF834
:101450000C208DF80D209DF800208DF80C20C4F193
:101460000B02825C0A55621CD4B20C2CFFF678AFDA
:10147000002508E0C5F10A0203AB9A5C0A55621C1C
:10148000D4B26A1CD5B20B2DF4DB002404E00A5D53
:101490003244D6B2621CD4B2172CF8DB324606EBCB
:1014A000D6735B10A6EB4303CB7506B0F0BD2DE9F8
:1014B000F04F8FB004460D460CA800221346164686
:1014C0004CC0182106A802F067FC00260027B04691
:1014D0000020059002A800210A460B460EC089464E
:1014E0008A468B460020019000BF08E014F80A00ED
:1014F00006A901F80A000AF1010000F0FF0ABAF19A
:10150000170FF3DB4FF0000B5CE09DF83A609DF89D
:101510003910881900EBD0714910A0EB4101C9B214
:101520008DF83A109DF838008DF839009DF8370095
:101530008DF838009DF836008DF837009DF835108D
:10154000881900EBD0714910A0EB4101C9B28DF8A8
:1015500036109DF83410881900EBD0714910A0EBBB
:101560004101C9B28DF835109DF83310881900EB90
:10157000D0714910A0EB4101C9B28DF834109DF82B
:1015800032008DF833009DF83110881900EBD071CE
:101590004910A0EB4101C9B28DF832109DF830001E
:1015A0008DF8310006A911F80B10881900EBD071E5
:1015B0004910A0EB4101C9B28DF830100BF10100C8
:1015C00000F0FF0BBBF1170F9FDB00BF4FF0000ACD
:1015D00009E00CA810F80A00484400F0FF090AF1DD
:1015E000010000F0FF0ABAF10B0FF2DBB9F1030FB3
:1015F00010DC4FF0000A09E00CA810F80A0002A95C
:1016000001F80A000AF1010000F0FF0ABAF10B0F1D
:10161000F2DB57E14FF000099DF83A008DF8120017
:101620009DF83910481C00EBD0714910A0EB410126
:10163000C9B28DF811109DF83810481C00EBD0711C
:101640004910A0EB4101C9B28DF810109DF8370088
:101650008DF80F009DF83610481C00EBD071491032
:10166000A0EB4101C9B28DF80E109DF83510481C51
:1016700000EBD0714910A0EB4101C9B28DF80D10FB
:101680009DF834008DF80C009DF833008DF80B00A8
:101690009DF83210481C00EBD0714910A0EB4101BD
:1016A000C9B28DF80A109DF83110481C00EBD071BA
:1016B0004910A0EB4101C9B28DF809109DF8300026
:1016C0008DF80800CA4609E002A810F80A0048444C
:1016D00000F0FF090AF1010000F0FF0ABAF10B0F58
:1016E000F2DBB9F1020F17DCB91D172291FBF2F3FF
:1016F00002FB131106AA515C481C00EBD071491083
:10170000A0EB4101CAB2B91D172391FBF3FC03FB07
:101710001C1106AB5A54D5E04FF000099DF83A1061
:10172000481C00EBD0714910A0EB4101C9B28DF803
:1017300012109DF83910481C00EBD0714910A0EB35
:101740004101C9B28DF811109DF838008DF81000D4
:101750009DF83710481C00EBD0714910A0EB4101F7
:10176000C9B28DF80F109DF83610481C00EBD071EF
:101770004910A0EB4101C9B28DF80E109DF835005B
:101780008DF80D009DF834008DF80C009DF8331095
:10179000481C00EBD0714910A0EB4101C9B28DF893
:1017A0000B109DF83210481C00EBD0714910A0EBD3
:1017B0004101C9B28DF80A109DF831008DF8090079
:1017C0009DF830008DF80800CA4609E002A810F81C
:1017D0000A00484400F0FF090AF1010000F0FF0A86
:1017E000BAF10B0FF2DBB9F1020F17DC791D1722EA
:1017F00091FBF2F302FB131106AA515C481C00EBAB
:10180000D0714910A0EB4101CAB2791D172391FB99
:10181000F3FC03FB1C1106AB5A5453E04FF00009D4
:101820009DF83A609DF83910881900EBD071491085
:10183000A0EB4101C9B28DF83A109DF838008DF83F
:1018400039009DF837008DF838009DF836008DF886
:1018500037009DF83510881900EBD0714910A0EBC6
:101860004101C9B28DF836109DF83410881900EB8B
:10187000D0714910A0EB4101C9B28DF835109DF827
:101880003310881900EBD0714910A0EB4101C9B2A7
:101890008DF834109DF832008DF833009DF831102A
:1018A000881900EBD0714910A0EB4101C9B28DF845
:1018B00032109DF830008DF831008DF83060781CC2
:1018C000C7B283E607F10C00172190FBF1F201FB90
:1018D0001200C0B20590DDF814A00A2001901DE0AE
:1018E00017219AFBF1F201FB12A106AA515C02AA90
:1018F000019BD25C881800EBD0714910A0EB41012C
:1019000017229AFBF2F302FB13A206AB99540AF1D9
:10191000010000F0FF0A0198401E01900198002884
:10192000DEDA4FF0000A0DE006A810F80A0005F80C
:101930000A0015F80A00404400F0FF080AF101000F
:1019400000F0FF0ABAF1170FEEDB404608EBD87142
:101950004910A8EB4101E9754FF0000A07E00020AB
:101960000CA901F80A000AF1010000F0FF0ABAF11F
:101970000B0FF4DB00200FB0BDE8F08F10B5012194
:10198000080700F07AFF012002F09BF802F0BBF894
:1019900010BD10B500214FF4FE7000F07BFFFFF783
:1019A000EDFF10BD70B50024002500202E49086011
:1019B00019E02E48006818B1601CC4B2002508E088
:1019C000681CC5B2032D04DD0120274908600020F2
:1019D00070BD0F2000F0D7FA0A2C04DB002022494A
:1019E00008600120F4E7E4E710B5012002F047F9B0
:1019F000FFF7D8FF08B1FFF7CCFF10BD1FB50121DD
:101A0000052000F02DFF0120ADF80C0028208DF8F6
:101A10000F0003A9164800F079FC0021084600F0E9
:101A200084FD0120009000208DF8040008208DF82E
:101A3000050001208DF80600684602F0A3F8062094
:101A40008DF8080002208DF809008DF80A000120A9
:101A50008DF80B0002A800F08EFBFFF7A3FF08B97A
:101A6000FFF78CFF1FBD000094812142000121423D
:101A70000008014030B500220FE000230AE000EB2F
:101A80008204E45C01EB8205ED5C6C4000EB8205B6
:101A9000EC545B1C042BF2DB521C042AEDDB30BD42
:101AA0003FB501212CE0002207E000EB81039B5CA5
:101AB0006C4604EB8104A354521C042AF5DB00227B
:101AC00009E000EB8103541804F003041B5D00EBF4
:101AD0008104A354521C032AF3DD01220DE06B465E
:101AE00003EB81040B1D9B1A03F00303E35C00EB83
:101AF0008104C2F104056355521C8A42EFDD491C82
:101B00000429D0DB3FBD70B5002115E0002410E0B2
:101B100000EB81052D5D2A1100EB81052D5D05F09F
:101B20000F03F74D05EB0215ED5C00EB8106355513
:101B3000641C042CECDB491C0429E7DB70BD70B588
:101B400004460D460026012D03D104FB05F0C4B266
:101B500015E0022D09D1802C04DB6006040E84F010
:101B60001B040CE06006040E09E0032D07D1264695
:101B7000681EC1B22046FFF7E2FF044674402046CB
:101B800070BD2DE9F04104464FF0000800261CE02E
:101B9000002717E000250BE0DA4A02EB8602515DD0
:101BA00004EB8502D05DFFF7CAFF80EA08086D1CD0
:101BB000042DF1DBD44800EB860000F807804FF0DD
:101BC00000087F1C042FE5DB761C042EE0DB0026DA
:101BD0000CE0002707E0CC4800EB8600C05D04EB7A
:101BE0008601C8557F1C042FF5DB761C042EF0DB24
:101BF000BDE8F08130B50478002105E04D1C05F00A
:101C00000305455D4554491C0329F7DBC4700021D9
:101C10000AE0455C2A11455C05F00F03B84D05EB61
:101C20000215ED5C4554491C0429F2DB30BD2DE959
:101C3000F84304468946B5A000680090002503E0FB
:101C4000605DB34948556D1C102DF9DB102578E017
:101C50004FF0000808E0281F4044AD49085CAD493A
:101C600001F8080008F10108B8F1040FF3DBA948F6
:101C7000FFF7C0FF4FF000080DE0A64810F808007D
:101C8000A5F110014144A24A515C4840A14901F824
:101C9000080008F10108B8F1040FEEDB9DF8000020
:101CA0000121C1EB25118840C0B28DF80000082049
:101CB000B0EB251F07DA0920C0EB25111B20884057
:101CC000C0B28DF800004FF0010804E000200DF8CC
:101CD000080008F10108B8F1040FF7DB4FF0000825
:101CE0000AE08C4810F808001DF80810484089499F
:101CF00001F8080008F10108B8F1040FF1DB012038
:101D00008DF80000002608E08248805DA919804A0D
:101D1000505400207F498855761C042EF4DB2F1D7B
:101D20000AE0381F7A49085CA7F11001784A515C33
:101D300048401146C8557F1C05F110008742F0DB72
:101D40001035B02D84DBBDE8F8832DE9F04188B073
:101D500004460D466E492846FFF769FF002604E059
:101D60006B48805D04A98855761C102EF8DB002690
:101D70000DE0002708E006EB870004A9085C69462F
:101D800001EB8601C8557F1C042FF4DB761C042E62
:101D9000EFDB69462046FFF76DFE01262EE0204668
:101DA000FFF7B1FE2046FFF77BFE2046FFF7E9FE76
:101DB000002706E007EB06105549085C04A9C85542
:101DC0007F1C102FF6DB002711E04FF000080AE01F
:101DD00007EB880004A9085C694601EB870101F85C
:101DE000080008F10108B8F1040FF1DB7F1C042F93
:101DF000EBDB69462046FFF73DFE761C0A2ECEDB64
:101E00002046FFF780FE2046FFF74AFE002606E048
:101E100006F1A0003E49085C04A98855761C102EE6
:101E2000F6DB00260DE0002708E006EB870004A99A
:101E3000085C694601EB8601C8557F1C042FF4DB62
:101E4000761C042EEFDB69462046FFF713FE08B030
:101E5000BDE8F081F0B5002200230024002500BF7A
:101E600019E0002313E007240DE000EB8206F65C86
:101E70000127A7403E4201D0012600E000264E5532
:101E80006D1C661E74B2002CEFDA5E1C73B2042B5C
:101E9000E9DB561C72B2042AE3DBF0BDF0B5002486
:101EA0000025002200BF28E0002522E0002301EBEE
:101EB00084067355630103EBC50212E01346D6177F
:101EC00002EB5676F610A2EBC606C6F10707865C53
:101ED000BE4001EB84077F5D3E4301EB84077E55E6
:101EE000521C630103EBC50308339342E6DC6B1C11
:101EF000DDB2042DDADB631CDCB2042CD4DBF0BDD4
:101F00001D52000843000020F604002001000000DC
:101F1000060500205300002010B56FF0040000F00B
:101F200077F92A4800682A49B0FBF1F0294908707E
:101F3000084600784FF47A7148432649891C088086
:101F400010BD244A127842434FF0E0235A61002228
:101F50009A611A46126942F001021A6100BF4FF0FD
:101F6000E022116911F0010F02D011F4803FF6D088
:101F70004FF0E022126922F001024FF0E0231A61D3
:101F800000229A617047134A921C128842434FF014
:101F9000E0235A6100229A611A46126942F0010256
:101FA0001A6100BF4FF0E022116911F0010F02D059
:101FB00011F4803FF6D04FF0E022126922F00102C6
:101FC0004FF0E0231A6100229A617047040000205C
:101FD00000127A005800002010B54FF4A06000F005
:101FE000C5F810BD014600BF704700BF4B4A1288BC
:101FF00012F0400FFAD0C2B2484B1B1D1A80704736
:1020000010B586B00446012144F2040000F028FC1B
:10201000424801F039FB4FF40070ADF81400032082
:102020008DF8160018208DF8170005A93C4800F01F
:102030006DF94FF48060ADF8140004208DF817009E
:1020400005A9374800F062F925208DF8000003202B
:102050008DF801008DF8020001208DF8030068461C
:1020600000F089F801940020ADF80800ADF80A00EE
:10207000ADF80C00ADF810000C20ADF80E0001A971
:10208000264801F044FB012240F22551234801F08B
:10209000D5FB0121214801F0C5FB06B010BD10B5EC
:1020A00040F225511D4801F0B0FC002834D01B48F7
:1020B00001F02BFCC4B21B48008810F4004F2BD158
:1020C0001848008810F4804F0CD00A2C03D0002050
:1020D0001449088020E01348008840F4004011496A
:1020E000088019E00D2C06D10E48008840F480408D
:1020F0000C49088010E00B480088C0F30D000A4925
:102100000C5408480088401C06490880084600888E
:10211000C72801DD0020088010BD00000038014004
:10212000000801405C000020D605002009488047D7
:1021300009480047FEE7FEE7FEE7FEE7FEE7FEE7A9
:10214000FEE7FEE7FEE7FEE704480549054A064BC1
:10215000704700006D0900083101000800070020E9
:10216000000D002000090020000900203249014331
:10217000324A1160704770B5002100230F22C478E5
:102180000CB32E4C246804F4E064C4F5E064210A26
:10219000C1F10403CA40447804FA03F1847814407E
:1021A00021430901264C0678A155047804F01F0547
:1021B0000124AC4005786D114FF0E02606EB850553
:1021C000C5F8004109E0047804F01F040125A5408A
:1021D0001C4C0678761144F8265070BD1A4A0A4005
:1021E0000243164B1B1F1A60704741B1134A121D60
:1021F000126802434FF0E023C3F8102D07E00F4AA6
:10220000121D126882434FF0E023C3F8102D70476F
:10221000042808D14FF0E021096941F004014FF092
:10222000E022116107E04FF0E021096921F004018B
:102230004FF0E022116170470000FA050CED00E05C
:1022400000E400E080E100E080FFFF1F10B50446DD
:10225000C748844208D10121042000F01BFB002163
:10226000042000F017FB46E0C248844208D1012157
:10227000082000F00FFB0021082000F00BFB3AE0E3
:10228000BD48844208D10121102000F003FB002149
:10229000102000F0FFFA2EE0B848844208D1012156
:1022A000202000F0F7FA0021202000F0F3FA22E0CD
:1022B000B348844208D10121402000F0EBFA00210C
:1022C000402000F0E7FA16E0AE48844208D1012130
:1022D000802000F0DFFA0021802000F0DBFA0AE025
:1022E000A948844207D10121801500F0D3FA0021CA
:1022F000A01500F0CFFA10BD10B50121084600F07E
:10230000C9FA0021012000F0C5FA10BDF0B5002285
:102310000023002400250026002791F803C00CF0BC
:102320000F0291F803C01CF0100F03D091F802C007
:102330004CEA0202B1F800C01CF0FF0F31D0066871
:1023400000242BE04FF0010C0CFA04F5B1F800C0AA
:102350000CEA0503AB4220D1A5004FF00F0C0CFA9C
:1023600005F7BE4302FA05FC4CEA060691F803C0E5
:10237000BCF1280F06D14FF0010C0CFA04FCC0F898
:1023800014C00AE091F803C0BCF1480F05D14FF02A
:10239000010C0CFA04FCC0F810C0641C082CD1D34A
:1023A0000660B1F800C0BCF1FF0F34DD46680024C0
:1023B0002EE004F1080C4FF0010E0EFA0CF5B1F806
:1023C00000C00CEA0503AB4221D1A5004FF00F0C71
:1023D0000CFA05F7BE4302FA05FC4CEA060691F832
:1023E00003C0BCF1280F05D104F1080C0EFA0CFE55
:1023F000C0F814E091F803C0BCF1480F07D104F114
:10240000080C4FF0010E0EFA0CFEC0F810E0641C30
:10241000082CCED34660F0BD4FF6FF71018002213B
:1024200081700421C17070470246002093680B42FE
:1024300001D0012000E0002070470146886880B28A
:10244000704702460020D3680B4201D0012000E013
:10245000002070470146C86880B27047016170472C
:10246000416170470AB1016100E041617047C1609C
:1024700070474FF480320A438261816182618269D0
:10248000826970470022414B1A684FF680731A40E8
:1024900042EA00120A433D4B1A6070473C49C8614A
:1024A0007047F0B5002200230024002500F000460C
:1024B000B6F1004F02D1354EF46901E0334E746835
:1024C000C0F3034582B200F44016B6F5401F08D1B0
:1024D00024F070642D4E766826F070662B4F7E6077
:1024E00012E000F48016B6F5801F06D1032606FA26
:1024F00005F39C4344F0706406E0460D360102FA91
:1025000006F6B44344F0706421B1460D360102FA78
:1025100006F6344300F00046B6F1004F02D11B4EE0
:10252000F46101E0194E7460F0BD30B500228B07F4
:102530001C0F0F2303FA04F2144B08338C1053F8CA
:10254000244094438D1043F825408C1053F82430D8
:102550008C07240F00FA04F423430C4C08348D102C
:1025600044F8253030BD0A49DC310860704700006E
:1025700000080140000C014000100140001401401F
:1025800000180140001C01400020014000000140F3
:1025900000002042DB48006840F00100D949086093
:1025A00008464068D8490840D6494860084600684F
:1025B000D6490840D34908600846006820F48020C6
:1025C00008600846406820F4FE0048604FF41F0091
:1025D00088607047CB49096821F48031C94A11608D
:1025E0001146096821F480211160B0F5803F03D0C5
:1025F000B0F5802F0ED106E0C249096841F4803160
:10260000C04A116007E0BF49096841F4A021BD4AF2
:10261000116000E000BF00BF704710B50146002206
:10262000002300204A11012A02D1B64C236806E09B
:10263000022A02D1B34C236A01E0B24C636A01F072
:102640001F02012494401C4201D0012000E0002020
:1026500010BD70B500240025002600BF3120FFF713
:10266000DCFF0646641CB4F5A06F01D0002EF5D047
:102670003120FFF7D2FF08B1012500E000252846F0
:1026800070BD00219F4A116821F0F80141EAC001A4
:10269000116070479E49086070470022994B5A6844
:1026A00022F47C1240EA01031A43964B5A607047A9
:1026B0009749086670470021924A516821F003014A
:1026C0000143516070478F48406800F00C0070472C
:1026D00000218C4A516821F0F0010143516070479C
:1026E0000021884A516821F4E0610143516070473C
:1026F0000021844A516821F4605141EAC0015160CF
:10270000704729B17F4A527A02437E4B5A7206E0E3
:102710007C4A527AC343DBB21A407A4B5A727047F2
:102720007B49D831086070470021764A516821F40E
:1027300040410143516070470021724A20321170BC
:10274000704A82F82010012802D004280AD104E03F
:1027500001216C4A2032117005E00521694A2032BE
:10276000117000E000BF00BF70476A490860704701
:102770006449096A0143634A1162704765494439F3
:102780000860704730B500210022002300245D4D11
:102790006D6805F00C0121B1042905D0082923D169
:1027A00005E05D4D056022E05B4D05601FE0554D85
:1027B0006D6805F47012534D6D6805F48033022581
:1027C00005EB92421BB9554D554305600BE04D4D4D
:1027D0006D6815F4003F03D0504D5543056002E08D
:1027E0004D4D5543056002E04B4D056000BF00BFF5
:1027F000444D6D6805F0F0010909494D6C5C0568B0
:10280000E54045603F4D6D6805F4E061090A444DBF
:102810006C5C4568E54085603A4D6D6805F4605133
:10282000C90A3F4D6C5C4568E540C560354D6D6833
:1028300005F44041890B3A4D10356C5CC568B5FB19
:10284000F4F5056130BD29B12E4A526902432D4B82
:102850005A6104E02B4A526982432A4B5A617047FD
:1028600029B1284A92690243264B9A6104E0254A1D
:1028700092698243234B9A61704729B1214AD269F8
:102880000243204BDA6104E01E4AD26982431D4BA9
:10289000DA61704729B11B4AD2680243194BDA60EA
:1028A00004E0184AD2688243164BDA60704729B1B7
:1028B000144A12690243134B1A6104E0114A126967
:1028C0008243104B1A6170471249403908607047C3
:1028D0000F49C86470470B49C87170470948406A7E
:1028E00040F0807007494862704701460020054A61
:1028F00092680A4201D0012000E00020704701499F
:1029000088727047001002400000FFF8FFFFF6FEDB
:10291000000042428004424200127A0000093D0059
:102920006400002010B50446FF48844208D101210C
:10293000C014FFF7AFFF0021E014FFF7ABFFC4E0C6
:10294000B4F1804F08D101210846FFF7B0FF002104
:102950000120FFF7ACFFB8E0F448844208D1012120
:102960000220FFF7A4FF00210220FFF7A0FFACE048
:10297000EF48844208D101210420FFF798FF00218D
:102980000420FFF794FFA0E0EA48844208D1012127
:102990000820FFF78CFF00210820FFF788FF94E054
:1029A000E548844208D101211020FFF780FF002173
:1029B0001020FFF77CFF88E0E048844208D1012125
:1029C0002020FFF774FF00212020FFF770FF7CE03C
:1029D000DB48844208D101214014FFF75BFF00214E
:1029E0006014FFF757FF70E0D648844209D10121F7
:1029F000C804FFF74FFF00214FF40020FFF74AFF04
:102A000063E0D148844209D101210805FFF742FF64
:102A100000214FF48010FFF73DFF56E0CB48844281
:102A200009D101214805FFF735FF00214FF40010BF
:102A3000FFF730FF49E0C648844208D10121402019
:102A4000FFF735FF00214020FFF731FF3DE0C1488F
:102A5000844208D101218020FFF729FF0021802036
:102A6000FFF725FF31E0BC48844208D101218015E1
:102A7000FFF71DFF0021A015FFF719FF25E0B7485C
:102A8000844209D101210804FFF704FF00214FF41B
:102A90008030FFF7FFFE18E0B148844209D10121E0
:102AA0004804FFF7F7FE00214FF40030FFF7F2FE75
:102AB0000BE0AC48844208D101218804FFF7EAFE0C
:102AC00000214FF48020FFF7E5FE10BD00220288B0
:102AD000954B98420ED09A4B98420BD0B0F1804F54
:102AE00008D0924B984205D0914B984202D0914B1E
:102AF000984204D14FF68F731A404B881A438E4B7D
:102B0000984207D08D4B984204D04FF6FF431A40AD
:102B1000CB881A4302808B8883850B880385824B80
:102B200098420BD0864B984208D08C4B984205D0E7
:102B30008B4B984202D08B4B984201D10B7A038683
:102B400001238382704770B5002200230024058C86
:102B50004FF6FE7635400584038C8488028B4FF651
:102B60008F752A40B51E2A400D882A43751E2B40BA
:102B70000D892B434D882B436B4DA8420BD0704DD4
:102B8000A84208D0754DA84205D0754DA84202D084
:102B9000744DA84213D14FF6F7752B404D892B4346
:102BA0004FF6FB752B408D882B434FF6FF652C406D
:102BB0004FF6FF552C408D892C43CD892C438480C2
:102BC0000283CD888586038470BD70B50022002302
:102BD0000024058C4FF6EF7635400584038C8488FD
:102BE000028B48F6FF752A404FF6FF452A400D88B4
:102BF0002D0642EA15424FF6DF752B400D892D0553
:102C000043EA15434D882D0543EA1543464DA84236
:102C100002D04B4DA8421BD14FF67F752B404D89FA
:102C20002D0543EA15434FF6BF752B408D882D05C2
:102C300043EA15434FF6FF352C404FF2FF752C4009
:102C40008D89AD0444EA1544CD89AD0444EA1544A8
:102C500084800283CD880587038470BD70B500220F
:102C600000230024058C4FF6FF6635400584038C55
:102C70008488828B4FF68F752A404FF6FC752A4068
:102C80000D882A434FF6FF552B400D892D0643EA48
:102C900015434D882D0643EA1543234DA84202D023
:102CA000274DA8421BD14FF2FF752B404D892D06B1
:102CB00043EA15434FF6FF352B408D882D0643EA36
:102CC00015434EF6FF752C404DF6FF752C408D894F
:102CD0002D0544EA1544CD892D0544EA1544848028
:102CE0008283CD888587038470BD70B50022002360
:102CF0000024058C4EF6FF7635400584038C8488CD
:102D0000828B48F6FF752A404FF6FF452A400D8812
:102D10002D0642EA15424DF6FF752B400D892D0711
:102D200043EA15434D881FE0002C01400004004099
:102D300000080040000C004000100040001400405B
:102D400000340140004C014000500140005401405B
:102D500000180040001C00400020004000400140DE
:102D600000440140004801402D0743EA1543F84D57
:102D7000A84202D0F74DA84206D14BF6FF752C4071
:102D80008D89AD0544EA154484808283CD88A0F8FE
:102D90004050038470BD828B4FF2FF331A40828310
:102DA000828B0B0642EA134282837047F0B50024FF
:102DB00000250026078C4EF6FF7C07EA0C070784E7
:102DC000848B058C0F073E0C40F6FF473C401706EE
:102DD00044EA17441F0744EA1744DD4FB8420ED0B7
:102DE000DC4FB8420BD0B0F1804F08D0DA4FB84278
:102DF00005D0DA4FB84202D0D94FB84206D14DF6CD
:102E0000FF773D4046F480573D4305E047F6FF57C6
:102E10003D4041F480573D4384830584F0BD828B5F
:102E20004FF6F3731A408283828B0A438283704782
:102E3000F0B5002400250026078C4FF6FF6C07EA4A
:102E40000C070784848B058C0F063E0C4FF60C771D
:102E50003C401F0542EA17473C43BD4FB8420ED0E5
:102E6000BC4FB8420BD0B0F1804F08D0BA4FB84237
:102E700005D0BA4FB84202D0B94FB84206D14FF68A
:102E8000FF573D4046F480773D4305E04FF2FF5742
:102E90003D4041F480773D4384830584F0BD028B3F
:102EA0004FF2FF331A400283028B0B0642EA1342B1
:102EB00002837047F0B5002400250026078C4FF6EA
:102EC000EF7C07EA0C070784048B058C0F053E0C8A
:102ED00040F6FF473C401F0744EA1744170644EA00
:102EE00017449B4FB8420ED09A4FB8420BD0B0F166
:102EF000804F08D0984FB84205D0984FB84202D0C2
:102F0000974FB84206D14FF6DF773D4046F01007A5
:102F10003D4305E04FF65F773D4041F010073D43EC
:102F200004830584F0BD028B4FF6F3731A400283CD
:102F3000028B0A4302837047F0B500240025068CFB
:102F40004FF6FE773E400684048B058C4FF60C76D8
:102F500034401E0542EA164634437D4EB0420ED040
:102F60007C4EB0420BD0B0F1804F08D07A4EB042C8
:102F700005D07A4EB04202D0794EB04206D14FF61B
:102F8000FD76354041F00106354305E04FF6F57614
:102F9000354041F00106354304830584F0BD70B52A
:102FA00004460D466A4884420ED06A4884420BD0DB
:102FB000B4F1804F08D06848844205D06748844205
:102FC00002D06748844200D100E000BF288850B991
:102FD0002B89AA8869882046FFF7AEFFE98820463A
:102FE000FFF7A1FF25E0288804280AD12B89AA88A9
:102FF00069882046FFF75EFFE9882046FFF74FFF0C
:1030000017E0288808280AD12B89AA8869882046D1
:10301000FFF70EFFE9882046FFF701FF09E02B8943
:10302000AA8869882046FFF7C1FEE9882046FFF795
:10303000B2FE70BD2DE9F04104460D460026012781
:10304000688808B9022600E00026A888012801D176
:10305000022700E001272888A0B92B89AA8869885F
:103060002046FFF769FFE9882046FFF75CFF2B89C0
:103070003A4631462046FFF71DFFE9882046FFF714
:103080000EFF13E02B89AA8869882046FFF712FFFC
:10309000E9882046FFF703FF2B893A463146204650
:1030A000FFF74AFFE9882046FFF73DFFBDE8F081C2
:1030B0000A884B881A438B881A43CB881A430B899A
:1030C0001A434B891A438B891A43A0F8442070474E
:1030D0004FF6FF71818000210180C1804180017223
:1030E00070470021018041808180C1800181418140
:1030F0008181C1817047002101804180012181804F
:103100000021C180018170470021018041808180C0
:10311000C180018141818181704721B1028842F0E3
:103120000102028004E002884FF6FE731A4002801A
:10313000704731B1B0F8442042F40042A0F8442076
:1031400005E0B0F84420C2F30E02A0F84420704716
:10315000002C014000340140000400400008004001
:10316000000C004010B51AB183890B43838104E041
:103170008389CC43A4B22340838110BD81827047F0
:1031800041EA0203A0F84830704710B51AB18389AC
:103190000B43838104E08389CC43A4B22340838121
:1031A00010BD01894FF6F87211400181704700226D
:1031B00002894FF68F731A400A430281704730B577
:1031C00004460D4629462046FFF7F1FF208940F0CE
:1031D0000700208130BD2DE9F04104460D4616461A
:1031E0001F46602D06D13B46012231462046FFF79F
:1031F00061FE05E03B46012231462046FFF79CFE7A
:1032000029462046FFF7D3FF208940F007002081A0
:10321000BDE8F08130B500240489E4B21D0642EA1D
:1032200015450D432C43048130BD2DE9F041044682
:103230000D46164698460027434632462946204604
:10324000FFF7E8FF27894FF6F870074047F00707B8
:103250004FF68F70074047F070072781BDE8F08177
:10326000F0B504460D4616461F463B4632462946F3
:103270002046FFF7CFFF208940F480402081F0BD39
:10328000018582827047002202884FF68F731A40B0
:103290000A4302807047F0B5002400250026048907
:1032A000058B068C4FF6F8773C400C434FF6FC47F5
:1032B0003D4040F201173D434FF6DD773E401F058C
:1032C00042EA17473E43048105830684F0BD00228D
:1032D000028B4FF68F731A400A4302837047002215
:1032E000028B48F6FF731A400B0642EA1342028330
:1032F00070470022828B4FF68F731A400A438283F5
:1033000070470022828B48F6FF731A400B0642EA90
:1033100013428283704721B1028842F0800202800A
:1033200004E002884FF67F731A400280704721B193
:10333000828842F00402828004E082884FF6FB73A8
:103340001A408280704721B1828842F00802828050
:1033500004E082884FF6F7731A408280704721B1EB
:10336000828842F00102828004E082884FF6FE7378
:103370001A40828070470022028B4FF6F7731A4082
:103380000A43028370470022028B4FF2FF731A40F8
:103390000B0642EA1342028370470022828B4FF6EB
:1033A000F7731A400A43828370470022828B4FF2E0
:1033B000FF731A400B0642EA1342828370470022D1
:1033C000028B4FF6FB731A400A43028370470022B8
:1033D000028B4FF6FF331A400B0642EA1342028378
:1033E00070470022828B4FF6FB731A400A43828398
:1033F00070470022828B4FF6FF331A400B0642EAD9
:103400001342828370470022028B4FF67F731A406B
:103410000A43028370470022028BC2F30E020B069E
:1034200042EA1342028370470022828B4FF67F7379
:103430001A400A43828370470022828BC2F30E0235
:103440000B0642EA1342828370470022028C4FF639
:10345000FD731A400A43028470470022028C4FF623
:10346000F7731A400A43028470470022028C4FF619
:10347000DF731A400B0542EA1342028470470022B0
:10348000028C4FF67F731A400B0542EA1342028406
:1034900070470022028C4FF6FF531A400B0642EA97
:1034A0001342028470470022028C4FF2FF731A40CD
:1034B0000B0642EA1342028470470022028C4DF64A
:1034C000FF731A400B0742EA13420284704730B57B
:1034D000002301248C40A3B2048CDD43ADB22C4008
:1034E0000484048C02FA01F5ADB22C43048430BD8F
:1034F00030B5002304248C40A3B2048CDD43ADB26C
:103500002C400484048C02FA01F5ADB22C430484EF
:1035100030BD70B50023002403461846183301253A
:103520008D40ACB2058CE643B6B23540058409B196
:10353000082909D103EB61031D6825F070051D60A2
:103540001D6815431D600CE00D1FADB203EB650354
:103550001D6825F4E0451D601D68160645EA164500
:103560001D6070BD21B1028842F00202028004E0B9
:1035700002884FF6FD731A400280704721B102881D
:1035800042F00402028004E002884FF6FB731A4006
:103590000280704721B1828842F08002828004E07C
:1035A00082884FF67F731A408280704702884FF6F8
:1035B000F7731A40028002880A43028070478288AB
:1035C0004FF68F731A40828082880A438280704748
:1035D00002894FF6F8731A40028102890A43028178
:1035E000704702894FF67F731A40028102890A43AD
:1035F000028170478184704781857047818670475A
:103600000187704781877047A0F840107047028893
:103610004FF6FF431A40028002880A430280704737
:103620000146888E70470146088F70470146888F93
:1036300070470146B1F8400070470146888C7047DA
:103640000146088D704702460020138A0B4201D0C4
:10365000012000E000207047CA430282704730B565
:103660000246002000230024158A05EA01039589FB
:1036700005EA010413B10CB1012000E0002030BDC7
:10368000CA4302827047000010B50446FB488442DA
:1036900009D101218803FFF7FDF800214FF4804094
:1036A000FFF7F8F832E0F648844209D101214804D6
:1036B000FFF7FDF800214FF40030FFF7F8F825E0A0
:1036C000F048844209D101218804FFF7F0F8002175
:1036D0004FF48020FFF7EBF818E0EB48844209D163
:1036E0000121C804FFF7E3F800214FF40020FFF7A1
:1036F000DEF80BE0E548844208D101210805FFF718
:10370000D6F800214FF48010FFF7D1F810BD2DE955
:10371000F04786B004460D460026002700BFB1469C
:10372000B246A88900B100BFA246268A4CF6FF70B7
:103730000640E88806432682A6894EF6F310064026
:10374000A88829890843698908430643A681A68A6F
:103750004FF6FF400640A8890643A68201A8FFF75E
:1037600011F85446C548824501D1049F00E0039FEB
:10377000A08910F4004F08D007EBC70000EB07103A
:1037800029684900B0FBF1F807E007EBC70000EB40
:10379000071029688900B0FBF1F86420B8FBF0F04D
:1037A00006013009642101FB1089A08910F4004F43
:1037B00009D0322101EBC9006421B0FBF1F000F027
:1037C0000700064308E0322101EB09106421B0FB39
:1037D000F1F000F00F000643268106B0BDE8F08747
:1037E0004FF41651016000218180C18001810C21BC
:1037F000418100218181704710B50022028A4FF279
:10380000FF031A400B884C8823438C882343CC88C1
:1038100023431A43028210BD002101804180818030
:10382000C180704721B1828942F40052828104E054
:1038300082894DF6FF731A4082817047F0B50024EB
:10384000002500260023A1F510676A3F00D100BFC4
:103850000346C1F3421401F01F05012707FA05F6DC
:10386000012C01D10C3304E0022C01D1103300E013
:1038700014331AB11F6837431F6002E01F68B74353
:103880001F60F0BD10B51AB1838A0B43838204E038
:10389000838ACC43A4B22340838210BD028A4FF6B0
:1038A000F0731A400282028A0A43028270478289B8
:1038B0004FF2FF731A40828182890A4382817047E6
:1038C00021B1828942F00202828104E082894FF6AE
:1038D000FD731A4082817047028A4FF6DF731A40E7
:1038E0000282028A0A430282704721B1028A42F4AC
:1038F0008042028204E0028A4BF6FF731A40028281
:103900007047C1F308028280704701468888C0F37F
:1039100008007047818941F0010181817047028B65
:10392000D2B20283028B42EA012202837047028BE9
:1039300002F47F420283028B0A430283704721B163
:10394000828A42F02002828204E0828A4FF6DF738C
:103950001A408282704721B1828A42F0100282822C
:1039600004E0828A4FF6EF731A408282704721B1D9
:10397000828A42F00802828204E0828A4FF6F7735C
:103980001A408282704721B1828942F400428281CA
:1039900003E08289C2F30E028281704721B1828ADC
:1039A00042F40062828204E0828A4FF2FF731A407E
:1039B00082827047828A4FF6FB731A408282828A23
:1039C0000A438282704721B1828A42F002028282D7
:1039D00004E0828A4FF6FD731A40828270470246E5
:1039E0000020B1F5007F00D100BF13880B4201D049
:1039F000012000E00020704701F40072B2F5007F62
:103A000000D100BFCA430280704770B50246002350
:103A1000002400250020A1F510666A3E00D100BFF9
:103A2000C1F3421501F01F04012606FA04F4012D2A
:103A300002D19689344006E0022D02D1168A344024
:103A400001E0968A34400B12012606FA03F3168829
:103A5000334014B10BB1012000E0002070BD10B55F
:103A600000220023A1F510646A3C00D100BF0A12B5
:103A700001249440A3B2DC43048010BD003801400F
:103A80000044004000480040004C0040005000400E
:103A900010B501210807FEF70AFF00214FF0805002
:103AA000FEF705FF10BD2C49086270472A490861DE
:103AB00070470021294A116821F0E001014311609B
:103AC00070472549A0310860704710B50022234B8C
:103AD0001A6822F0030202431A60214B1B6843F06C
:103AE00004034FF0E024C4F8103D012901D130BF98
:103AF00000E020BF1A4B1B6823F004034FF0E024C2
:103B0000C4F8103D10BD1548006840F0040013498A
:103B100008600846006840F002000860104800682D
:103B200040F004004FF0E021C1F8100D00BF00BFCD
:103B300030BF704701460020084A52680A4201D04F
:103B4000012000E0002070470449096841EA800133
:103B5000024A11607047000000000E4200700040F1
:103B600010ED00E00020484908604849C1F804040D
:103B7000454908310860091D08604548424914312B
:103B800008607047002140498279002A40D03F4AAE
:103B9000D2F8002403689A433C4BC3F800241A4629
:103BA000D2F8042403689A430B1D1A600279114469
:103BB0000A6803681A430A60344AD2F80824036882
:103BC0009A43324BC3F808241A46D2F80C240368EF
:103BD0009A432D4B0C331A604279102A10D12B4A8C
:103BE000D2F8082403681A43284BC3F808241A465D
:103BF000D2F80C2403681A43244BC3F80C240DE0BC
:103C00002149427911440A6803681A430A6005E0B1
:103C1000027911440A6803689A430A6070470021D8
:103C2000016001710C2141710021817170471649B9
:103C3000103109680143154AC2F810147047014653
:103C40000020114A143212680A4201D0012000E01B
:103C5000002070470C49143108607047014600206D
:103C60000022094B1B6803EA0102084BD3F8143405
:103C70000B4202D00AB1012000E000207047024947
:103C8000143108607047000000040140000001404A
:103C9000FFFF0F00704700000FB4054A054910B53B
:103CA00003AB7944029800F022FB10BC5DF814FBD2
:103CB0006000002045E3FFFF2DE9F04104460E4679
:103CC00000202BE0E1682046884748B3252802D031
:103CD000D4E901211FE0E16820460027884705005C
:103CE0001ED0A5F14100192802D820354FF40067F5
:103CF0003246294620462760FCF754FA40B1012895
:103D000001D1361DDEE7F61D26F007060836D9E795
:103D1000D4E9012128469047206A401C2062D1E75F
:103D2000206ABDE8F08100002DE9F04180460026C0
:103D300010687529414614A511D0AFF30080002802
:103D400002DA404211A508E0D8F800108A0701D530
:103D50000FA502E0490704D50EA5012601E0AFF347
:103D60000080002408F1240704E000F0D3FA303189
:103D70003955641C0028F8D133462A46214640466E
:103D8000BDE8F04100F033B8000000002D00000055
:103D90002B000000200000004FF0000200B5134689
:103DA00094469646203922BFA0E80C50A0E80C505B
:103DB000B1F12001BFF4F7AF090728BFA0E80C500C
:103DC00048BF0CC05DF804EB890028BF40F8042B05
:103DD00008BF704748BF20F8022B11F0804F18BF72
:103DE00000F8012B704770477047704770472DE906
:103DF000F0470D4604469246994600F124080168B2
:103E0000880604D5E06921F01001216000E001205E
:103E10000027A84200DD471BA1697A1902EB0900BF
:103E2000081AA0612068C00602D42046AFF30080C3
:103E3000002608E0D4E901211AF806009047206A1C
:103E4000401C761C20624E45F4DB2068C0060AD573
:103E50002046AFF3008006E0D4E9012130209047EE
:103E6000206A401C2062381EA7F10107F4DC07E03D
:103E7000D4E9012118F805009047206A401C20620F
:103E8000281EA5F10105F3DC2046AFF30080216870
:103E90000220090600D40120BDE8F08770472DE913
:103EA000FF4F0C4698468DB0D2E90010DDF868A0AF
:103EB000CDE90810C0F30A550DB94FF0FF350021C8
:103EC00008464FF00000099900F44000002905DA87
:103ED00000EB80004FF4400101EA50004FEA905B94
:103EE000BBF1010F01DD4FF0FF3BDDE9080150EAB6
:103EF000410016D1BAF1010F02D16FEA080207E0C2
:103F0000302101E02154401C4045FBDB40460022AB
:103F1000002121540D99C1E9010A0A6011B0BDE8E0
:103F2000F08FA5F2FF3544F610504543CBF1000069
:103F30000B904FEA2549BAF1000F03D1A9EB080510
:103F40006D1C01E0C8F100050B9A002D00DC5A46FB
:103F5000294601DAC5F1000103A800F06DFADDE998
:103F6000081000F041FBA0F500501F388DE8070055
:103F70000398002D09DD42F21F015A46084403A9A7
:103F80000390684600F0A1FD08E0A0F500505A46F5
:103F90001F3803A90390684600F0ABFD8DE80700C9
:103FA0000004000C03D04FF0FF356E0801E00E4610
:103FB0001546BAF1000F25D1474607E0314628469D
:103FC00000F0B6F9303205460E46E2557F1EF5D5B3
:103FD0000023012786EA030185EA03000843CDF8A0
:103FE0001C8003D0002709F1010005E0207830286B
:103FF00003D10027A9F101008146002FCDF81890C8
:1040000099D034E000200A9007460AE0112F0FDA19
:104010003146284600F08CF9303205460E46E2550E
:104020007F1C002386EA030185EA03000843EDD1E3
:10403000002386EA030185EA0300084310D13846CD
:10404000002104E0235C625C6354491C2254401E3E
:104050008142F7DBA7EB0800401ECDE9060706E02A
:104060000A9820B94FF011084FF0000A63E7079A49
:104070000020A0540D98C0F808A007994160069947
:1040800001604BE72DE9F04F04468846D21D22F02F
:10409000070091B0D0E90010CDE902100146029866
:1040A00000F05DFE0399CA0F4FF02D0106D1226882
:1040B0002B21930702D4202101EAC20103288B4659
:1040C00001D0072806DB5B4602464146204600F049
:1040D00075F905E12068800601D5E76900E006274B
:1040E0001120B8F1650F1ED0B8F1660F29D0B8F1D4
:1040F000670F62D1012F00DA01270023112F0093EF
:1041000000DC3846034602AA06A90EA8FFF7C7FE40
:1041100020683D460026000734D40F98A84200DAF4
:10412000054606A827E00023112F009300DA781C2B
:10413000034602AA06A90EA8FFF7B1FE00267D1CC1
:1041400026E001234FF0004902AA06A90EA8009319
:104150003B46FFF7A4FEDDE90F50002610B90E998B
:10416000781C0D18781B02D47D1CC0F1FF36A5EB1E
:10417000070A22E06D1E012D04DD411911F8011C12
:104180003029F7D00E98B84202DA10F1040F03DAA2
:104190004FF0010A0E980FE0002802DC2D1A0644A9
:1041A00004E0401CA84201DD0E9D6D1C0E98801B92
:1041B00000F1010A4FF0004081462068000703D457
:1041C000AA4501DB4FF0FF3A0020B9F1004F0DF195
:1041D00017078DF8170024D04FF002082B20B9F1F3
:1041E000000F01900BDA2D20C9F10009019006E0C3
:1041F000484600F08FF83031814607F8011DB8F1CC
:104200000000A8F10108F3DCB9F1000FF0D101982A
:1042100007F8010D21684520090500D4652007F83D
:10422000010D04A8C01B00F107085FEA0B0000D0D5
:104230000120411901EBEA7101EB0800A169081A9C
:10424000401EA0612068C00602D42046AFF3008063
:10425000BBF1000F06D05846D4E901219047206AEF
:10426000401C20622068C00625D52046AFF30080A0
:1042700021E0002E07DB0F98B04204DD06A8D4E948
:104280000121805D02E0D4E9012130209047206ABD
:10429000401C2062761CAAF101005FEA000A0AD1E4
:1042A00000F040F8C0680168405CD4E90121904703
:1042B000206A401C2062281EA5F10105D9DC07E018
:1042C000D4E9012117F8010B9047206A401C2062B5
:1042D000B8F10000A8F10108F2DC2046AFF300803D
:1042E00002201BE601694A1C02610878704710B57C
:1042F0000C46194690B0CDE9024200220692044ACB
:104300007A44CDE9042001A8FFF7D6FC10B010BD17
:10431000E1FFFFFF4FF00A01B0FBF1F202FB1101D8
:10432000104670470148704770470000C0060020E3
:1043300030B5B0F10A024FEA900E71F100034EEA77
:10434000817EB0EB0E0061EB91014FEA101E4EEA48
:10435000017E10EB0E0041EB11114FEA102E4EEAD8
:10436000016E10EB0E0041EB11214FEA104E4EEAA8
:10437000014E10EB0E0041EB1141401841F10001DC
:104380004FEAD00040EA41704FEAD10110EB8005BE
:104390004FEA810444EA907444EB01046D1944EB44
:1043A0000404521BA3414FF0000348BF0A3200D55A
:1043B00030BD401C41F1000130BD00002DE9F0414D
:1043C00004461F4603260168072A01F4006003DB48
:1043D00015A520B915A502E015A500B915A521F070
:1043E00010002060A069C01EA0610FB1401EA06136
:1043F0002046AFF300800FB9206A06E0D4E901211E
:1044000038469047206A401C2062C01C206204E0AD
:10441000D4E9012115F8010B9047761EF8D2204609
:10442000AFF30080BDE8F0814E414E006E616E003A
:10443000494E4600696E66002DE9F04717468146F1
:104440008AB0304A7A4407A838CA01F5DC511B31DA
:1044500038C038CA04A8372238C091FBF2F0A0F166
:10446000800502FB10141B3C02D56442012000E0D1
:104470000020DFF890A080460026FA44AAF1B20A94
:104480000DE0E00709D03A4606EB46000AEB800152
:1044900007A800F02EFB07AB07C36410761C002CA6
:1044A000EFD1DFF860A001AEFA44AAF1A40A16E049
:1044B000E80712D00AEB041090E80E0086E80E0020
:1044C000C068F84202D10398384403903A4601A9E3
:1044D00004A800F00EFB04AB07C36D10641C002D94
:1044E000E6D13A46B8F1000F07A904A802D000F0BF
:1044F000ECFA01E000F0FDFAA9E807000AB0BDE817
:10450000F0870000540F000000487047A00600200C
:104510007546FFF7F9FFAE4605006946534620F0A1
:104520000700854618B020B5FDF70EFEBDE8204017
:104530004FF000064FF000074FF000084FF0000B5F
:1045400021F00701AC46ACE8C009ACE8C009ACE812
:10455000C009ACE8C0098D4670470446AFF300803F
:104560002046FBF73EFE00004FF0013C50F8042BC4
:1045700051F8043B9A4221D1A2EB0C03934313EA76
:10458000CC1317D150F8042B51F8043B9A4215D1A3
:10459000A2EB0C03934313EACC130BD150F8042B7A
:1045A00051F8043B9A4209D1A2EB0C03934313EA5E
:1045B000CC13DBD04FF0000070470000D01A01BAD6
:1045C000B1FA81F101F0180122FA01F0CB40C1F1FA
:1045D0002001DBB2C0B2C01A2CFA01F3D11A914308
:1045E00011EAC311E6D170475FEA400C08BF91F0B1
:1045F000000F4FEA8C234FEAC12243EA51514FEAA0
:104600001C5018BF00F5F0404FEA300018BF41F0D1
:1046100000415FEA6C5C00F02980BCF1FF3F08BFFD
:1046200040F080407047130C06BF12044FF0100C8E
:104630004FF0000C130E04BF12020CF1080C130F04
:1046400004BF12010CF1040C930F04BF92000CF193
:10465000020CD30F04BF52000CF1010C11464FF0B5
:104660000002A0F11F00A0EB0C00704711F0004FFA
:1046700008BF704731F000413FF4D5AF0B0C06BFC7
:1046800009044FF0100C4FF0000C0B0E04BF090290
:104690000CF1080C0B0F04BF09010CF1040C8B0F7B
:1046A00004BF89000CF1020CCB0F04BF49000CF1D0
:1046B000010CCCF12003A0EB0C0022FA03F302FA68
:1046C0000CF241EA030100F10100704720F07F4C39
:1046D00080EA030023F07F47ACEB070303F57C532C
:1046E00000F0004003F1FF032DE980494FEA154B2C
:1046F00009B44FEA144325EA0B4E24EA03480FF2AB
:10470000042606EB132749083E785FEA320203FBD2
:104710000667C7F5000707FB06F64FEA54374FEA6E
:10472000D64606F1020607FB066CCCF1005C4FEAA8
:104730001C472CEA074C07FB06F40CFB06F504EBC0
:1047400015464FEA961634BF00204FF000404FEA5E
:10475000D13706FB07FC4FEA1C4C0CFB0BF7D21BB6
:1047600003FB0CF761EB07010CFB0EF7B0EB074006
:1047700072EB17420CFB08F734BFA2EB0742B2EB17
:10478000074261EB17414FEA0C444FEA910706FBE1
:1047900007FC4FEA1C4C0CFB0BF7B0EBC74072EB6D
:1047A000573203FB0CF734BFA2EBC742B2EBC74250
:1047B00061EB57310CFB0EF7B0EBC70072EB577291
:1047C0000CFB08F734BFA2EBC702B2EBC70261EBE8
:1047D0005771039F4FEA816141EA921104EBCC04C7
:1047E0004FEAD1374FEA826206FB07FC42EA901299
:1047F0004FEA80604FEA1C4C0CFB0BF7D21B03FB0B
:104800000CF761EB07010CFB0EF7B0EB074072EB06
:1048100017420CFB08F734BFA2EB0742B2EB07428A
:1048200061EB17414FEA8C554FEA910704EB9C244A
:1048300006FB07FC4FEA1C4C0CFB0BF7B0EBC74028
:1048400072EB573203FB0CF734BFA2EBC742B2EB5B
:10485000C74261EB57310CFB0EF7B0EBC70072EBB0
:1048600057720CFB08F734BFA2EBC702B2EBC702CA
:1048700061EB577115EB4C254FEA816141EA9211CA
:104880004FEA82624FEAD13742EA901206FB07FCF8
:1048900044F100044FEA80604FEA1C4C0CFB0BF71C
:1048A000D21B03FB0CF761EB07010CFB0EF7B0EB1F
:1048B000074072EB17420CFB08F734BFA2EB07422C
:1048C000B2EB074261EB174115EB1C154FEA813142
:1048D00041EA92414FEA823242EA90424FEA803006
:1048E0004FEA0C7644F1000448EA03434EEA0B48D1
:1048F0004FF0000EB2EB080C71EB030724BF6246C9
:1049000039464EEB0E0E4FF0000B00185241494154
:104910004BEB0B0BB2EB080C71EB03077BF1000BBD
:1049200024BF624639464EEB0E0E4FF0000B0018C6
:10493000524149414BEB0B0BB2EB080C71EB0307F7
:104940007BF1000B24BF624639464EEB0E0E51EA56
:10495000020718BF46F0010616EB0E7655F100026D
:1049600054F1000103D5BDE88901BDE80088BDE828
:104970008901BDE80048B619524141EB0101A3F19C
:104980000103704780807F7E7D7C7B7A79787776A3
:1049900076757473727171706F6E6E6D6C6C6B6A1C
:1049A0006A696868676666656464636362616160BA
:1049B000605F5F5E5E5D5D5C5C5B5B5A5A59595837
:1049C00058575756565555555454535352525251A1
:1049D000515050504F4F4F4E4E4D4D4D4C4C4C4BF7
:1049E0004B4B4A4A4A49494948484847474747463E
:1049F000464645454544444444434343434242427A
:104A000042414141002B26D4770021D01CB54FEA0A
:104A1000370703B44FF010004FF010014FF00000C3
:104A20000FBCBDE810400BF1010BBBF1010F08BF3B
:104A30005FEA170722BF12F1010211F101014FF0E5
:104A4000004143F1000300F0004043EA00007047DA
:104A5000F9D35708DAE746EA064613F1400F4FEA62
:104A600016461FDD13F1200FDFBF16430A46002153
:104A700020335B42C8D0C3F1200746EA064602FA5B
:104A800007F74FEA164646EA0706C3F1200722FA5F
:104A900003F201FA07F721FA03F14FF0000342EAAB
:104AA0000702B1E746EA020646EA06464FEA16461C
:104AB00046EA0106BCBF46EA0646360C4FF0000344
:104AC0004FF000024FF000019EE72DE9C0489346E9
:104AD00030B491E8380007C831EA400C48BF34EAE6
:104AE000430C03D5FFF7F2FDFFF78CFFF0BCBDE8E8
:104AF00000882DE9C048934630B491E8380007C8D3
:104B000010F0804F08BF13F0804F03D100F005F87C
:104B1000FFF778FFF0BCBDE8008820F07F4780EA0F
:104B2000030023F07F4C07EB0C03A3F57C5300F04C
:104B30000040A3F1FE0392F0000F00F0B38095F067
:104B4000000F00F077802DE901494FEA11404FEA4C
:104B5000144621EA004800FB06FC24EA064708FB4D
:104B600006F607FB08F800FB07F718EB06484CEBC6
:104B7000164C4FEA124B18EB07484FEA15464CEB20
:104B8000174022EA0B4E0BFB06FC25EA06470EFBFC
:104B900006F607FB0EFE0BFB07F71EEB064E4CEB73
:104BA000164C4FF000061EEB074E4CEB174B18EB64
:104BB0000B0840F1000018EB0E0B58EB000840F119
:104BC00000008F1A4FF000013CBFC943661B14BFA1
:104BD000B5EB040C00213CBFC943F61B4FEA174458
:104BE0004EEA8E0E27EA04454FEA1C4704FB076293
:104BF0002CEA074C05FB07F70CFB05F604FB0CFC45
:104C000016EB074642EB174216EB0C4642EB1C42F2
:104C10001BEB060658EB0202414146EA9E0601D50F
:104C2000BDE80189B619524141EB0101A3F101032D
:104C3000BDE801894FEA14454FEA114724EA0546C9
:104C400021EA074C05FB07F406FB07F70CFB06F10E
:104C500005FB0CFC11EB074144EB17444FEA1247EC
:104C600011EB0C4144EB1C4422EA074C05FB07F214
:104C700006FB07F70CFB06F605FB0CFC16EB0746DC
:104C800042EB174216EB0C4642EB1C456A1854F1F6
:104C9000000148BF7047B619524141EB0101A3F131
:104CA0000103704795F0000F37D04FEA11424FEAE9
:104CB000144721EA024624EA074C02FB07F106FBEF
:104CC00007F70CFB06F402FB0CFC14EB074441EB6A
:104CD00017414FEA154714EB0C4441EB1C4125EA00
:104CE000074C02FB07F506FB07F70CFB06F602FB79
:104CF0000CFC16EB074645EB174516EB0C4645EB4F
:104D00001C42121951F1000148BF7047B6195241B7
:104D100041EB0101A3F1010370474FEA14454FEA4B
:104D2000114724EA054621EA074C05FB07F106FB7B
:104D300007F70CFB06F24FF0000605FB0CFC12EB2C
:104D4000074241EB174112EB0C4251EB1C4148BFAB
:104D50007047921841EB0101A3F10103704749002C
:104D600050EAC12000D004204A0D01D040F00100DB
:104D700040F2FF72B2EB515F01D140F00200012816
:104D800000D105207047000010B500290AD008782E
:104D9000002807D005487844FFF7E6FB002801D03B
:104DA000002010BD0248784410BD00003E060000FF
:104DB0003606000010F0004314BF4142014643F0A4
:104DC0008043B1FA81FC03F1F87311FA0CF1A3EB03
:104DD0000C534FEA415008BF704703EBE121704785
:104DE00000F5000C1CF0FE4F09D0C1104FEA4070D6
:104DF00001F1605158BF7047A1F1E04170471CF4C8
:104E0000000F08D00146400008BF70474FF0000077
:104E10004FEA30017047DFF814C0420240F00E80C4
:104E2000AFF3008040F4E001104670471800000422
:104E3000014800F07EB900000000C07F014800F08A
:104E400078B900000000C07F4FF47F0C1CEAD0123C
:104E50001EBF1CEAD11392EA0C0F93EA0C0F00F06C
:104E6000A58090EA010F48BF42F4807240F4000C24
:104E700041F400002CF07F4120F07F4000B58142DA
:104E8000A2EB03020FF2401CACEB504EC0F100004D
:104E90009EF800E04FEA4E0E00FB0EFC38BF4900C2
:104EA0004FEA2C1C02F5FA020CFB0EF34FEACE1E61
:104EB0004FEA112C4FEAC1210EEB635E0EFB0CFC96
:104EC0004FEA1C5300FB03114FEA112C4FEA01314A
:104ED0000EFB0CFC02F4807E42EB22424FEADC4CDB
:104EE00000FB0C11C14228BF09184CEB0333012908
:104EF00024BF4EF0020E4EF0804E10EB410F24BF47
:104F00004EF0010E4EF0804E08BF4EF0040E4EF0F3
:104F100008015DF804EB43EBC25018BFB2F57C0FFB
:104F200038BF704741EAC07108BF20F00100B2F5F8
:104F30007C0F38BF704729D512F0F00F1CBF00F16D
:104F4000C04000F0004070470081828384858687DE
:104F500088898B8C8D8E8F919293959697999A9C38
:104F60009D9FA0A2A3A5A7A8AAACAEB0B2B3B5B7A7
:104F7000B9BCBEC0C2C5C7C9CCCED1D4D7D9DCDF7D
:104F8000E2E6E9ECF0F3F7FAFE0000004FEA400C2D
:104F90000CF1807CBCF17E4F28BF7047B0F1C0405F
:104FA0004FF07F404CBF40104008704790EA010F1F
:104FB0000CEAD11348BF42F48072624538BF6345A2
:104FC00007D213F47F0F23D080EA010000F00040E5
:104FD00070474FF0807C1CEB400F98BF1CEB410FDB
:104FE000DFF840C03FF624AFAFF300804FF0807C85
:104FF0001CEB400F02BF1CEB410F0B4870471CEB32
:10500000410F0CBF002020F0004040EAC250704722
:1050100012F47F0F04BF0448704742F0FF004FEACC
:10502000C0507047040000040000C07F10F0004230
:1050300018BF404242F08042B0FA80F18840A2EBB3
:10504000C15202F1786208BF7047410642EB20204E
:1050500018BF5FF0806C28BF20F00100704710B4CB
:1050600012F47F0F4FEA00204FEA012110D1B0FA6D
:1050700080F400FA04F0A2EB044213F47F0F02F56F
:10508000803218BF41F0004100D010BC18BF60470B
:1050900040F00040B1FA81F401FA04F1A3EB0443BB
:1050A00010BC03F58033604700F0004343EAD0535F
:1050B00023F48073C3F1C10323F0004117291FD8E3
:1050C000C3F1200310FA03F1C3F1200320F07F4065
:1050D00040F4000020FA03F003F0004340EA03002C
:1050E0000DD00B46590009D318BF401C06D17FEAEA
:1050F000E27398BF401C38BF20F001007047704732
:10510000182903EB912318BF6FF00041013168BFEC
:1051100003F0004009D6400203F0004000F1010016
:1051200004BF12F0004F20F0010070477047FEF7F7
:10513000A9BF0CF00F03092B08BF082000F02B803B
:105140000A2B0BD0082B18BF704708BF1CF0400F6C
:105150000AD04FF000004FF0000170471CF0400FE4
:1051600018BF4FF0004070471CF0100F08D020F01F
:10517000704300F07F4242EAD3014FEA4370704728
:1051800000F0604021F07F4242EA000201F07F40DF
:1051900040EA727070471CF4801F11D01CF4E02F9D
:1051A00003D06FEACC31490070474FF04050EFF325
:1051B000008222F0704242EA000282F300887047C7
:1051C0004FF00000704700000D0A6D61696ED4CB8E
:1051D000D0D0D6D02154494D354348315F4341505A
:1051E000545552455F5354413D25642C6672616DA0
:1051F000655F77696E646F775F636F756E746572F4
:105200003D25642C6465636F6465645F6672616DDF
:10521000655F696E6465783D25640D0A00637C777F
:105220007BF26B6FC53001672BFED7AB76CA82C9A4
:105230007DFA5947F0ADD4A2AF9CA472C0B7FD93DC
:1052400026363FF7CC34A5E5F171D8311504C723D4
:10525000C31896059A071280E2EB27B27509832CD2
:105260001A1B6E5AA0523BD6B329E32F8453D100A8
:10527000ED20FCB15B6ACBBE394A4C58CFD0EFAAC7
:10528000FB434D338545F9027F503C9FA851A34015
:105290008F929D38F5BCB6DA2110FFF3D2CD0C13F6
:1052A000EC5F974417C4A77E3D645D197360814F1E
:1052B000DC222A908846EEB814DE5E0BDBE0323A40
:1052C0000A4906245CC2D3AC629195E479E7C837F9
:1052D0006D8DD54EA96C56F4EA657AAE08BA78257C
:1052E0002E1CA6B4C6E8DD741F4BBD8B8A703EB57C
:1052F000664803F60E613557B986C11D9EE1F898E0
:105300001169D98E949B1E87E9CE5528DF8CA1891F
:105310000DBFE6426841992D0FB054BB1600000046
:1053200002400000000000A0000000000540000056
:10533000000000C8000000000C4000000000409C7D
:1053400000000000194000000020BCBE000000006A
:1053500034400000BFC91B8E00000004B5400000AF
:10536000504BCFD06607E2CF010000006C41000037
:105370003E8251AADFEEA73401000000D9420000AE
:10538000DCB5A0E23A301F97FFFFFFFFB4450000F5
:10539000FD25A0C8E9A3C14FFFFFFFFFFF3F0000AD
:1053A0000000008000000000FF3F000000000080BF
:1053B00000000000F053000800000020780000000A
:1053C0006C0100086854000878000020880C000078
:1053D000880100081C00000043000000F8FFFFFFE8
:1053E0000C0000000E0000000F0000002E00000066
:1053F0000000000000A24A040000000000000000BD
:105400000102030406070809000000000000000074
:105410000101010000000100000100000000000087
:105420000000002B7E151628AED2A6ABF715880912
:10543000CF4F3C02030101010203010101020303FA
:105440000101020000000000000000000000000058
:105450000000000000000000010203040102030438
:08546000060708090204060812
:0400000508000131BD
:00000001FF
